{
	"2_enu.sol": {
		"Enum": {
			"abi": [
				{
					"inputs": [],
					"name": "geturrentEmployeeStatus",
					"outputs": [
						{
							"internalType": "enum Enum.EmployeeType",
							"name": "",
							"type": "uint8"
						}
					],
					"stateMutability": "view",
					"type": "function"
				},
				{
					"inputs": [],
					"name": "setDeveloper",
					"outputs": [],
					"stateMutability": "nonpayable",
					"type": "function"
				},
				{
					"inputs": [],
					"name": "setManger",
					"outputs": [],
					"stateMutability": "nonpayable",
					"type": "function"
				},
				{
					"inputs": [],
					"name": "setSrDeveloper",
					"outputs": [],
					"stateMutability": "nonpayable",
					"type": "function"
				},
				{
					"inputs": [],
					"name": "setTrainee",
					"outputs": [],
					"stateMutability": "nonpayable",
					"type": "function"
				}
			],
			"devdoc": {
				"kind": "dev",
				"methods": {},
				"version": 1
			},
			"evm": {
				"assembly": "    /* \"2_enu.sol\":207:887  contract Enum {... */\n  mstore(0x40, 0x80)\n  callvalue\n  dup1\n  iszero\n  tag_1\n  jumpi\n  0x00\n  dup1\n  revert\ntag_1:\n  pop\n  dataSize(sub_0)\n  dup1\n  dataOffset(sub_0)\n  0x00\n  codecopy\n  0x00\n  return\nstop\n\nsub_0: assembly {\n        /* \"2_enu.sol\":207:887  contract Enum {... */\n      mstore(0x40, 0x80)\n      callvalue\n      dup1\n      iszero\n      tag_1\n      jumpi\n      0x00\n      dup1\n      revert\n    tag_1:\n      pop\n      jumpi(tag_2, lt(calldatasize, 0x04))\n      shr(0xe0, calldataload(0x00))\n      dup1\n      0x5a06b485\n      eq\n      tag_3\n      jumpi\n      dup1\n      0x8a343307\n      eq\n      tag_4\n      jumpi\n      dup1\n      0x8fab994e\n      eq\n      tag_5\n      jumpi\n      dup1\n      0xaa1443bd\n      eq\n      tag_6\n      jumpi\n      dup1\n      0xcf2a1fe3\n      eq\n      tag_7\n      jumpi\n    tag_2:\n      0x00\n      dup1\n      revert\n        /* \"2_enu.sol\":339:433  function setTrainee() public {... */\n    tag_3:\n      tag_8\n      tag_9\n      jump\t// in\n    tag_8:\n      stop\n        /* \"2_enu.sol\":553:655  function setSrDeveloper() public {... */\n    tag_4:\n      tag_10\n      tag_11\n      jump\t// in\n    tag_10:\n      stop\n        /* \"2_enu.sol\":663:755  function setManger() public{... */\n    tag_5:\n      tag_12\n      tag_13\n      jump\t// in\n    tag_12:\n      stop\n        /* \"2_enu.sol\":447:545  function setDeveloper() public {... */\n    tag_6:\n      tag_14\n      tag_15\n      jump\t// in\n    tag_14:\n      stop\n        /* \"2_enu.sol\":763:882  function geturrentEmployeeStatus() public view  returns (EmployeeType){... */\n    tag_7:\n      tag_16\n      tag_17\n      jump\t// in\n    tag_16:\n      mload(0x40)\n      tag_18\n      swap2\n      swap1\n      tag_19\n      jump\t// in\n    tag_18:\n      mload(0x40)\n      dup1\n      swap2\n      sub\n      swap1\n      return\n        /* \"2_enu.sol\":339:433  function setTrainee() public {... */\n    tag_9:\n        /* \"2_enu.sol\":405:425  EmployeeType.TRAINEE */\n      0x00\n        /* \"2_enu.sol\":379:402  currentStatusOfEmployee */\n      dup1\n      0x00\n        /* \"2_enu.sol\":379:425  currentStatusOfEmployee = EmployeeType.TRAINEE */\n      0x0100\n      exp\n      dup2\n      sload\n      dup2\n      0xff\n      mul\n      not\n      and\n      swap1\n      dup4\n      0x03\n      dup2\n      gt\n      iszero\n      tag_21\n      jumpi\n      tag_22\n      tag_23\n      jump\t// in\n    tag_22:\n    tag_21:\n      mul\n      or\n      swap1\n      sstore\n      pop\n        /* \"2_enu.sol\":339:433  function setTrainee() public {... */\n      jump\t// out\n        /* \"2_enu.sol\":553:655  function setSrDeveloper() public {... */\n    tag_11:\n        /* \"2_enu.sol\":623:647  EmployeeType.SRDEVELOPER */\n      0x02\n        /* \"2_enu.sol\":597:620  currentStatusOfEmployee */\n      0x00\n      dup1\n        /* \"2_enu.sol\":597:647  currentStatusOfEmployee = EmployeeType.SRDEVELOPER */\n      0x0100\n      exp\n      dup2\n      sload\n      dup2\n      0xff\n      mul\n      not\n      and\n      swap1\n      dup4\n      0x03\n      dup2\n      gt\n      iszero\n      tag_25\n      jumpi\n      tag_26\n      tag_23\n      jump\t// in\n    tag_26:\n    tag_25:\n      mul\n      or\n      swap1\n      sstore\n      pop\n        /* \"2_enu.sol\":553:655  function setSrDeveloper() public {... */\n      jump\t// out\n        /* \"2_enu.sol\":663:755  function setManger() public{... */\n    tag_13:\n        /* \"2_enu.sol\":727:747  EmployeeType.MANAGER */\n      0x03\n        /* \"2_enu.sol\":701:724  currentStatusOfEmployee */\n      0x00\n      dup1\n        /* \"2_enu.sol\":701:747  currentStatusOfEmployee = EmployeeType.MANAGER */\n      0x0100\n      exp\n      dup2\n      sload\n      dup2\n      0xff\n      mul\n      not\n      and\n      swap1\n      dup4\n      0x03\n      dup2\n      gt\n      iszero\n      tag_28\n      jumpi\n      tag_29\n      tag_23\n      jump\t// in\n    tag_29:\n    tag_28:\n      mul\n      or\n      swap1\n      sstore\n      pop\n        /* \"2_enu.sol\":663:755  function setManger() public{... */\n      jump\t// out\n        /* \"2_enu.sol\":447:545  function setDeveloper() public {... */\n    tag_15:\n        /* \"2_enu.sol\":515:537  EmployeeType.DEVELOPER */\n      0x01\n        /* \"2_enu.sol\":489:512  currentStatusOfEmployee */\n      0x00\n      dup1\n        /* \"2_enu.sol\":489:537  currentStatusOfEmployee = EmployeeType.DEVELOPER */\n      0x0100\n      exp\n      dup2\n      sload\n      dup2\n      0xff\n      mul\n      not\n      and\n      swap1\n      dup4\n      0x03\n      dup2\n      gt\n      iszero\n      tag_31\n      jumpi\n      tag_32\n      tag_23\n      jump\t// in\n    tag_32:\n    tag_31:\n      mul\n      or\n      swap1\n      sstore\n      pop\n        /* \"2_enu.sol\":447:545  function setDeveloper() public {... */\n      jump\t// out\n        /* \"2_enu.sol\":763:882  function geturrentEmployeeStatus() public view  returns (EmployeeType){... */\n    tag_17:\n        /* \"2_enu.sol\":820:832  EmployeeType */\n      0x00\n        /* \"2_enu.sol\":851:874  currentStatusOfEmployee */\n      dup1\n      0x00\n      swap1\n      sload\n      swap1\n      0x0100\n      exp\n      swap1\n      div\n      0xff\n      and\n        /* \"2_enu.sol\":844:874  return currentStatusOfEmployee */\n      swap1\n      pop\n        /* \"2_enu.sol\":763:882  function geturrentEmployeeStatus() public view  returns (EmployeeType){... */\n      swap1\n      jump\t// out\n        /* \"#utility.yul\":7:187   */\n    tag_23:\n        /* \"#utility.yul\":55:132   */\n      0x4e487b7100000000000000000000000000000000000000000000000000000000\n        /* \"#utility.yul\":52:53   */\n      0x00\n        /* \"#utility.yul\":45:133   */\n      mstore\n        /* \"#utility.yul\":152:156   */\n      0x21\n        /* \"#utility.yul\":149:150   */\n      0x04\n        /* \"#utility.yul\":142:157   */\n      mstore\n        /* \"#utility.yul\":176:180   */\n      0x24\n        /* \"#utility.yul\":173:174   */\n      0x00\n        /* \"#utility.yul\":166:181   */\n      revert\n        /* \"#utility.yul\":193:312   */\n    tag_34:\n        /* \"#utility.yul\":280:281   */\n      0x04\n        /* \"#utility.yul\":273:278   */\n      dup2\n        /* \"#utility.yul\":270:282   */\n      lt\n        /* \"#utility.yul\":260:306   */\n      tag_41\n      jumpi\n        /* \"#utility.yul\":286:304   */\n      tag_42\n      tag_23\n      jump\t// in\n    tag_42:\n        /* \"#utility.yul\":260:306   */\n    tag_41:\n        /* \"#utility.yul\":193:312   */\n      pop\n      jump\t// out\n        /* \"#utility.yul\":318:457   */\n    tag_35:\n        /* \"#utility.yul\":369:376   */\n      0x00\n        /* \"#utility.yul\":398:403   */\n      dup2\n        /* \"#utility.yul\":387:403   */\n      swap1\n      pop\n        /* \"#utility.yul\":404:451   */\n      tag_44\n        /* \"#utility.yul\":445:450   */\n      dup3\n        /* \"#utility.yul\":404:451   */\n      tag_34\n      jump\t// in\n    tag_44:\n        /* \"#utility.yul\":318:457   */\n      swap2\n      swap1\n      pop\n      jump\t// out\n        /* \"#utility.yul\":463:602   */\n    tag_36:\n        /* \"#utility.yul\":525:534   */\n      0x00\n        /* \"#utility.yul\":558:596   */\n      tag_46\n        /* \"#utility.yul\":590:595   */\n      dup3\n        /* \"#utility.yul\":558:596   */\n      tag_35\n      jump\t// in\n    tag_46:\n        /* \"#utility.yul\":545:596   */\n      swap1\n      pop\n        /* \"#utility.yul\":463:602   */\n      swap2\n      swap1\n      pop\n      jump\t// out\n        /* \"#utility.yul\":608:763   */\n    tag_37:\n        /* \"#utility.yul\":707:756   */\n      tag_48\n        /* \"#utility.yul\":750:755   */\n      dup2\n        /* \"#utility.yul\":707:756   */\n      tag_36\n      jump\t// in\n    tag_48:\n        /* \"#utility.yul\":702:705   */\n      dup3\n        /* \"#utility.yul\":695:757   */\n      mstore\n        /* \"#utility.yul\":608:763   */\n      pop\n      pop\n      jump\t// out\n        /* \"#utility.yul\":769:1015   */\n    tag_19:\n        /* \"#utility.yul\":874:878   */\n      0x00\n        /* \"#utility.yul\":912:914   */\n      0x20\n        /* \"#utility.yul\":901:910   */\n      dup3\n        /* \"#utility.yul\":897:915   */\n      add\n        /* \"#utility.yul\":889:915   */\n      swap1\n      pop\n        /* \"#utility.yul\":925:1008   */\n      tag_50\n        /* \"#utility.yul\":1005:1006   */\n      0x00\n        /* \"#utility.yul\":994:1003   */\n      dup4\n        /* \"#utility.yul\":990:1007   */\n      add\n        /* \"#utility.yul\":981:987   */\n      dup5\n        /* \"#utility.yul\":925:1008   */\n      tag_37\n      jump\t// in\n    tag_50:\n        /* \"#utility.yul\":769:1015   */\n      swap3\n      swap2\n      pop\n      pop\n      jump\t// out\n\n    auxdata: 0xa26469706673582212203698cf4c16d837d3b427029d5faca13df0544587a205677de7c2b1aebd5148c764736f6c63430008120033\n}\n",
				"bytecode": {
					"linkReferences": {},
					"object": "608060405234801561001057600080fd5b50610230806100206000396000f3fe608060405234801561001057600080fd5b50600436106100575760003560e01c80635a06b4851461005c5780638a343307146100665780638fab994e14610070578063aa1443bd1461007a578063cf2a1fe314610084575b600080fd5b6100646100a2565b005b61006e6100ce565b005b6100786100fa565b005b610082610126565b005b61008c610152565b60405161009991906101df565b60405180910390f35b60008060006101000a81548160ff021916908360038111156100c7576100c6610168565b5b0217905550565b60026000806101000a81548160ff021916908360038111156100f3576100f2610168565b5b0217905550565b60036000806101000a81548160ff0219169083600381111561011f5761011e610168565b5b0217905550565b60016000806101000a81548160ff0219169083600381111561014b5761014a610168565b5b0217905550565b60008060009054906101000a900460ff16905090565b7f4e487b7100000000000000000000000000000000000000000000000000000000600052602160045260246000fd5b600481106101a8576101a7610168565b5b50565b60008190506101b982610197565b919050565b60006101c9826101ab565b9050919050565b6101d9816101be565b82525050565b60006020820190506101f460008301846101d0565b9291505056fea26469706673582212203698cf4c16d837d3b427029d5faca13df0544587a205677de7c2b1aebd5148c764736f6c63430008120033",
					"opcodes": "PUSH1 0x80 PUSH1 0x40 MSTORE CALLVALUE DUP1 ISZERO PUSH2 0x10 JUMPI PUSH1 0x0 DUP1 REVERT JUMPDEST POP PUSH2 0x230 DUP1 PUSH2 0x20 PUSH1 0x0 CODECOPY PUSH1 0x0 RETURN INVALID PUSH1 0x80 PUSH1 0x40 MSTORE CALLVALUE DUP1 ISZERO PUSH2 0x10 JUMPI PUSH1 0x0 DUP1 REVERT JUMPDEST POP PUSH1 0x4 CALLDATASIZE LT PUSH2 0x57 JUMPI PUSH1 0x0 CALLDATALOAD PUSH1 0xE0 SHR DUP1 PUSH4 0x5A06B485 EQ PUSH2 0x5C JUMPI DUP1 PUSH4 0x8A343307 EQ PUSH2 0x66 JUMPI DUP1 PUSH4 0x8FAB994E EQ PUSH2 0x70 JUMPI DUP1 PUSH4 0xAA1443BD EQ PUSH2 0x7A JUMPI DUP1 PUSH4 0xCF2A1FE3 EQ PUSH2 0x84 JUMPI JUMPDEST PUSH1 0x0 DUP1 REVERT JUMPDEST PUSH2 0x64 PUSH2 0xA2 JUMP JUMPDEST STOP JUMPDEST PUSH2 0x6E PUSH2 0xCE JUMP JUMPDEST STOP JUMPDEST PUSH2 0x78 PUSH2 0xFA JUMP JUMPDEST STOP JUMPDEST PUSH2 0x82 PUSH2 0x126 JUMP JUMPDEST STOP JUMPDEST PUSH2 0x8C PUSH2 0x152 JUMP JUMPDEST PUSH1 0x40 MLOAD PUSH2 0x99 SWAP2 SWAP1 PUSH2 0x1DF JUMP JUMPDEST PUSH1 0x40 MLOAD DUP1 SWAP2 SUB SWAP1 RETURN JUMPDEST PUSH1 0x0 DUP1 PUSH1 0x0 PUSH2 0x100 EXP DUP2 SLOAD DUP2 PUSH1 0xFF MUL NOT AND SWAP1 DUP4 PUSH1 0x3 DUP2 GT ISZERO PUSH2 0xC7 JUMPI PUSH2 0xC6 PUSH2 0x168 JUMP JUMPDEST JUMPDEST MUL OR SWAP1 SSTORE POP JUMP JUMPDEST PUSH1 0x2 PUSH1 0x0 DUP1 PUSH2 0x100 EXP DUP2 SLOAD DUP2 PUSH1 0xFF MUL NOT AND SWAP1 DUP4 PUSH1 0x3 DUP2 GT ISZERO PUSH2 0xF3 JUMPI PUSH2 0xF2 PUSH2 0x168 JUMP JUMPDEST JUMPDEST MUL OR SWAP1 SSTORE POP JUMP JUMPDEST PUSH1 0x3 PUSH1 0x0 DUP1 PUSH2 0x100 EXP DUP2 SLOAD DUP2 PUSH1 0xFF MUL NOT AND SWAP1 DUP4 PUSH1 0x3 DUP2 GT ISZERO PUSH2 0x11F JUMPI PUSH2 0x11E PUSH2 0x168 JUMP JUMPDEST JUMPDEST MUL OR SWAP1 SSTORE POP JUMP JUMPDEST PUSH1 0x1 PUSH1 0x0 DUP1 PUSH2 0x100 EXP DUP2 SLOAD DUP2 PUSH1 0xFF MUL NOT AND SWAP1 DUP4 PUSH1 0x3 DUP2 GT ISZERO PUSH2 0x14B JUMPI PUSH2 0x14A PUSH2 0x168 JUMP JUMPDEST JUMPDEST MUL OR SWAP1 SSTORE POP JUMP JUMPDEST PUSH1 0x0 DUP1 PUSH1 0x0 SWAP1 SLOAD SWAP1 PUSH2 0x100 EXP SWAP1 DIV PUSH1 0xFF AND SWAP1 POP SWAP1 JUMP JUMPDEST PUSH32 0x4E487B7100000000000000000000000000000000000000000000000000000000 PUSH1 0x0 MSTORE PUSH1 0x21 PUSH1 0x4 MSTORE PUSH1 0x24 PUSH1 0x0 REVERT JUMPDEST PUSH1 0x4 DUP2 LT PUSH2 0x1A8 JUMPI PUSH2 0x1A7 PUSH2 0x168 JUMP JUMPDEST JUMPDEST POP JUMP JUMPDEST PUSH1 0x0 DUP2 SWAP1 POP PUSH2 0x1B9 DUP3 PUSH2 0x197 JUMP JUMPDEST SWAP2 SWAP1 POP JUMP JUMPDEST PUSH1 0x0 PUSH2 0x1C9 DUP3 PUSH2 0x1AB JUMP JUMPDEST SWAP1 POP SWAP2 SWAP1 POP JUMP JUMPDEST PUSH2 0x1D9 DUP2 PUSH2 0x1BE JUMP JUMPDEST DUP3 MSTORE POP POP JUMP JUMPDEST PUSH1 0x0 PUSH1 0x20 DUP3 ADD SWAP1 POP PUSH2 0x1F4 PUSH1 0x0 DUP4 ADD DUP5 PUSH2 0x1D0 JUMP JUMPDEST SWAP3 SWAP2 POP POP JUMP INVALID LOG2 PUSH5 0x6970667358 0x22 SLT KECCAK256 CALLDATASIZE SWAP9 0xCF 0x4C AND 0xD8 CALLDATACOPY 0xD3 0xB4 0x27 MUL SWAP14 0x5F 0xAC LOG1 RETURNDATASIZE CREATE SLOAD GASLIMIT DUP8 LOG2 SDIV PUSH8 0x7DE7C2B1AEBD5148 0xC7 PUSH5 0x736F6C6343 STOP ADDMOD SLT STOP CALLER "
				},
				"gasEstimates": {
					"creation": {
						"codeDepositCost": "112000",
						"executionCost": "159",
						"totalCost": "112159"
					},
					"external": {
						"geturrentEmployeeStatus()": "2634",
						"setDeveloper()": "24475",
						"setManger()": "24453",
						"setSrDeveloper()": "24431",
						"setTrainee()": "24409"
					}
				},
				"methodIdentifiers": {
					"geturrentEmployeeStatus()": "cf2a1fe3",
					"setDeveloper()": "aa1443bd",
					"setManger()": "8fab994e",
					"setSrDeveloper()": "8a343307",
					"setTrainee()": "5a06b485"
				}
			},
			"storageLayout": {
				"storage": [
					{
						"astId": 9,
						"contract": "2_enu.sol:Enum",
						"label": "currentStatusOfEmployee",
						"offset": 0,
						"slot": "0",
						"type": "t_enum(EmployeeType)6"
					}
				],
				"types": {
					"t_enum(EmployeeType)6": {
						"encoding": "inplace",
						"label": "enum Enum.EmployeeType",
						"numberOfBytes": "1"
					}
				}
			},
			"userdoc": {
				"kind": "user",
				"methods": {},
				"version": 1
			}
		}
	}
}