{
	"AbiEncodeAndeDecode.sol": {
		"EncodeDecode": {
			"abi": [
				{
					"inputs": [
						{
							"internalType": "bytes",
							"name": "data",
							"type": "bytes"
						}
					],
					"name": "decode",
					"outputs": [
						{
							"internalType": "string",
							"name": "_str1",
							"type": "string"
						},
						{
							"internalType": "uint256",
							"name": "_int",
							"type": "uint256"
						},
						{
							"internalType": "string",
							"name": "_str2",
							"type": "string"
						}
					],
					"stateMutability": "pure",
					"type": "function"
				},
				{
					"inputs": [
						{
							"internalType": "string",
							"name": "_str1",
							"type": "string"
						},
						{
							"internalType": "uint256",
							"name": "_int",
							"type": "uint256"
						},
						{
							"internalType": "string",
							"name": "_str2",
							"type": "string"
						}
					],
					"name": "encode",
					"outputs": [
						{
							"internalType": "bytes",
							"name": "",
							"type": "bytes"
						}
					],
					"stateMutability": "pure",
					"type": "function"
				}
			],
			"devdoc": {
				"kind": "dev",
				"methods": {},
				"version": 1
			},
			"evm": {
				"assembly": "    /* \"AbiEncodeAndeDecode.sol\":74:572  contract EncodeDecode {... */\n  mstore(0x40, 0x80)\n  callvalue\n  dup1\n  iszero\n  tag_1\n  jumpi\n  0x00\n  dup1\n  revert\ntag_1:\n  pop\n  dataSize(sub_0)\n  dup1\n  dataOffset(sub_0)\n  0x00\n  codecopy\n  0x00\n  return\nstop\n\nsub_0: assembly {\n        /* \"AbiEncodeAndeDecode.sol\":74:572  contract EncodeDecode {... */\n      mstore(0x40, 0x80)\n      callvalue\n      dup1\n      iszero\n      tag_1\n      jumpi\n      0x00\n      dup1\n      revert\n    tag_1:\n      pop\n      jumpi(tag_2, lt(calldatasize, 0x04))\n      shr(0xe0, calldataload(0x00))\n      dup1\n      0x3b7fa265\n      eq\n      tag_3\n      jumpi\n      dup1\n      0xe5c5e9a3\n      eq\n      tag_4\n      jumpi\n    tag_2:\n      0x00\n      dup1\n      revert\n        /* \"AbiEncodeAndeDecode.sol\":170:330  function encode(string memory _str1, uint _int, string memory _str2) public pure returns(bytes memory) {... */\n    tag_3:\n      tag_5\n      tag_6\n      calldatasize\n      0x04\n      tag_7\n      jump\t// in\n    tag_6:\n      tag_8\n      jump\t// in\n    tag_5:\n      mload(0x40)\n      tag_9\n      swap2\n      swap1\n      tag_10\n      jump\t// in\n    tag_9:\n      mload(0x40)\n      dup1\n      swap2\n      sub\n      swap1\n      return\n        /* \"AbiEncodeAndeDecode.sol\":379:569  function decode(bytes memory data) public pure returns(string memory _str1, uint _int, string memory _str2) {... */\n    tag_4:\n      tag_11\n      tag_12\n      calldatasize\n      0x04\n      tag_13\n      jump\t// in\n    tag_12:\n      tag_14\n      jump\t// in\n    tag_11:\n      mload(0x40)\n      tag_9\n      swap4\n      swap3\n      swap2\n      swap1\n      tag_16\n      jump\t// in\n        /* \"AbiEncodeAndeDecode.sol\":170:330  function encode(string memory _str1, uint _int, string memory _str2) public pure returns(bytes memory) {... */\n    tag_8:\n        /* \"AbiEncodeAndeDecode.sol\":259:271  bytes memory */\n      0x60\n        /* \"AbiEncodeAndeDecode.sol\":303:308  _str1 */\n      dup4\n        /* \"AbiEncodeAndeDecode.sol\":309:313  _int */\n      dup4\n        /* \"AbiEncodeAndeDecode.sol\":315:320  _str2 */\n      dup4\n        /* \"AbiEncodeAndeDecode.sol\":292:321  abi.encode(_str1,_int, _str2) */\n      add(0x20, mload(0x40))\n      tag_18\n      swap4\n      swap3\n      swap2\n      swap1\n      tag_16\n      jump\t// in\n    tag_18:\n      mload(0x40)\n      0x20\n      dup2\n      dup4\n      sub\n      sub\n      dup2\n      mstore\n      swap1\n      0x40\n      mstore\n        /* \"AbiEncodeAndeDecode.sol\":284:322  return (abi.encode(_str1,_int, _str2)) */\n      swap1\n      pop\n        /* \"AbiEncodeAndeDecode.sol\":170:330  function encode(string memory _str1, uint _int, string memory _str2) public pure returns(bytes memory) {... */\n      swap4\n      swap3\n      pop\n      pop\n      pop\n      jump\t// out\n        /* \"AbiEncodeAndeDecode.sol\":379:569  function decode(bytes memory data) public pure returns(string memory _str1, uint _int, string memory _str2) {... */\n    tag_14:\n        /* \"AbiEncodeAndeDecode.sol\":434:453  string memory _str1 */\n      0x60\n        /* \"AbiEncodeAndeDecode.sol\":455:464  uint _int */\n      0x00\n        /* \"AbiEncodeAndeDecode.sol\":466:485  string memory _str2 */\n      0x60\n        /* \"AbiEncodeAndeDecode.sol\":532:536  data */\n      dup4\n        /* \"AbiEncodeAndeDecode.sol\":521:561  abi.decode(data, (string, uint, string)) */\n      dup1\n      0x20\n      add\n      swap1\n      mload\n      dup2\n      add\n      swap1\n      tag_20\n      swap2\n      swap1\n      tag_21\n      jump\t// in\n    tag_20:\n        /* \"AbiEncodeAndeDecode.sol\":498:561  (_str1, _int, _str2) = abi.decode(data, (string, uint, string)) */\n      swap2\n      swap7\n      swap1\n      swap6\n      pop\n      swap1\n      swap4\n      pop\n        /* \"AbiEncodeAndeDecode.sol\":379:569  function decode(bytes memory data) public pure returns(string memory _str1, uint _int, string memory _str2) {... */\n      swap2\n      pop\n      pop\n      jump\t// out\n        /* \"#utility.yul\":14:141   */\n    tag_22:\n        /* \"#utility.yul\":75:85   */\n      0x4e487b71\n        /* \"#utility.yul\":70:73   */\n      0xe0\n        /* \"#utility.yul\":66:86   */\n      shl\n        /* \"#utility.yul\":63:64   */\n      0x00\n        /* \"#utility.yul\":56:87   */\n      mstore\n        /* \"#utility.yul\":106:110   */\n      0x41\n        /* \"#utility.yul\":103:104   */\n      0x04\n        /* \"#utility.yul\":96:111   */\n      mstore\n        /* \"#utility.yul\":130:134   */\n      0x24\n        /* \"#utility.yul\":127:128   */\n      0x00\n        /* \"#utility.yul\":120:135   */\n      revert\n        /* \"#utility.yul\":146:421   */\n    tag_23:\n        /* \"#utility.yul\":217:219   */\n      0x40\n        /* \"#utility.yul\":211:220   */\n      mload\n        /* \"#utility.yul\":282:284   */\n      0x1f\n        /* \"#utility.yul\":263:276   */\n      dup3\n      add\n      not(0x1f)\n        /* \"#utility.yul\":259:286   */\n      and\n        /* \"#utility.yul\":247:287   */\n      dup2\n      add\n        /* \"#utility.yul\":317:335   */\n      0xffffffffffffffff\n        /* \"#utility.yul\":302:336   */\n      dup2\n      gt\n        /* \"#utility.yul\":338:360   */\n      dup3\n      dup3\n      lt\n        /* \"#utility.yul\":299:361   */\n      or\n        /* \"#utility.yul\":296:384   */\n      iszero\n      tag_34\n      jumpi\n        /* \"#utility.yul\":364:382   */\n      tag_34\n      tag_22\n      jump\t// in\n    tag_34:\n        /* \"#utility.yul\":400:402   */\n      0x40\n        /* \"#utility.yul\":393:415   */\n      mstore\n        /* \"#utility.yul\":146:421   */\n      swap2\n      swap1\n      pop\n      jump\t// out\n        /* \"#utility.yul\":426:613   */\n    tag_24:\n        /* \"#utility.yul\":475:479   */\n      0x00\n        /* \"#utility.yul\":508:526   */\n      0xffffffffffffffff\n        /* \"#utility.yul\":500:506   */\n      dup3\n        /* \"#utility.yul\":497:527   */\n      gt\n        /* \"#utility.yul\":494:550   */\n      iszero\n      tag_37\n      jumpi\n        /* \"#utility.yul\":530:548   */\n      tag_37\n      tag_22\n      jump\t// in\n    tag_37:\n      pop\n        /* \"#utility.yul\":596:598   */\n      0x1f\n        /* \"#utility.yul\":575:590   */\n      add\n      not(0x1f)\n        /* \"#utility.yul\":571:600   */\n      and\n        /* \"#utility.yul\":602:606   */\n      0x20\n        /* \"#utility.yul\":567:607   */\n      add\n      swap1\n        /* \"#utility.yul\":426:613   */\n      jump\t// out\n        /* \"#utility.yul\":618:956   */\n    tag_25:\n        /* \"#utility.yul\":683:688   */\n      0x00\n        /* \"#utility.yul\":712:765   */\n      tag_39\n        /* \"#utility.yul\":728:764   */\n      tag_40\n        /* \"#utility.yul\":757:763   */\n      dup5\n        /* \"#utility.yul\":728:764   */\n      tag_24\n      jump\t// in\n    tag_40:\n        /* \"#utility.yul\":712:765   */\n      tag_23\n      jump\t// in\n    tag_39:\n        /* \"#utility.yul\":703:765   */\n      swap1\n      pop\n        /* \"#utility.yul\":788:794   */\n      dup3\n        /* \"#utility.yul\":781:786   */\n      dup2\n        /* \"#utility.yul\":774:795   */\n      mstore\n        /* \"#utility.yul\":828:831   */\n      dup4\n        /* \"#utility.yul\":819:825   */\n      dup4\n        /* \"#utility.yul\":814:817   */\n      dup4\n        /* \"#utility.yul\":810:826   */\n      add\n        /* \"#utility.yul\":807:832   */\n      gt\n        /* \"#utility.yul\":804:849   */\n      iszero\n      tag_41\n      jumpi\n        /* \"#utility.yul\":845:846   */\n      0x00\n        /* \"#utility.yul\":842:843   */\n      dup1\n        /* \"#utility.yul\":835:847   */\n      revert\n        /* \"#utility.yul\":804:849   */\n    tag_41:\n        /* \"#utility.yul\":894:900   */\n      dup3\n        /* \"#utility.yul\":889:892   */\n      dup3\n        /* \"#utility.yul\":882:886   */\n      0x20\n        /* \"#utility.yul\":875:880   */\n      dup4\n        /* \"#utility.yul\":871:887   */\n      add\n        /* \"#utility.yul\":858:901   */\n      calldatacopy\n        /* \"#utility.yul\":948:949   */\n      0x00\n        /* \"#utility.yul\":941:945   */\n      0x20\n        /* \"#utility.yul\":932:938   */\n      dup5\n        /* \"#utility.yul\":925:930   */\n      dup4\n        /* \"#utility.yul\":921:939   */\n      add\n        /* \"#utility.yul\":917:946   */\n      add\n        /* \"#utility.yul\":910:950   */\n      mstore\n        /* \"#utility.yul\":618:956   */\n      swap4\n      swap3\n      pop\n      pop\n      pop\n      jump\t// out\n        /* \"#utility.yul\":961:1183   */\n    tag_26:\n        /* \"#utility.yul\":1004:1009   */\n      0x00\n        /* \"#utility.yul\":1057:1060   */\n      dup3\n        /* \"#utility.yul\":1050:1054   */\n      0x1f\n        /* \"#utility.yul\":1042:1048   */\n      dup4\n        /* \"#utility.yul\":1038:1055   */\n      add\n        /* \"#utility.yul\":1034:1061   */\n      slt\n        /* \"#utility.yul\":1024:1079   */\n      tag_43\n      jumpi\n        /* \"#utility.yul\":1075:1076   */\n      0x00\n        /* \"#utility.yul\":1072:1073   */\n      dup1\n        /* \"#utility.yul\":1065:1077   */\n      revert\n        /* \"#utility.yul\":1024:1079   */\n    tag_43:\n        /* \"#utility.yul\":1097:1177   */\n      tag_44\n        /* \"#utility.yul\":1173:1176   */\n      dup4\n        /* \"#utility.yul\":1164:1170   */\n      dup4\n        /* \"#utility.yul\":1151:1171   */\n      calldataload\n        /* \"#utility.yul\":1144:1148   */\n      0x20\n        /* \"#utility.yul\":1136:1142   */\n      dup6\n        /* \"#utility.yul\":1132:1149   */\n      add\n        /* \"#utility.yul\":1097:1177   */\n      tag_25\n      jump\t// in\n    tag_44:\n        /* \"#utility.yul\":1088:1177   */\n      swap4\n        /* \"#utility.yul\":961:1183   */\n      swap3\n      pop\n      pop\n      pop\n      jump\t// out\n        /* \"#utility.yul\":1188:1799   */\n    tag_7:\n        /* \"#utility.yul\":1285:1291   */\n      0x00\n        /* \"#utility.yul\":1293:1299   */\n      dup1\n        /* \"#utility.yul\":1301:1307   */\n      0x00\n        /* \"#utility.yul\":1354:1356   */\n      0x60\n        /* \"#utility.yul\":1342:1351   */\n      dup5\n        /* \"#utility.yul\":1333:1340   */\n      dup7\n        /* \"#utility.yul\":1329:1352   */\n      sub\n        /* \"#utility.yul\":1325:1357   */\n      slt\n        /* \"#utility.yul\":1322:1374   */\n      iszero\n      tag_46\n      jumpi\n        /* \"#utility.yul\":1370:1371   */\n      0x00\n        /* \"#utility.yul\":1367:1368   */\n      dup1\n        /* \"#utility.yul\":1360:1372   */\n      revert\n        /* \"#utility.yul\":1322:1374   */\n    tag_46:\n        /* \"#utility.yul\":1410:1419   */\n      dup4\n        /* \"#utility.yul\":1397:1420   */\n      calldataload\n        /* \"#utility.yul\":1439:1457   */\n      0xffffffffffffffff\n        /* \"#utility.yul\":1480:1482   */\n      dup1\n        /* \"#utility.yul\":1472:1478   */\n      dup3\n        /* \"#utility.yul\":1469:1483   */\n      gt\n        /* \"#utility.yul\":1466:1500   */\n      iszero\n      tag_47\n      jumpi\n        /* \"#utility.yul\":1496:1497   */\n      0x00\n        /* \"#utility.yul\":1493:1494   */\n      dup1\n        /* \"#utility.yul\":1486:1498   */\n      revert\n        /* \"#utility.yul\":1466:1500   */\n    tag_47:\n        /* \"#utility.yul\":1519:1569   */\n      tag_48\n        /* \"#utility.yul\":1561:1568   */\n      dup8\n        /* \"#utility.yul\":1552:1558   */\n      dup4\n        /* \"#utility.yul\":1541:1550   */\n      dup9\n        /* \"#utility.yul\":1537:1559   */\n      add\n        /* \"#utility.yul\":1519:1569   */\n      tag_26\n      jump\t// in\n    tag_48:\n        /* \"#utility.yul\":1509:1569   */\n      swap5\n      pop\n        /* \"#utility.yul\":1616:1618   */\n      0x20\n        /* \"#utility.yul\":1605:1614   */\n      dup7\n        /* \"#utility.yul\":1601:1619   */\n      add\n        /* \"#utility.yul\":1588:1620   */\n      calldataload\n        /* \"#utility.yul\":1578:1620   */\n      swap4\n      pop\n        /* \"#utility.yul\":1673:1675   */\n      0x40\n        /* \"#utility.yul\":1662:1671   */\n      dup7\n        /* \"#utility.yul\":1658:1676   */\n      add\n        /* \"#utility.yul\":1645:1677   */\n      calldataload\n        /* \"#utility.yul\":1629:1677   */\n      swap2\n      pop\n        /* \"#utility.yul\":1702:1704   */\n      dup1\n        /* \"#utility.yul\":1692:1700   */\n      dup3\n        /* \"#utility.yul\":1689:1705   */\n      gt\n        /* \"#utility.yul\":1686:1722   */\n      iszero\n      tag_49\n      jumpi\n        /* \"#utility.yul\":1718:1719   */\n      0x00\n        /* \"#utility.yul\":1715:1716   */\n      dup1\n        /* \"#utility.yul\":1708:1720   */\n      revert\n        /* \"#utility.yul\":1686:1722   */\n    tag_49:\n      pop\n        /* \"#utility.yul\":1741:1793   */\n      tag_50\n        /* \"#utility.yul\":1785:1792   */\n      dup7\n        /* \"#utility.yul\":1774:1782   */\n      dup3\n        /* \"#utility.yul\":1763:1772   */\n      dup8\n        /* \"#utility.yul\":1759:1783   */\n      add\n        /* \"#utility.yul\":1741:1793   */\n      tag_26\n      jump\t// in\n    tag_50:\n        /* \"#utility.yul\":1731:1793   */\n      swap2\n      pop\n      pop\n        /* \"#utility.yul\":1188:1799   */\n      swap3\n      pop\n      swap3\n      pop\n      swap3\n      jump\t// out\n        /* \"#utility.yul\":1804:2054   */\n    tag_27:\n        /* \"#utility.yul\":1889:1890   */\n      0x00\n        /* \"#utility.yul\":1899:2012   */\n    tag_52:\n        /* \"#utility.yul\":1913:1919   */\n      dup4\n        /* \"#utility.yul\":1910:1911   */\n      dup2\n        /* \"#utility.yul\":1907:1920   */\n      lt\n        /* \"#utility.yul\":1899:2012   */\n      iszero\n      tag_54\n      jumpi\n        /* \"#utility.yul\":1989:2000   */\n      dup2\n      dup2\n      add\n        /* \"#utility.yul\":1983:2001   */\n      mload\n        /* \"#utility.yul\":1970:1981   */\n      dup4\n      dup3\n      add\n        /* \"#utility.yul\":1963:2002   */\n      mstore\n        /* \"#utility.yul\":1935:1937   */\n      0x20\n        /* \"#utility.yul\":1928:1938   */\n      add\n        /* \"#utility.yul\":1899:2012   */\n      jump(tag_52)\n    tag_54:\n      pop\n      pop\n        /* \"#utility.yul\":2046:2047   */\n      0x00\n        /* \"#utility.yul\":2028:2044   */\n      swap2\n      add\n        /* \"#utility.yul\":2021:2048   */\n      mstore\n        /* \"#utility.yul\":1804:2054   */\n      jump\t// out\n        /* \"#utility.yul\":2059:2329   */\n    tag_28:\n        /* \"#utility.yul\":2100:2103   */\n      0x00\n        /* \"#utility.yul\":2138:2143   */\n      dup2\n        /* \"#utility.yul\":2132:2144   */\n      mload\n        /* \"#utility.yul\":2165:2171   */\n      dup1\n        /* \"#utility.yul\":2160:2163   */\n      dup5\n        /* \"#utility.yul\":2153:2172   */\n      mstore\n        /* \"#utility.yul\":2181:2257   */\n      tag_56\n        /* \"#utility.yul\":2250:2256   */\n      dup2\n        /* \"#utility.yul\":2243:2247   */\n      0x20\n        /* \"#utility.yul\":2238:2241   */\n      dup7\n        /* \"#utility.yul\":2234:2248   */\n      add\n        /* \"#utility.yul\":2227:2231   */\n      0x20\n        /* \"#utility.yul\":2220:2225   */\n      dup7\n        /* \"#utility.yul\":2216:2232   */\n      add\n        /* \"#utility.yul\":2181:2257   */\n      tag_27\n      jump\t// in\n    tag_56:\n        /* \"#utility.yul\":2311:2313   */\n      0x1f\n        /* \"#utility.yul\":2290:2305   */\n      add\n      not(0x1f)\n        /* \"#utility.yul\":2286:2315   */\n      and\n        /* \"#utility.yul\":2277:2316   */\n      swap3\n      swap1\n      swap3\n      add\n        /* \"#utility.yul\":2318:2322   */\n      0x20\n        /* \"#utility.yul\":2273:2323   */\n      add\n      swap3\n        /* \"#utility.yul\":2059:2329   */\n      swap2\n      pop\n      pop\n      jump\t// out\n        /* \"#utility.yul\":2334:2551   */\n    tag_10:\n        /* \"#utility.yul\":2481:2483   */\n      0x20\n        /* \"#utility.yul\":2470:2479   */\n      dup2\n        /* \"#utility.yul\":2463:2484   */\n      mstore\n        /* \"#utility.yul\":2444:2448   */\n      0x00\n        /* \"#utility.yul\":2501:2545   */\n      tag_44\n        /* \"#utility.yul\":2541:2543   */\n      0x20\n        /* \"#utility.yul\":2530:2539   */\n      dup4\n        /* \"#utility.yul\":2526:2544   */\n      add\n        /* \"#utility.yul\":2518:2524   */\n      dup5\n        /* \"#utility.yul\":2501:2545   */\n      tag_28\n      jump\t// in\n        /* \"#utility.yul\":2556:3006   */\n    tag_13:\n        /* \"#utility.yul\":2624:2630   */\n      0x00\n        /* \"#utility.yul\":2677:2679   */\n      0x20\n        /* \"#utility.yul\":2665:2674   */\n      dup3\n        /* \"#utility.yul\":2656:2663   */\n      dup5\n        /* \"#utility.yul\":2652:2675   */\n      sub\n        /* \"#utility.yul\":2648:2680   */\n      slt\n        /* \"#utility.yul\":2645:2697   */\n      iszero\n      tag_60\n      jumpi\n        /* \"#utility.yul\":2693:2694   */\n      0x00\n        /* \"#utility.yul\":2690:2691   */\n      dup1\n        /* \"#utility.yul\":2683:2695   */\n      revert\n        /* \"#utility.yul\":2645:2697   */\n    tag_60:\n        /* \"#utility.yul\":2733:2742   */\n      dup2\n        /* \"#utility.yul\":2720:2743   */\n      calldataload\n        /* \"#utility.yul\":2766:2784   */\n      0xffffffffffffffff\n        /* \"#utility.yul\":2758:2764   */\n      dup2\n        /* \"#utility.yul\":2755:2785   */\n      gt\n        /* \"#utility.yul\":2752:2802   */\n      iszero\n      tag_61\n      jumpi\n        /* \"#utility.yul\":2798:2799   */\n      0x00\n        /* \"#utility.yul\":2795:2796   */\n      dup1\n        /* \"#utility.yul\":2788:2800   */\n      revert\n        /* \"#utility.yul\":2752:2802   */\n    tag_61:\n        /* \"#utility.yul\":2821:2843   */\n      dup3\n      add\n        /* \"#utility.yul\":2874:2878   */\n      0x1f\n        /* \"#utility.yul\":2866:2879   */\n      dup2\n      add\n        /* \"#utility.yul\":2862:2889   */\n      dup5\n      sgt\n        /* \"#utility.yul\":2852:2907   */\n      tag_62\n      jumpi\n        /* \"#utility.yul\":2903:2904   */\n      0x00\n        /* \"#utility.yul\":2900:2901   */\n      dup1\n        /* \"#utility.yul\":2893:2905   */\n      revert\n        /* \"#utility.yul\":2852:2907   */\n    tag_62:\n        /* \"#utility.yul\":2926:3000   */\n      tag_63\n        /* \"#utility.yul\":2992:2999   */\n      dup5\n        /* \"#utility.yul\":2987:2989   */\n      dup3\n        /* \"#utility.yul\":2974:2990   */\n      calldataload\n        /* \"#utility.yul\":2969:2971   */\n      0x20\n        /* \"#utility.yul\":2965:2967   */\n      dup5\n        /* \"#utility.yul\":2961:2972   */\n      add\n        /* \"#utility.yul\":2926:3000   */\n      tag_25\n      jump\t// in\n    tag_63:\n        /* \"#utility.yul\":2916:3000   */\n      swap5\n        /* \"#utility.yul\":2556:3006   */\n      swap4\n      pop\n      pop\n      pop\n      pop\n      jump\t// out\n        /* \"#utility.yul\":3011:3463   */\n    tag_16:\n        /* \"#utility.yul\":3236:3238   */\n      0x60\n        /* \"#utility.yul\":3225:3234   */\n      dup2\n        /* \"#utility.yul\":3218:3239   */\n      mstore\n        /* \"#utility.yul\":3199:3203   */\n      0x00\n        /* \"#utility.yul\":3262:3306   */\n      tag_65\n        /* \"#utility.yul\":3302:3304   */\n      0x60\n        /* \"#utility.yul\":3291:3300   */\n      dup4\n        /* \"#utility.yul\":3287:3305   */\n      add\n        /* \"#utility.yul\":3279:3285   */\n      dup7\n        /* \"#utility.yul\":3262:3306   */\n      tag_28\n      jump\t// in\n    tag_65:\n        /* \"#utility.yul\":3342:3348   */\n      dup5\n        /* \"#utility.yul\":3337:3339   */\n      0x20\n        /* \"#utility.yul\":3326:3335   */\n      dup5\n        /* \"#utility.yul\":3322:3340   */\n      add\n        /* \"#utility.yul\":3315:3349   */\n      mstore\n        /* \"#utility.yul\":3397:3406   */\n      dup3\n        /* \"#utility.yul\":3389:3395   */\n      dup2\n        /* \"#utility.yul\":3385:3407   */\n      sub\n        /* \"#utility.yul\":3380:3382   */\n      0x40\n        /* \"#utility.yul\":3369:3378   */\n      dup5\n        /* \"#utility.yul\":3365:3383   */\n      add\n        /* \"#utility.yul\":3358:3408   */\n      mstore\n        /* \"#utility.yul\":3425:3457   */\n      tag_66\n        /* \"#utility.yul\":3450:3456   */\n      dup2\n        /* \"#utility.yul\":3442:3448   */\n      dup6\n        /* \"#utility.yul\":3425:3457   */\n      tag_28\n      jump\t// in\n    tag_66:\n        /* \"#utility.yul\":3417:3457   */\n      swap7\n        /* \"#utility.yul\":3011:3463   */\n      swap6\n      pop\n      pop\n      pop\n      pop\n      pop\n      pop\n      jump\t// out\n        /* \"#utility.yul\":3468:3911   */\n    tag_29:\n        /* \"#utility.yul\":3522:3527   */\n      0x00\n        /* \"#utility.yul\":3575:3578   */\n      dup3\n        /* \"#utility.yul\":3568:3572   */\n      0x1f\n        /* \"#utility.yul\":3560:3566   */\n      dup4\n        /* \"#utility.yul\":3556:3573   */\n      add\n        /* \"#utility.yul\":3552:3579   */\n      slt\n        /* \"#utility.yul\":3542:3597   */\n      tag_68\n      jumpi\n        /* \"#utility.yul\":3593:3594   */\n      0x00\n        /* \"#utility.yul\":3590:3591   */\n      dup1\n        /* \"#utility.yul\":3583:3595   */\n      revert\n        /* \"#utility.yul\":3542:3597   */\n    tag_68:\n        /* \"#utility.yul\":3622:3628   */\n      dup2\n        /* \"#utility.yul\":3616:3629   */\n      mload\n        /* \"#utility.yul\":3653:3702   */\n      tag_69\n        /* \"#utility.yul\":3669:3701   */\n      tag_40\n        /* \"#utility.yul\":3698:3700   */\n      dup3\n        /* \"#utility.yul\":3669:3701   */\n      tag_24\n      jump\t// in\n        /* \"#utility.yul\":3653:3702   */\n    tag_69:\n        /* \"#utility.yul\":3727:3729   */\n      dup2\n        /* \"#utility.yul\":3718:3725   */\n      dup2\n        /* \"#utility.yul\":3711:3730   */\n      mstore\n        /* \"#utility.yul\":3773:3776   */\n      dup5\n        /* \"#utility.yul\":3766:3770   */\n      0x20\n        /* \"#utility.yul\":3761:3763   */\n      dup4\n        /* \"#utility.yul\":3753:3759   */\n      dup7\n        /* \"#utility.yul\":3749:3764   */\n      add\n        /* \"#utility.yul\":3745:3771   */\n      add\n        /* \"#utility.yul\":3742:3777   */\n      gt\n        /* \"#utility.yul\":3739:3794   */\n      iszero\n      tag_71\n      jumpi\n        /* \"#utility.yul\":3790:3791   */\n      0x00\n        /* \"#utility.yul\":3787:3788   */\n      dup1\n        /* \"#utility.yul\":3780:3792   */\n      revert\n        /* \"#utility.yul\":3739:3794   */\n    tag_71:\n        /* \"#utility.yul\":3803:3880   */\n      tag_63\n        /* \"#utility.yul\":3877:3879   */\n      dup3\n        /* \"#utility.yul\":3870:3874   */\n      0x20\n        /* \"#utility.yul\":3861:3868   */\n      dup4\n        /* \"#utility.yul\":3857:3875   */\n      add\n        /* \"#utility.yul\":3850:3854   */\n      0x20\n        /* \"#utility.yul\":3842:3848   */\n      dup8\n        /* \"#utility.yul\":3838:3855   */\n      add\n        /* \"#utility.yul\":3803:3880   */\n      tag_27\n      jump\t// in\n        /* \"#utility.yul\":3916:4539   */\n    tag_21:\n        /* \"#utility.yul\":4024:4030   */\n      0x00\n        /* \"#utility.yul\":4032:4038   */\n      dup1\n        /* \"#utility.yul\":4040:4046   */\n      0x00\n        /* \"#utility.yul\":4093:4095   */\n      0x60\n        /* \"#utility.yul\":4081:4090   */\n      dup5\n        /* \"#utility.yul\":4072:4079   */\n      dup7\n        /* \"#utility.yul\":4068:4091   */\n      sub\n        /* \"#utility.yul\":4064:4096   */\n      slt\n        /* \"#utility.yul\":4061:4113   */\n      iszero\n      tag_74\n      jumpi\n        /* \"#utility.yul\":4109:4110   */\n      0x00\n        /* \"#utility.yul\":4106:4107   */\n      dup1\n        /* \"#utility.yul\":4099:4111   */\n      revert\n        /* \"#utility.yul\":4061:4113   */\n    tag_74:\n        /* \"#utility.yul\":4142:4151   */\n      dup4\n        /* \"#utility.yul\":4136:4152   */\n      mload\n        /* \"#utility.yul\":4171:4189   */\n      0xffffffffffffffff\n        /* \"#utility.yul\":4212:4214   */\n      dup1\n        /* \"#utility.yul\":4204:4210   */\n      dup3\n        /* \"#utility.yul\":4201:4215   */\n      gt\n        /* \"#utility.yul\":4198:4232   */\n      iszero\n      tag_75\n      jumpi\n        /* \"#utility.yul\":4228:4229   */\n      0x00\n        /* \"#utility.yul\":4225:4226   */\n      dup1\n        /* \"#utility.yul\":4218:4230   */\n      revert\n        /* \"#utility.yul\":4198:4232   */\n    tag_75:\n        /* \"#utility.yul\":4251:4312   */\n      tag_76\n        /* \"#utility.yul\":4304:4311   */\n      dup8\n        /* \"#utility.yul\":4295:4301   */\n      dup4\n        /* \"#utility.yul\":4284:4293   */\n      dup9\n        /* \"#utility.yul\":4280:4302   */\n      add\n        /* \"#utility.yul\":4251:4312   */\n      tag_29\n      jump\t// in\n    tag_76:\n        /* \"#utility.yul\":4241:4312   */\n      swap5\n      pop\n        /* \"#utility.yul\":4352:4354   */\n      0x20\n        /* \"#utility.yul\":4341:4350   */\n      dup7\n        /* \"#utility.yul\":4337:4355   */\n      add\n        /* \"#utility.yul\":4331:4356   */\n      mload\n        /* \"#utility.yul\":4321:4356   */\n      swap4\n      pop\n        /* \"#utility.yul\":4402:4404   */\n      0x40\n        /* \"#utility.yul\":4391:4400   */\n      dup7\n        /* \"#utility.yul\":4387:4405   */\n      add\n        /* \"#utility.yul\":4381:4406   */\n      mload\n        /* \"#utility.yul\":4365:4406   */\n      swap2\n      pop\n        /* \"#utility.yul\":4431:4433   */\n      dup1\n        /* \"#utility.yul\":4421:4429   */\n      dup3\n        /* \"#utility.yul\":4418:4434   */\n      gt\n        /* \"#utility.yul\":4415:4451   */\n      iszero\n      tag_77\n      jumpi\n        /* \"#utility.yul\":4447:4448   */\n      0x00\n        /* \"#utility.yul\":4444:4445   */\n      dup1\n        /* \"#utility.yul\":4437:4449   */\n      revert\n        /* \"#utility.yul\":4415:4451   */\n    tag_77:\n      pop\n        /* \"#utility.yul\":4470:4533   */\n      tag_50\n        /* \"#utility.yul\":4525:4532   */\n      dup7\n        /* \"#utility.yul\":4514:4522   */\n      dup3\n        /* \"#utility.yul\":4503:4512   */\n      dup8\n        /* \"#utility.yul\":4499:4523   */\n      add\n        /* \"#utility.yul\":4470:4533   */\n      tag_29\n      jump\t// in\n\n    auxdata: 0xa26469706673582212203301ec0ba6437c45673a8e1b1b013c2765fe2029dfd13fa820a5cd84fbd6430664736f6c63430008120033\n}\n",
				"bytecode": {
					"linkReferences": {},
					"object": "608060405234801561001057600080fd5b506103e4806100206000396000f3fe608060405234801561001057600080fd5b50600436106100365760003560e01c80633b7fa2651461003b578063e5c5e9a314610064575b600080fd5b61004e6100493660046101b0565b610086565b60405161005b919061026d565b60405180910390f35b610077610072366004610280565b6100b5565b60405161005b939291906102d1565b606083838360405160200161009d939291906102d1565b60405160208183030381529060405290509392505050565b606060006060838060200190518101906100cf919061034b565b9196909550909350915050565b634e487b7160e01b600052604160045260246000fd5b604051601f8201601f1916810167ffffffffffffffff8111828210171561011b5761011b6100dc565b604052919050565b600067ffffffffffffffff82111561013d5761013d6100dc565b50601f01601f191660200190565b600061015e61015984610123565b6100f2565b905082815283838301111561017257600080fd5b828260208301376000602084830101529392505050565b600082601f83011261019a57600080fd5b6101a98383356020850161014b565b9392505050565b6000806000606084860312156101c557600080fd5b833567ffffffffffffffff808211156101dd57600080fd5b6101e987838801610189565b945060208601359350604086013591508082111561020657600080fd5b5061021386828701610189565b9150509250925092565b60005b83811015610238578181015183820152602001610220565b50506000910152565b6000815180845261025981602086016020860161021d565b601f01601f19169290920160200192915050565b6020815260006101a96020830184610241565b60006020828403121561029257600080fd5b813567ffffffffffffffff8111156102a957600080fd5b8201601f810184136102ba57600080fd5b6102c98482356020840161014b565b949350505050565b6060815260006102e46060830186610241565b84602084015282810360408401526102fc8185610241565b9695505050505050565b600082601f83011261031757600080fd5b815161032561015982610123565b81815284602083860101111561033a57600080fd5b6102c982602083016020870161021d565b60008060006060848603121561036057600080fd5b835167ffffffffffffffff8082111561037857600080fd5b61038487838801610306565b94506020860151935060408601519150808211156103a157600080fd5b506102138682870161030656fea26469706673582212203301ec0ba6437c45673a8e1b1b013c2765fe2029dfd13fa820a5cd84fbd6430664736f6c63430008120033",
					"opcodes": "PUSH1 0x80 PUSH1 0x40 MSTORE CALLVALUE DUP1 ISZERO PUSH2 0x10 JUMPI PUSH1 0x0 DUP1 REVERT JUMPDEST POP PUSH2 0x3E4 DUP1 PUSH2 0x20 PUSH1 0x0 CODECOPY PUSH1 0x0 RETURN INVALID PUSH1 0x80 PUSH1 0x40 MSTORE CALLVALUE DUP1 ISZERO PUSH2 0x10 JUMPI PUSH1 0x0 DUP1 REVERT JUMPDEST POP PUSH1 0x4 CALLDATASIZE LT PUSH2 0x36 JUMPI PUSH1 0x0 CALLDATALOAD PUSH1 0xE0 SHR DUP1 PUSH4 0x3B7FA265 EQ PUSH2 0x3B JUMPI DUP1 PUSH4 0xE5C5E9A3 EQ PUSH2 0x64 JUMPI JUMPDEST PUSH1 0x0 DUP1 REVERT JUMPDEST PUSH2 0x4E PUSH2 0x49 CALLDATASIZE PUSH1 0x4 PUSH2 0x1B0 JUMP JUMPDEST PUSH2 0x86 JUMP JUMPDEST PUSH1 0x40 MLOAD PUSH2 0x5B SWAP2 SWAP1 PUSH2 0x26D JUMP JUMPDEST PUSH1 0x40 MLOAD DUP1 SWAP2 SUB SWAP1 RETURN JUMPDEST PUSH2 0x77 PUSH2 0x72 CALLDATASIZE PUSH1 0x4 PUSH2 0x280 JUMP JUMPDEST PUSH2 0xB5 JUMP JUMPDEST PUSH1 0x40 MLOAD PUSH2 0x5B SWAP4 SWAP3 SWAP2 SWAP1 PUSH2 0x2D1 JUMP JUMPDEST PUSH1 0x60 DUP4 DUP4 DUP4 PUSH1 0x40 MLOAD PUSH1 0x20 ADD PUSH2 0x9D SWAP4 SWAP3 SWAP2 SWAP1 PUSH2 0x2D1 JUMP JUMPDEST PUSH1 0x40 MLOAD PUSH1 0x20 DUP2 DUP4 SUB SUB DUP2 MSTORE SWAP1 PUSH1 0x40 MSTORE SWAP1 POP SWAP4 SWAP3 POP POP POP JUMP JUMPDEST PUSH1 0x60 PUSH1 0x0 PUSH1 0x60 DUP4 DUP1 PUSH1 0x20 ADD SWAP1 MLOAD DUP2 ADD SWAP1 PUSH2 0xCF SWAP2 SWAP1 PUSH2 0x34B JUMP JUMPDEST SWAP2 SWAP7 SWAP1 SWAP6 POP SWAP1 SWAP4 POP SWAP2 POP POP JUMP JUMPDEST PUSH4 0x4E487B71 PUSH1 0xE0 SHL PUSH1 0x0 MSTORE PUSH1 0x41 PUSH1 0x4 MSTORE PUSH1 0x24 PUSH1 0x0 REVERT JUMPDEST PUSH1 0x40 MLOAD PUSH1 0x1F DUP3 ADD PUSH1 0x1F NOT AND DUP2 ADD PUSH8 0xFFFFFFFFFFFFFFFF DUP2 GT DUP3 DUP3 LT OR ISZERO PUSH2 0x11B JUMPI PUSH2 0x11B PUSH2 0xDC JUMP JUMPDEST PUSH1 0x40 MSTORE SWAP2 SWAP1 POP JUMP JUMPDEST PUSH1 0x0 PUSH8 0xFFFFFFFFFFFFFFFF DUP3 GT ISZERO PUSH2 0x13D JUMPI PUSH2 0x13D PUSH2 0xDC JUMP JUMPDEST POP PUSH1 0x1F ADD PUSH1 0x1F NOT AND PUSH1 0x20 ADD SWAP1 JUMP JUMPDEST PUSH1 0x0 PUSH2 0x15E PUSH2 0x159 DUP5 PUSH2 0x123 JUMP JUMPDEST PUSH2 0xF2 JUMP JUMPDEST SWAP1 POP DUP3 DUP2 MSTORE DUP4 DUP4 DUP4 ADD GT ISZERO PUSH2 0x172 JUMPI PUSH1 0x0 DUP1 REVERT JUMPDEST DUP3 DUP3 PUSH1 0x20 DUP4 ADD CALLDATACOPY PUSH1 0x0 PUSH1 0x20 DUP5 DUP4 ADD ADD MSTORE SWAP4 SWAP3 POP POP POP JUMP JUMPDEST PUSH1 0x0 DUP3 PUSH1 0x1F DUP4 ADD SLT PUSH2 0x19A JUMPI PUSH1 0x0 DUP1 REVERT JUMPDEST PUSH2 0x1A9 DUP4 DUP4 CALLDATALOAD PUSH1 0x20 DUP6 ADD PUSH2 0x14B JUMP JUMPDEST SWAP4 SWAP3 POP POP POP JUMP JUMPDEST PUSH1 0x0 DUP1 PUSH1 0x0 PUSH1 0x60 DUP5 DUP7 SUB SLT ISZERO PUSH2 0x1C5 JUMPI PUSH1 0x0 DUP1 REVERT JUMPDEST DUP4 CALLDATALOAD PUSH8 0xFFFFFFFFFFFFFFFF DUP1 DUP3 GT ISZERO PUSH2 0x1DD JUMPI PUSH1 0x0 DUP1 REVERT JUMPDEST PUSH2 0x1E9 DUP8 DUP4 DUP9 ADD PUSH2 0x189 JUMP JUMPDEST SWAP5 POP PUSH1 0x20 DUP7 ADD CALLDATALOAD SWAP4 POP PUSH1 0x40 DUP7 ADD CALLDATALOAD SWAP2 POP DUP1 DUP3 GT ISZERO PUSH2 0x206 JUMPI PUSH1 0x0 DUP1 REVERT JUMPDEST POP PUSH2 0x213 DUP7 DUP3 DUP8 ADD PUSH2 0x189 JUMP JUMPDEST SWAP2 POP POP SWAP3 POP SWAP3 POP SWAP3 JUMP JUMPDEST PUSH1 0x0 JUMPDEST DUP4 DUP2 LT ISZERO PUSH2 0x238 JUMPI DUP2 DUP2 ADD MLOAD DUP4 DUP3 ADD MSTORE PUSH1 0x20 ADD PUSH2 0x220 JUMP JUMPDEST POP POP PUSH1 0x0 SWAP2 ADD MSTORE JUMP JUMPDEST PUSH1 0x0 DUP2 MLOAD DUP1 DUP5 MSTORE PUSH2 0x259 DUP2 PUSH1 0x20 DUP7 ADD PUSH1 0x20 DUP7 ADD PUSH2 0x21D JUMP JUMPDEST PUSH1 0x1F ADD PUSH1 0x1F NOT AND SWAP3 SWAP1 SWAP3 ADD PUSH1 0x20 ADD SWAP3 SWAP2 POP POP JUMP JUMPDEST PUSH1 0x20 DUP2 MSTORE PUSH1 0x0 PUSH2 0x1A9 PUSH1 0x20 DUP4 ADD DUP5 PUSH2 0x241 JUMP JUMPDEST PUSH1 0x0 PUSH1 0x20 DUP3 DUP5 SUB SLT ISZERO PUSH2 0x292 JUMPI PUSH1 0x0 DUP1 REVERT JUMPDEST DUP2 CALLDATALOAD PUSH8 0xFFFFFFFFFFFFFFFF DUP2 GT ISZERO PUSH2 0x2A9 JUMPI PUSH1 0x0 DUP1 REVERT JUMPDEST DUP3 ADD PUSH1 0x1F DUP2 ADD DUP5 SGT PUSH2 0x2BA JUMPI PUSH1 0x0 DUP1 REVERT JUMPDEST PUSH2 0x2C9 DUP5 DUP3 CALLDATALOAD PUSH1 0x20 DUP5 ADD PUSH2 0x14B JUMP JUMPDEST SWAP5 SWAP4 POP POP POP POP JUMP JUMPDEST PUSH1 0x60 DUP2 MSTORE PUSH1 0x0 PUSH2 0x2E4 PUSH1 0x60 DUP4 ADD DUP7 PUSH2 0x241 JUMP JUMPDEST DUP5 PUSH1 0x20 DUP5 ADD MSTORE DUP3 DUP2 SUB PUSH1 0x40 DUP5 ADD MSTORE PUSH2 0x2FC DUP2 DUP6 PUSH2 0x241 JUMP JUMPDEST SWAP7 SWAP6 POP POP POP POP POP POP JUMP JUMPDEST PUSH1 0x0 DUP3 PUSH1 0x1F DUP4 ADD SLT PUSH2 0x317 JUMPI PUSH1 0x0 DUP1 REVERT JUMPDEST DUP2 MLOAD PUSH2 0x325 PUSH2 0x159 DUP3 PUSH2 0x123 JUMP JUMPDEST DUP2 DUP2 MSTORE DUP5 PUSH1 0x20 DUP4 DUP7 ADD ADD GT ISZERO PUSH2 0x33A JUMPI PUSH1 0x0 DUP1 REVERT JUMPDEST PUSH2 0x2C9 DUP3 PUSH1 0x20 DUP4 ADD PUSH1 0x20 DUP8 ADD PUSH2 0x21D JUMP JUMPDEST PUSH1 0x0 DUP1 PUSH1 0x0 PUSH1 0x60 DUP5 DUP7 SUB SLT ISZERO PUSH2 0x360 JUMPI PUSH1 0x0 DUP1 REVERT JUMPDEST DUP4 MLOAD PUSH8 0xFFFFFFFFFFFFFFFF DUP1 DUP3 GT ISZERO PUSH2 0x378 JUMPI PUSH1 0x0 DUP1 REVERT JUMPDEST PUSH2 0x384 DUP8 DUP4 DUP9 ADD PUSH2 0x306 JUMP JUMPDEST SWAP5 POP PUSH1 0x20 DUP7 ADD MLOAD SWAP4 POP PUSH1 0x40 DUP7 ADD MLOAD SWAP2 POP DUP1 DUP3 GT ISZERO PUSH2 0x3A1 JUMPI PUSH1 0x0 DUP1 REVERT JUMPDEST POP PUSH2 0x213 DUP7 DUP3 DUP8 ADD PUSH2 0x306 JUMP INVALID LOG2 PUSH5 0x6970667358 0x22 SLT KECCAK256 CALLER ADD 0xEC SIGNEXTEND 0xA6 NUMBER PUSH29 0x45673A8E1B1B013C2765FE2029DFD13FA820A5CD84FBD6430664736F6C PUSH4 0x43000812 STOP CALLER "
				},
				"gasEstimates": {
					"creation": {
						"codeDepositCost": "199200",
						"executionCost": "245",
						"totalCost": "199445"
					},
					"external": {
						"decode(bytes)": "infinite",
						"encode(string,uint256,string)": "infinite"
					}
				},
				"methodIdentifiers": {
					"decode(bytes)": "e5c5e9a3",
					"encode(string,uint256,string)": "3b7fa265"
				}
			},
			"storageLayout": {
				"storage": [],
				"types": null
			},
			"userdoc": {
				"kind": "user",
				"methods": {},
				"version": 1
			}
		}
	}
}