{
	"3_structure.sol": {
		"Structure": {
			"abi": [
				{
					"inputs": [
						{
							"internalType": "uint256",
							"name": "_roll",
							"type": "uint256"
						},
						{
							"internalType": "string",
							"name": "_name",
							"type": "string"
						},
						{
							"internalType": "string",
							"name": "_class",
							"type": "string"
						}
					],
					"stateMutability": "nonpayable",
					"type": "constructor"
				},
				{
					"inputs": [
						{
							"internalType": "uint256",
							"name": "_roll",
							"type": "uint256"
						},
						{
							"internalType": "string",
							"name": "_name",
							"type": "string"
						},
						{
							"internalType": "string",
							"name": "_class",
							"type": "string"
						}
					],
					"name": "changeStructureValue",
					"outputs": [],
					"stateMutability": "nonpayable",
					"type": "function"
				},
				{
					"inputs": [],
					"name": "student",
					"outputs": [
						{
							"internalType": "uint256",
							"name": "roll",
							"type": "uint256"
						},
						{
							"internalType": "string",
							"name": "name",
							"type": "string"
						},
						{
							"internalType": "string",
							"name": "class",
							"type": "string"
						}
					],
					"stateMutability": "view",
					"type": "function"
				}
			],
			"devdoc": {
				"kind": "dev",
				"methods": {},
				"version": 1
			},
			"evm": {
				"assembly": "    /* \"3_structure.sol\":291:812  contract Structure{... */\n  mstore(0x40, 0x80)\n    /* \"3_structure.sol\":439:606  constructor(uint _roll, string memory _name, string memory _class ) {... */\n  callvalue\n  dup1\n  iszero\n  tag_1\n  jumpi\n  0x00\n  dup1\n  revert\ntag_1:\n  pop\n  mload(0x40)\n  sub(codesize, bytecodeSize)\n  dup1\n  bytecodeSize\n  dup4\n  codecopy\n  dup2\n  dup2\n  add\n  0x40\n  mstore\n  dup2\n  add\n  swap1\n  tag_2\n  swap2\n  swap1\n  tag_3\n  jump\t// in\ntag_2:\n    /* \"3_structure.sol\":533:538  _roll */\n  dup3\n    /* \"3_structure.sol\":518:525  student */\n  0x00\n    /* \"3_structure.sol\":518:530  student.roll */\n  dup1\n  add\n    /* \"3_structure.sol\":518:538  student.roll = _roll */\n  dup2\n  swap1\n  sstore\n  pop\n    /* \"3_structure.sol\":562:567  _name */\n  dup2\n    /* \"3_structure.sol\":549:556  student */\n  0x00\n    /* \"3_structure.sol\":549:561  student.name */\n  0x01\n  add\n    /* \"3_structure.sol\":549:567  student.name=_name */\n  swap1\n  dup2\n  tag_6\n  swap2\n  swap1\n  tag_7\n  jump\t// in\ntag_6:\n  pop\n    /* \"3_structure.sol\":592:598  _class */\n  dup1\n    /* \"3_structure.sol\":578:585  student */\n  0x00\n    /* \"3_structure.sol\":578:591  student.class */\n  0x02\n  add\n    /* \"3_structure.sol\":578:598  student.class=_class */\n  swap1\n  dup2\n  tag_8\n  swap2\n  swap1\n  tag_7\n  jump\t// in\ntag_8:\n  pop\n    /* \"3_structure.sol\":439:606  constructor(uint _roll, string memory _name, string memory _class ) {... */\n  pop\n  pop\n  pop\n    /* \"3_structure.sol\":291:812  contract Structure{... */\n  jump(tag_9)\n    /* \"#utility.yul\":7:82   */\ntag_10:\n    /* \"#utility.yul\":40:46   */\n  0x00\n    /* \"#utility.yul\":73:75   */\n  0x40\n    /* \"#utility.yul\":67:76   */\n  mload\n    /* \"#utility.yul\":57:76   */\n  swap1\n  pop\n    /* \"#utility.yul\":7:82   */\n  swap1\n  jump\t// out\n    /* \"#utility.yul\":88:205   */\ntag_11:\n    /* \"#utility.yul\":197:198   */\n  0x00\n    /* \"#utility.yul\":194:195   */\n  dup1\n    /* \"#utility.yul\":187:199   */\n  revert\n    /* \"#utility.yul\":211:328   */\ntag_12:\n    /* \"#utility.yul\":320:321   */\n  0x00\n    /* \"#utility.yul\":317:318   */\n  dup1\n    /* \"#utility.yul\":310:322   */\n  revert\n    /* \"#utility.yul\":334:411   */\ntag_13:\n    /* \"#utility.yul\":371:378   */\n  0x00\n    /* \"#utility.yul\":400:405   */\n  dup2\n    /* \"#utility.yul\":389:405   */\n  swap1\n  pop\n    /* \"#utility.yul\":334:411   */\n  swap2\n  swap1\n  pop\n  jump\t// out\n    /* \"#utility.yul\":417:539   */\ntag_14:\n    /* \"#utility.yul\":490:514   */\n  tag_50\n    /* \"#utility.yul\":508:513   */\n  dup2\n    /* \"#utility.yul\":490:514   */\n  tag_13\n  jump\t// in\ntag_50:\n    /* \"#utility.yul\":483:488   */\n  dup2\n    /* \"#utility.yul\":480:515   */\n  eq\n    /* \"#utility.yul\":470:533   */\n  tag_51\n  jumpi\n    /* \"#utility.yul\":529:530   */\n  0x00\n    /* \"#utility.yul\":526:527   */\n  dup1\n    /* \"#utility.yul\":519:531   */\n  revert\n    /* \"#utility.yul\":470:533   */\ntag_51:\n    /* \"#utility.yul\":417:539   */\n  pop\n  jump\t// out\n    /* \"#utility.yul\":545:688   */\ntag_15:\n    /* \"#utility.yul\":602:607   */\n  0x00\n    /* \"#utility.yul\":633:639   */\n  dup2\n    /* \"#utility.yul\":627:640   */\n  mload\n    /* \"#utility.yul\":618:640   */\n  swap1\n  pop\n    /* \"#utility.yul\":649:682   */\n  tag_53\n    /* \"#utility.yul\":676:681   */\n  dup2\n    /* \"#utility.yul\":649:682   */\n  tag_14\n  jump\t// in\ntag_53:\n    /* \"#utility.yul\":545:688   */\n  swap3\n  swap2\n  pop\n  pop\n  jump\t// out\n    /* \"#utility.yul\":694:811   */\ntag_16:\n    /* \"#utility.yul\":803:804   */\n  0x00\n    /* \"#utility.yul\":800:801   */\n  dup1\n    /* \"#utility.yul\":793:805   */\n  revert\n    /* \"#utility.yul\":817:934   */\ntag_17:\n    /* \"#utility.yul\":926:927   */\n  0x00\n    /* \"#utility.yul\":923:924   */\n  dup1\n    /* \"#utility.yul\":916:928   */\n  revert\n    /* \"#utility.yul\":940:1042   */\ntag_18:\n    /* \"#utility.yul\":981:987   */\n  0x00\n    /* \"#utility.yul\":1032:1034   */\n  0x1f\n    /* \"#utility.yul\":1028:1035   */\n  not\n    /* \"#utility.yul\":1023:1025   */\n  0x1f\n    /* \"#utility.yul\":1016:1021   */\n  dup4\n    /* \"#utility.yul\":1012:1026   */\n  add\n    /* \"#utility.yul\":1008:1036   */\n  and\n    /* \"#utility.yul\":998:1036   */\n  swap1\n  pop\n    /* \"#utility.yul\":940:1042   */\n  swap2\n  swap1\n  pop\n  jump\t// out\n    /* \"#utility.yul\":1048:1228   */\ntag_19:\n    /* \"#utility.yul\":1096:1173   */\n  0x4e487b7100000000000000000000000000000000000000000000000000000000\n    /* \"#utility.yul\":1093:1094   */\n  0x00\n    /* \"#utility.yul\":1086:1174   */\n  mstore\n    /* \"#utility.yul\":1193:1197   */\n  0x41\n    /* \"#utility.yul\":1190:1191   */\n  0x04\n    /* \"#utility.yul\":1183:1198   */\n  mstore\n    /* \"#utility.yul\":1217:1221   */\n  0x24\n    /* \"#utility.yul\":1214:1215   */\n  0x00\n    /* \"#utility.yul\":1207:1222   */\n  revert\n    /* \"#utility.yul\":1234:1515   */\ntag_20:\n    /* \"#utility.yul\":1317:1344   */\n  tag_59\n    /* \"#utility.yul\":1339:1343   */\n  dup3\n    /* \"#utility.yul\":1317:1344   */\n  tag_18\n  jump\t// in\ntag_59:\n    /* \"#utility.yul\":1309:1315   */\n  dup2\n    /* \"#utility.yul\":1305:1345   */\n  add\n    /* \"#utility.yul\":1447:1453   */\n  dup2\n    /* \"#utility.yul\":1435:1445   */\n  dup2\n    /* \"#utility.yul\":1432:1454   */\n  lt\n    /* \"#utility.yul\":1411:1429   */\n  0xffffffffffffffff\n    /* \"#utility.yul\":1399:1409   */\n  dup3\n    /* \"#utility.yul\":1396:1430   */\n  gt\n    /* \"#utility.yul\":1393:1455   */\n  or\n    /* \"#utility.yul\":1390:1478   */\n  iszero\n  tag_60\n  jumpi\n    /* \"#utility.yul\":1458:1476   */\n  tag_61\n  tag_19\n  jump\t// in\ntag_61:\n    /* \"#utility.yul\":1390:1478   */\ntag_60:\n    /* \"#utility.yul\":1498:1508   */\n  dup1\n    /* \"#utility.yul\":1494:1496   */\n  0x40\n    /* \"#utility.yul\":1487:1509   */\n  mstore\n    /* \"#utility.yul\":1277:1515   */\n  pop\n    /* \"#utility.yul\":1234:1515   */\n  pop\n  pop\n  jump\t// out\n    /* \"#utility.yul\":1521:1650   */\ntag_21:\n    /* \"#utility.yul\":1555:1561   */\n  0x00\n    /* \"#utility.yul\":1582:1602   */\n  tag_63\n  tag_10\n  jump\t// in\ntag_63:\n    /* \"#utility.yul\":1572:1602   */\n  swap1\n  pop\n    /* \"#utility.yul\":1611:1644   */\n  tag_64\n    /* \"#utility.yul\":1639:1643   */\n  dup3\n    /* \"#utility.yul\":1631:1637   */\n  dup3\n    /* \"#utility.yul\":1611:1644   */\n  tag_20\n  jump\t// in\ntag_64:\n    /* \"#utility.yul\":1521:1650   */\n  swap2\n  swap1\n  pop\n  jump\t// out\n    /* \"#utility.yul\":1656:1964   */\ntag_22:\n    /* \"#utility.yul\":1718:1722   */\n  0x00\n    /* \"#utility.yul\":1808:1826   */\n  0xffffffffffffffff\n    /* \"#utility.yul\":1800:1806   */\n  dup3\n    /* \"#utility.yul\":1797:1827   */\n  gt\n    /* \"#utility.yul\":1794:1850   */\n  iszero\n  tag_66\n  jumpi\n    /* \"#utility.yul\":1830:1848   */\n  tag_67\n  tag_19\n  jump\t// in\ntag_67:\n    /* \"#utility.yul\":1794:1850   */\ntag_66:\n    /* \"#utility.yul\":1868:1897   */\n  tag_68\n    /* \"#utility.yul\":1890:1896   */\n  dup3\n    /* \"#utility.yul\":1868:1897   */\n  tag_18\n  jump\t// in\ntag_68:\n    /* \"#utility.yul\":1860:1897   */\n  swap1\n  pop\n    /* \"#utility.yul\":1952:1956   */\n  0x20\n    /* \"#utility.yul\":1946:1950   */\n  dup2\n    /* \"#utility.yul\":1942:1957   */\n  add\n    /* \"#utility.yul\":1934:1957   */\n  swap1\n  pop\n    /* \"#utility.yul\":1656:1964   */\n  swap2\n  swap1\n  pop\n  jump\t// out\n    /* \"#utility.yul\":1970:2216   */\ntag_23:\n    /* \"#utility.yul\":2051:2052   */\n  0x00\n    /* \"#utility.yul\":2061:2174   */\ntag_70:\n    /* \"#utility.yul\":2075:2081   */\n  dup4\n    /* \"#utility.yul\":2072:2073   */\n  dup2\n    /* \"#utility.yul\":2069:2082   */\n  lt\n    /* \"#utility.yul\":2061:2174   */\n  iszero\n  tag_72\n  jumpi\n    /* \"#utility.yul\":2160:2161   */\n  dup1\n    /* \"#utility.yul\":2155:2158   */\n  dup3\n    /* \"#utility.yul\":2151:2162   */\n  add\n    /* \"#utility.yul\":2145:2163   */\n  mload\n    /* \"#utility.yul\":2141:2142   */\n  dup2\n    /* \"#utility.yul\":2136:2139   */\n  dup5\n    /* \"#utility.yul\":2132:2143   */\n  add\n    /* \"#utility.yul\":2125:2164   */\n  mstore\n    /* \"#utility.yul\":2097:2099   */\n  0x20\n    /* \"#utility.yul\":2094:2095   */\n  dup2\n    /* \"#utility.yul\":2090:2100   */\n  add\n    /* \"#utility.yul\":2085:2100   */\n  swap1\n  pop\n    /* \"#utility.yul\":2061:2174   */\n  jump(tag_70)\ntag_72:\n    /* \"#utility.yul\":2208:2209   */\n  0x00\n    /* \"#utility.yul\":2199:2205   */\n  dup5\n    /* \"#utility.yul\":2194:2197   */\n  dup5\n    /* \"#utility.yul\":2190:2206   */\n  add\n    /* \"#utility.yul\":2183:2210   */\n  mstore\n    /* \"#utility.yul\":2032:2216   */\n  pop\n    /* \"#utility.yul\":1970:2216   */\n  pop\n  pop\n  pop\n  jump\t// out\n    /* \"#utility.yul\":2222:2656   */\ntag_24:\n    /* \"#utility.yul\":2311:2316   */\n  0x00\n    /* \"#utility.yul\":2336:2402   */\n  tag_74\n    /* \"#utility.yul\":2352:2401   */\n  tag_75\n    /* \"#utility.yul\":2394:2400   */\n  dup5\n    /* \"#utility.yul\":2352:2401   */\n  tag_22\n  jump\t// in\ntag_75:\n    /* \"#utility.yul\":2336:2402   */\n  tag_21\n  jump\t// in\ntag_74:\n    /* \"#utility.yul\":2327:2402   */\n  swap1\n  pop\n    /* \"#utility.yul\":2425:2431   */\n  dup3\n    /* \"#utility.yul\":2418:2423   */\n  dup2\n    /* \"#utility.yul\":2411:2432   */\n  mstore\n    /* \"#utility.yul\":2463:2467   */\n  0x20\n    /* \"#utility.yul\":2456:2461   */\n  dup2\n    /* \"#utility.yul\":2452:2468   */\n  add\n    /* \"#utility.yul\":2501:2504   */\n  dup5\n    /* \"#utility.yul\":2492:2498   */\n  dup5\n    /* \"#utility.yul\":2487:2490   */\n  dup5\n    /* \"#utility.yul\":2483:2499   */\n  add\n    /* \"#utility.yul\":2480:2505   */\n  gt\n    /* \"#utility.yul\":2477:2589   */\n  iszero\n  tag_76\n  jumpi\n    /* \"#utility.yul\":2508:2587   */\n  tag_77\n  tag_17\n  jump\t// in\ntag_77:\n    /* \"#utility.yul\":2477:2589   */\ntag_76:\n    /* \"#utility.yul\":2598:2650   */\n  tag_78\n    /* \"#utility.yul\":2643:2649   */\n  dup5\n    /* \"#utility.yul\":2638:2641   */\n  dup3\n    /* \"#utility.yul\":2633:2636   */\n  dup6\n    /* \"#utility.yul\":2598:2650   */\n  tag_23\n  jump\t// in\ntag_78:\n    /* \"#utility.yul\":2317:2656   */\n  pop\n    /* \"#utility.yul\":2222:2656   */\n  swap4\n  swap3\n  pop\n  pop\n  pop\n  jump\t// out\n    /* \"#utility.yul\":2676:3031   */\ntag_25:\n    /* \"#utility.yul\":2743:2748   */\n  0x00\n    /* \"#utility.yul\":2792:2795   */\n  dup3\n    /* \"#utility.yul\":2785:2789   */\n  0x1f\n    /* \"#utility.yul\":2777:2783   */\n  dup4\n    /* \"#utility.yul\":2773:2790   */\n  add\n    /* \"#utility.yul\":2769:2796   */\n  slt\n    /* \"#utility.yul\":2759:2881   */\n  tag_80\n  jumpi\n    /* \"#utility.yul\":2800:2879   */\n  tag_81\n  tag_16\n  jump\t// in\ntag_81:\n    /* \"#utility.yul\":2759:2881   */\ntag_80:\n    /* \"#utility.yul\":2910:2916   */\n  dup2\n    /* \"#utility.yul\":2904:2917   */\n  mload\n    /* \"#utility.yul\":2935:3025   */\n  tag_82\n    /* \"#utility.yul\":3021:3024   */\n  dup5\n    /* \"#utility.yul\":3013:3019   */\n  dup3\n    /* \"#utility.yul\":3006:3010   */\n  0x20\n    /* \"#utility.yul\":2998:3004   */\n  dup7\n    /* \"#utility.yul\":2994:3011   */\n  add\n    /* \"#utility.yul\":2935:3025   */\n  tag_24\n  jump\t// in\ntag_82:\n    /* \"#utility.yul\":2926:3025   */\n  swap2\n  pop\n    /* \"#utility.yul\":2749:3031   */\n  pop\n    /* \"#utility.yul\":2676:3031   */\n  swap3\n  swap2\n  pop\n  pop\n  jump\t// out\n    /* \"#utility.yul\":3037:4046   */\ntag_3:\n    /* \"#utility.yul\":3145:3151   */\n  0x00\n    /* \"#utility.yul\":3153:3159   */\n  dup1\n    /* \"#utility.yul\":3161:3167   */\n  0x00\n    /* \"#utility.yul\":3210:3212   */\n  0x60\n    /* \"#utility.yul\":3198:3207   */\n  dup5\n    /* \"#utility.yul\":3189:3196   */\n  dup7\n    /* \"#utility.yul\":3185:3208   */\n  sub\n    /* \"#utility.yul\":3181:3213   */\n  slt\n    /* \"#utility.yul\":3178:3297   */\n  iszero\n  tag_84\n  jumpi\n    /* \"#utility.yul\":3216:3295   */\n  tag_85\n  tag_11\n  jump\t// in\ntag_85:\n    /* \"#utility.yul\":3178:3297   */\ntag_84:\n    /* \"#utility.yul\":3336:3337   */\n  0x00\n    /* \"#utility.yul\":3361:3425   */\n  tag_86\n    /* \"#utility.yul\":3417:3424   */\n  dup7\n    /* \"#utility.yul\":3408:3414   */\n  dup3\n    /* \"#utility.yul\":3397:3406   */\n  dup8\n    /* \"#utility.yul\":3393:3415   */\n  add\n    /* \"#utility.yul\":3361:3425   */\n  tag_15\n  jump\t// in\ntag_86:\n    /* \"#utility.yul\":3351:3425   */\n  swap4\n  pop\n    /* \"#utility.yul\":3307:3435   */\n  pop\n    /* \"#utility.yul\":3495:3497   */\n  0x20\n    /* \"#utility.yul\":3484:3493   */\n  dup5\n    /* \"#utility.yul\":3480:3498   */\n  add\n    /* \"#utility.yul\":3474:3499   */\n  mload\n    /* \"#utility.yul\":3526:3544   */\n  0xffffffffffffffff\n    /* \"#utility.yul\":3518:3524   */\n  dup2\n    /* \"#utility.yul\":3515:3545   */\n  gt\n    /* \"#utility.yul\":3512:3629   */\n  iszero\n  tag_87\n  jumpi\n    /* \"#utility.yul\":3548:3627   */\n  tag_88\n  tag_12\n  jump\t// in\ntag_88:\n    /* \"#utility.yul\":3512:3629   */\ntag_87:\n    /* \"#utility.yul\":3653:3727   */\n  tag_89\n    /* \"#utility.yul\":3719:3726   */\n  dup7\n    /* \"#utility.yul\":3710:3716   */\n  dup3\n    /* \"#utility.yul\":3699:3708   */\n  dup8\n    /* \"#utility.yul\":3695:3717   */\n  add\n    /* \"#utility.yul\":3653:3727   */\n  tag_25\n  jump\t// in\ntag_89:\n    /* \"#utility.yul\":3643:3727   */\n  swap3\n  pop\n    /* \"#utility.yul\":3445:3737   */\n  pop\n    /* \"#utility.yul\":3797:3799   */\n  0x40\n    /* \"#utility.yul\":3786:3795   */\n  dup5\n    /* \"#utility.yul\":3782:3800   */\n  add\n    /* \"#utility.yul\":3776:3801   */\n  mload\n    /* \"#utility.yul\":3828:3846   */\n  0xffffffffffffffff\n    /* \"#utility.yul\":3820:3826   */\n  dup2\n    /* \"#utility.yul\":3817:3847   */\n  gt\n    /* \"#utility.yul\":3814:3931   */\n  iszero\n  tag_90\n  jumpi\n    /* \"#utility.yul\":3850:3929   */\n  tag_91\n  tag_12\n  jump\t// in\ntag_91:\n    /* \"#utility.yul\":3814:3931   */\ntag_90:\n    /* \"#utility.yul\":3955:4029   */\n  tag_92\n    /* \"#utility.yul\":4021:4028   */\n  dup7\n    /* \"#utility.yul\":4012:4018   */\n  dup3\n    /* \"#utility.yul\":4001:4010   */\n  dup8\n    /* \"#utility.yul\":3997:4019   */\n  add\n    /* \"#utility.yul\":3955:4029   */\n  tag_25\n  jump\t// in\ntag_92:\n    /* \"#utility.yul\":3945:4029   */\n  swap2\n  pop\n    /* \"#utility.yul\":3747:4039   */\n  pop\n    /* \"#utility.yul\":3037:4046   */\n  swap3\n  pop\n  swap3\n  pop\n  swap3\n  jump\t// out\n    /* \"#utility.yul\":4052:4151   */\ntag_26:\n    /* \"#utility.yul\":4104:4110   */\n  0x00\n    /* \"#utility.yul\":4138:4143   */\n  dup2\n    /* \"#utility.yul\":4132:4144   */\n  mload\n    /* \"#utility.yul\":4122:4144   */\n  swap1\n  pop\n    /* \"#utility.yul\":4052:4151   */\n  swap2\n  swap1\n  pop\n  jump\t// out\n    /* \"#utility.yul\":4157:4337   */\ntag_27:\n    /* \"#utility.yul\":4205:4282   */\n  0x4e487b7100000000000000000000000000000000000000000000000000000000\n    /* \"#utility.yul\":4202:4203   */\n  0x00\n    /* \"#utility.yul\":4195:4283   */\n  mstore\n    /* \"#utility.yul\":4302:4306   */\n  0x22\n    /* \"#utility.yul\":4299:4300   */\n  0x04\n    /* \"#utility.yul\":4292:4307   */\n  mstore\n    /* \"#utility.yul\":4326:4330   */\n  0x24\n    /* \"#utility.yul\":4323:4324   */\n  0x00\n    /* \"#utility.yul\":4316:4331   */\n  revert\n    /* \"#utility.yul\":4343:4663   */\ntag_28:\n    /* \"#utility.yul\":4387:4393   */\n  0x00\n    /* \"#utility.yul\":4424:4425   */\n  0x02\n    /* \"#utility.yul\":4418:4422   */\n  dup3\n    /* \"#utility.yul\":4414:4426   */\n  div\n    /* \"#utility.yul\":4404:4426   */\n  swap1\n  pop\n    /* \"#utility.yul\":4471:4472   */\n  0x01\n    /* \"#utility.yul\":4465:4469   */\n  dup3\n    /* \"#utility.yul\":4461:4473   */\n  and\n    /* \"#utility.yul\":4492:4510   */\n  dup1\n    /* \"#utility.yul\":4482:4563   */\n  tag_96\n  jumpi\n    /* \"#utility.yul\":4548:4552   */\n  0x7f\n    /* \"#utility.yul\":4540:4546   */\n  dup3\n    /* \"#utility.yul\":4536:4553   */\n  and\n    /* \"#utility.yul\":4526:4553   */\n  swap2\n  pop\n    /* \"#utility.yul\":4482:4563   */\ntag_96:\n    /* \"#utility.yul\":4610:4612   */\n  0x20\n    /* \"#utility.yul\":4602:4608   */\n  dup3\n    /* \"#utility.yul\":4599:4613   */\n  lt\n    /* \"#utility.yul\":4579:4597   */\n  dup2\n    /* \"#utility.yul\":4576:4614   */\n  sub\n    /* \"#utility.yul\":4573:4657   */\n  tag_97\n  jumpi\n    /* \"#utility.yul\":4629:4647   */\n  tag_98\n  tag_27\n  jump\t// in\ntag_98:\n    /* \"#utility.yul\":4573:4657   */\ntag_97:\n    /* \"#utility.yul\":4394:4663   */\n  pop\n    /* \"#utility.yul\":4343:4663   */\n  swap2\n  swap1\n  pop\n  jump\t// out\n    /* \"#utility.yul\":4669:4810   */\ntag_29:\n    /* \"#utility.yul\":4718:4722   */\n  0x00\n    /* \"#utility.yul\":4741:4744   */\n  dup2\n    /* \"#utility.yul\":4733:4744   */\n  swap1\n  pop\n    /* \"#utility.yul\":4764:4767   */\n  dup2\n    /* \"#utility.yul\":4761:4762   */\n  0x00\n    /* \"#utility.yul\":4754:4768   */\n  mstore\n    /* \"#utility.yul\":4798:4802   */\n  0x20\n    /* \"#utility.yul\":4795:4796   */\n  0x00\n    /* \"#utility.yul\":4785:4803   */\n  keccak256\n    /* \"#utility.yul\":4777:4803   */\n  swap1\n  pop\n    /* \"#utility.yul\":4669:4810   */\n  swap2\n  swap1\n  pop\n  jump\t// out\n    /* \"#utility.yul\":4816:4909   */\ntag_30:\n    /* \"#utility.yul\":4853:4859   */\n  0x00\n    /* \"#utility.yul\":4900:4902   */\n  0x20\n    /* \"#utility.yul\":4895:4897   */\n  0x1f\n    /* \"#utility.yul\":4888:4893   */\n  dup4\n    /* \"#utility.yul\":4884:4898   */\n  add\n    /* \"#utility.yul\":4880:4903   */\n  div\n    /* \"#utility.yul\":4870:4903   */\n  swap1\n  pop\n    /* \"#utility.yul\":4816:4909   */\n  swap2\n  swap1\n  pop\n  jump\t// out\n    /* \"#utility.yul\":4915:5022   */\ntag_31:\n    /* \"#utility.yul\":4959:4967   */\n  0x00\n    /* \"#utility.yul\":5009:5014   */\n  dup3\n    /* \"#utility.yul\":5003:5007   */\n  dup3\n    /* \"#utility.yul\":4999:5015   */\n  shl\n    /* \"#utility.yul\":4978:5015   */\n  swap1\n  pop\n    /* \"#utility.yul\":4915:5022   */\n  swap3\n  swap2\n  pop\n  pop\n  jump\t// out\n    /* \"#utility.yul\":5028:5421   */\ntag_32:\n    /* \"#utility.yul\":5097:5103   */\n  0x00\n    /* \"#utility.yul\":5147:5148   */\n  0x08\n    /* \"#utility.yul\":5135:5145   */\n  dup4\n    /* \"#utility.yul\":5131:5149   */\n  mul\n    /* \"#utility.yul\":5170:5267   */\n  tag_103\n    /* \"#utility.yul\":5200:5266   */\n  0xffffffffffffffffffffffffffffffffffffffffffffffffffffffffffffffff\n    /* \"#utility.yul\":5189:5198   */\n  dup3\n    /* \"#utility.yul\":5170:5267   */\n  tag_31\n  jump\t// in\ntag_103:\n    /* \"#utility.yul\":5288:5327   */\n  tag_104\n    /* \"#utility.yul\":5318:5326   */\n  dup7\n    /* \"#utility.yul\":5307:5316   */\n  dup4\n    /* \"#utility.yul\":5288:5327   */\n  tag_31\n  jump\t// in\ntag_104:\n    /* \"#utility.yul\":5276:5327   */\n  swap6\n  pop\n    /* \"#utility.yul\":5360:5364   */\n  dup1\n    /* \"#utility.yul\":5356:5365   */\n  not\n    /* \"#utility.yul\":5349:5354   */\n  dup5\n    /* \"#utility.yul\":5345:5366   */\n  and\n    /* \"#utility.yul\":5336:5366   */\n  swap4\n  pop\n    /* \"#utility.yul\":5409:5413   */\n  dup1\n    /* \"#utility.yul\":5399:5407   */\n  dup7\n    /* \"#utility.yul\":5395:5414   */\n  and\n    /* \"#utility.yul\":5388:5393   */\n  dup5\n    /* \"#utility.yul\":5385:5415   */\n  or\n    /* \"#utility.yul\":5375:5415   */\n  swap3\n  pop\n    /* \"#utility.yul\":5104:5421   */\n  pop\n  pop\n    /* \"#utility.yul\":5028:5421   */\n  swap4\n  swap3\n  pop\n  pop\n  pop\n  jump\t// out\n    /* \"#utility.yul\":5427:5487   */\ntag_33:\n    /* \"#utility.yul\":5455:5458   */\n  0x00\n    /* \"#utility.yul\":5476:5481   */\n  dup2\n    /* \"#utility.yul\":5469:5481   */\n  swap1\n  pop\n    /* \"#utility.yul\":5427:5487   */\n  swap2\n  swap1\n  pop\n  jump\t// out\n    /* \"#utility.yul\":5493:5635   */\ntag_34:\n    /* \"#utility.yul\":5543:5552   */\n  0x00\n    /* \"#utility.yul\":5576:5629   */\n  tag_107\n    /* \"#utility.yul\":5594:5628   */\n  tag_108\n    /* \"#utility.yul\":5603:5627   */\n  tag_109\n    /* \"#utility.yul\":5621:5626   */\n  dup5\n    /* \"#utility.yul\":5603:5627   */\n  tag_13\n  jump\t// in\ntag_109:\n    /* \"#utility.yul\":5594:5628   */\n  tag_33\n  jump\t// in\ntag_108:\n    /* \"#utility.yul\":5576:5629   */\n  tag_13\n  jump\t// in\ntag_107:\n    /* \"#utility.yul\":5563:5629   */\n  swap1\n  pop\n    /* \"#utility.yul\":5493:5635   */\n  swap2\n  swap1\n  pop\n  jump\t// out\n    /* \"#utility.yul\":5641:5716   */\ntag_35:\n    /* \"#utility.yul\":5684:5687   */\n  0x00\n    /* \"#utility.yul\":5705:5710   */\n  dup2\n    /* \"#utility.yul\":5698:5710   */\n  swap1\n  pop\n    /* \"#utility.yul\":5641:5716   */\n  swap2\n  swap1\n  pop\n  jump\t// out\n    /* \"#utility.yul\":5722:5991   */\ntag_36:\n    /* \"#utility.yul\":5832:5871   */\n  tag_112\n    /* \"#utility.yul\":5863:5870   */\n  dup4\n    /* \"#utility.yul\":5832:5871   */\n  tag_34\n  jump\t// in\ntag_112:\n    /* \"#utility.yul\":5893:5984   */\n  tag_113\n    /* \"#utility.yul\":5942:5983   */\n  tag_114\n    /* \"#utility.yul\":5966:5982   */\n  dup3\n    /* \"#utility.yul\":5942:5983   */\n  tag_35\n  jump\t// in\ntag_114:\n    /* \"#utility.yul\":5934:5940   */\n  dup5\n    /* \"#utility.yul\":5927:5931   */\n  dup5\n    /* \"#utility.yul\":5921:5932   */\n  sload\n    /* \"#utility.yul\":5893:5984   */\n  tag_32\n  jump\t// in\ntag_113:\n    /* \"#utility.yul\":5887:5891   */\n  dup3\n    /* \"#utility.yul\":5880:5985   */\n  sstore\n    /* \"#utility.yul\":5798:5991   */\n  pop\n    /* \"#utility.yul\":5722:5991   */\n  pop\n  pop\n  pop\n  jump\t// out\n    /* \"#utility.yul\":5997:6070   */\ntag_37:\n    /* \"#utility.yul\":6042:6045   */\n  0x00\n    /* \"#utility.yul\":5997:6070   */\n  swap1\n  jump\t// out\n    /* \"#utility.yul\":6076:6265   */\ntag_38:\n    /* \"#utility.yul\":6153:6185   */\n  tag_117\n  tag_37\n  jump\t// in\ntag_117:\n    /* \"#utility.yul\":6194:6259   */\n  tag_118\n    /* \"#utility.yul\":6252:6258   */\n  dup2\n    /* \"#utility.yul\":6244:6250   */\n  dup5\n    /* \"#utility.yul\":6238:6242   */\n  dup5\n    /* \"#utility.yul\":6194:6259   */\n  tag_36\n  jump\t// in\ntag_118:\n    /* \"#utility.yul\":6129:6265   */\n  pop\n    /* \"#utility.yul\":6076:6265   */\n  pop\n  pop\n  jump\t// out\n    /* \"#utility.yul\":6271:6457   */\ntag_39:\n    /* \"#utility.yul\":6331:6451   */\ntag_120:\n    /* \"#utility.yul\":6348:6351   */\n  dup2\n    /* \"#utility.yul\":6341:6346   */\n  dup2\n    /* \"#utility.yul\":6338:6352   */\n  lt\n    /* \"#utility.yul\":6331:6451   */\n  iszero\n  tag_122\n  jumpi\n    /* \"#utility.yul\":6402:6441   */\n  tag_123\n    /* \"#utility.yul\":6439:6440   */\n  0x00\n    /* \"#utility.yul\":6432:6437   */\n  dup3\n    /* \"#utility.yul\":6402:6441   */\n  tag_38\n  jump\t// in\ntag_123:\n    /* \"#utility.yul\":6375:6376   */\n  0x01\n    /* \"#utility.yul\":6368:6373   */\n  dup2\n    /* \"#utility.yul\":6364:6377   */\n  add\n    /* \"#utility.yul\":6355:6377   */\n  swap1\n  pop\n    /* \"#utility.yul\":6331:6451   */\n  jump(tag_120)\ntag_122:\n    /* \"#utility.yul\":6271:6457   */\n  pop\n  pop\n  jump\t// out\n    /* \"#utility.yul\":6463:7006   */\ntag_40:\n    /* \"#utility.yul\":6564:6566   */\n  0x1f\n    /* \"#utility.yul\":6559:6562   */\n  dup3\n    /* \"#utility.yul\":6556:6567   */\n  gt\n    /* \"#utility.yul\":6553:6999   */\n  iszero\n  tag_125\n  jumpi\n    /* \"#utility.yul\":6598:6636   */\n  tag_126\n    /* \"#utility.yul\":6630:6635   */\n  dup2\n    /* \"#utility.yul\":6598:6636   */\n  tag_29\n  jump\t// in\ntag_126:\n    /* \"#utility.yul\":6682:6711   */\n  tag_127\n    /* \"#utility.yul\":6700:6710   */\n  dup5\n    /* \"#utility.yul\":6682:6711   */\n  tag_30\n  jump\t// in\ntag_127:\n    /* \"#utility.yul\":6672:6680   */\n  dup2\n    /* \"#utility.yul\":6668:6712   */\n  add\n    /* \"#utility.yul\":6865:6867   */\n  0x20\n    /* \"#utility.yul\":6853:6863   */\n  dup6\n    /* \"#utility.yul\":6850:6868   */\n  lt\n    /* \"#utility.yul\":6847:6896   */\n  iszero\n  tag_128\n  jumpi\n    /* \"#utility.yul\":6886:6894   */\n  dup2\n    /* \"#utility.yul\":6871:6894   */\n  swap1\n  pop\n    /* \"#utility.yul\":6847:6896   */\ntag_128:\n    /* \"#utility.yul\":6909:6989   */\n  tag_129\n    /* \"#utility.yul\":6965:6987   */\n  tag_130\n    /* \"#utility.yul\":6983:6986   */\n  dup6\n    /* \"#utility.yul\":6965:6987   */\n  tag_30\n  jump\t// in\ntag_130:\n    /* \"#utility.yul\":6955:6963   */\n  dup4\n    /* \"#utility.yul\":6951:6988   */\n  add\n    /* \"#utility.yul\":6938:6949   */\n  dup3\n    /* \"#utility.yul\":6909:6989   */\n  tag_39\n  jump\t// in\ntag_129:\n    /* \"#utility.yul\":6568:6999   */\n  pop\n  pop\n    /* \"#utility.yul\":6553:6999   */\ntag_125:\n    /* \"#utility.yul\":6463:7006   */\n  pop\n  pop\n  pop\n  jump\t// out\n    /* \"#utility.yul\":7012:7129   */\ntag_41:\n    /* \"#utility.yul\":7066:7074   */\n  0x00\n    /* \"#utility.yul\":7116:7121   */\n  dup3\n    /* \"#utility.yul\":7110:7114   */\n  dup3\n    /* \"#utility.yul\":7106:7122   */\n  shr\n    /* \"#utility.yul\":7085:7122   */\n  swap1\n  pop\n    /* \"#utility.yul\":7012:7129   */\n  swap3\n  swap2\n  pop\n  pop\n  jump\t// out\n    /* \"#utility.yul\":7135:7304   */\ntag_42:\n    /* \"#utility.yul\":7179:7185   */\n  0x00\n    /* \"#utility.yul\":7212:7263   */\n  tag_133\n    /* \"#utility.yul\":7260:7261   */\n  0x00\n    /* \"#utility.yul\":7256:7262   */\n  not\n    /* \"#utility.yul\":7248:7253   */\n  dup5\n    /* \"#utility.yul\":7245:7246   */\n  0x08\n    /* \"#utility.yul\":7241:7254   */\n  mul\n    /* \"#utility.yul\":7212:7263   */\n  tag_41\n  jump\t// in\ntag_133:\n    /* \"#utility.yul\":7208:7264   */\n  not\n    /* \"#utility.yul\":7293:7297   */\n  dup1\n    /* \"#utility.yul\":7287:7291   */\n  dup4\n    /* \"#utility.yul\":7283:7298   */\n  and\n    /* \"#utility.yul\":7273:7298   */\n  swap2\n  pop\n    /* \"#utility.yul\":7186:7304   */\n  pop\n    /* \"#utility.yul\":7135:7304   */\n  swap3\n  swap2\n  pop\n  pop\n  jump\t// out\n    /* \"#utility.yul\":7309:7604   */\ntag_43:\n    /* \"#utility.yul\":7385:7389   */\n  0x00\n    /* \"#utility.yul\":7531:7560   */\n  tag_135\n    /* \"#utility.yul\":7556:7559   */\n  dup4\n    /* \"#utility.yul\":7550:7554   */\n  dup4\n    /* \"#utility.yul\":7531:7560   */\n  tag_42\n  jump\t// in\ntag_135:\n    /* \"#utility.yul\":7523:7560   */\n  swap2\n  pop\n    /* \"#utility.yul\":7593:7596   */\n  dup3\n    /* \"#utility.yul\":7590:7591   */\n  0x02\n    /* \"#utility.yul\":7586:7597   */\n  mul\n    /* \"#utility.yul\":7580:7584   */\n  dup3\n    /* \"#utility.yul\":7577:7598   */\n  or\n    /* \"#utility.yul\":7569:7598   */\n  swap1\n  pop\n    /* \"#utility.yul\":7309:7604   */\n  swap3\n  swap2\n  pop\n  pop\n  jump\t// out\n    /* \"#utility.yul\":7609:9004   */\ntag_7:\n    /* \"#utility.yul\":7726:7763   */\n  tag_137\n    /* \"#utility.yul\":7759:7762   */\n  dup3\n    /* \"#utility.yul\":7726:7763   */\n  tag_26\n  jump\t// in\ntag_137:\n    /* \"#utility.yul\":7828:7846   */\n  0xffffffffffffffff\n    /* \"#utility.yul\":7820:7826   */\n  dup2\n    /* \"#utility.yul\":7817:7847   */\n  gt\n    /* \"#utility.yul\":7814:7870   */\n  iszero\n  tag_138\n  jumpi\n    /* \"#utility.yul\":7850:7868   */\n  tag_139\n  tag_19\n  jump\t// in\ntag_139:\n    /* \"#utility.yul\":7814:7870   */\ntag_138:\n    /* \"#utility.yul\":7894:7932   */\n  tag_140\n    /* \"#utility.yul\":7926:7930   */\n  dup3\n    /* \"#utility.yul\":7920:7931   */\n  sload\n    /* \"#utility.yul\":7894:7932   */\n  tag_28\n  jump\t// in\ntag_140:\n    /* \"#utility.yul\":7979:8046   */\n  tag_141\n    /* \"#utility.yul\":8039:8045   */\n  dup3\n    /* \"#utility.yul\":8031:8037   */\n  dup3\n    /* \"#utility.yul\":8025:8029   */\n  dup6\n    /* \"#utility.yul\":7979:8046   */\n  tag_40\n  jump\t// in\ntag_141:\n    /* \"#utility.yul\":8073:8074   */\n  0x00\n    /* \"#utility.yul\":8097:8101   */\n  0x20\n    /* \"#utility.yul\":8084:8101   */\n  swap1\n  pop\n    /* \"#utility.yul\":8129:8131   */\n  0x1f\n    /* \"#utility.yul\":8121:8127   */\n  dup4\n    /* \"#utility.yul\":8118:8132   */\n  gt\n    /* \"#utility.yul\":8146:8147   */\n  0x01\n    /* \"#utility.yul\":8141:8759   */\n  dup2\n  eq\n  tag_143\n  jumpi\n    /* \"#utility.yul\":8803:8804   */\n  0x00\n    /* \"#utility.yul\":8820:8826   */\n  dup5\n    /* \"#utility.yul\":8817:8894   */\n  iszero\n  tag_144\n  jumpi\n    /* \"#utility.yul\":8869:8878   */\n  dup3\n    /* \"#utility.yul\":8864:8867   */\n  dup8\n    /* \"#utility.yul\":8860:8879   */\n  add\n    /* \"#utility.yul\":8854:8880   */\n  mload\n    /* \"#utility.yul\":8845:8880   */\n  swap1\n  pop\n    /* \"#utility.yul\":8817:8894   */\ntag_144:\n    /* \"#utility.yul\":8920:8987   */\n  tag_145\n    /* \"#utility.yul\":8980:8986   */\n  dup6\n    /* \"#utility.yul\":8973:8978   */\n  dup3\n    /* \"#utility.yul\":8920:8987   */\n  tag_43\n  jump\t// in\ntag_145:\n    /* \"#utility.yul\":8914:8918   */\n  dup7\n    /* \"#utility.yul\":8907:8988   */\n  sstore\n    /* \"#utility.yul\":8776:8998   */\n  pop\n    /* \"#utility.yul\":8111:8998   */\n  jump(tag_142)\n    /* \"#utility.yul\":8141:8759   */\ntag_143:\n    /* \"#utility.yul\":8193:8197   */\n  0x1f\n    /* \"#utility.yul\":8189:8198   */\n  not\n    /* \"#utility.yul\":8181:8187   */\n  dup5\n    /* \"#utility.yul\":8177:8199   */\n  and\n    /* \"#utility.yul\":8227:8264   */\n  tag_146\n    /* \"#utility.yul\":8259:8263   */\n  dup7\n    /* \"#utility.yul\":8227:8264   */\n  tag_29\n  jump\t// in\ntag_146:\n    /* \"#utility.yul\":8286:8287   */\n  0x00\n    /* \"#utility.yul\":8300:8508   */\ntag_147:\n    /* \"#utility.yul\":8314:8321   */\n  dup3\n    /* \"#utility.yul\":8311:8312   */\n  dup2\n    /* \"#utility.yul\":8308:8322   */\n  lt\n    /* \"#utility.yul\":8300:8508   */\n  iszero\n  tag_149\n  jumpi\n    /* \"#utility.yul\":8393:8402   */\n  dup5\n    /* \"#utility.yul\":8388:8391   */\n  dup10\n    /* \"#utility.yul\":8384:8403   */\n  add\n    /* \"#utility.yul\":8378:8404   */\n  mload\n    /* \"#utility.yul\":8370:8376   */\n  dup3\n    /* \"#utility.yul\":8363:8405   */\n  sstore\n    /* \"#utility.yul\":8444:8445   */\n  0x01\n    /* \"#utility.yul\":8436:8442   */\n  dup3\n    /* \"#utility.yul\":8432:8446   */\n  add\n    /* \"#utility.yul\":8422:8446   */\n  swap2\n  pop\n    /* \"#utility.yul\":8491:8493   */\n  0x20\n    /* \"#utility.yul\":8480:8489   */\n  dup6\n    /* \"#utility.yul\":8476:8494   */\n  add\n    /* \"#utility.yul\":8463:8494   */\n  swap5\n  pop\n    /* \"#utility.yul\":8337:8341   */\n  0x20\n    /* \"#utility.yul\":8334:8335   */\n  dup2\n    /* \"#utility.yul\":8330:8342   */\n  add\n    /* \"#utility.yul\":8325:8342   */\n  swap1\n  pop\n    /* \"#utility.yul\":8300:8508   */\n  jump(tag_147)\ntag_149:\n    /* \"#utility.yul\":8536:8542   */\n  dup7\n    /* \"#utility.yul\":8527:8534   */\n  dup4\n    /* \"#utility.yul\":8524:8543   */\n  lt\n    /* \"#utility.yul\":8521:8700   */\n  iszero\n  tag_150\n  jumpi\n    /* \"#utility.yul\":8594:8603   */\n  dup5\n    /* \"#utility.yul\":8589:8592   */\n  dup10\n    /* \"#utility.yul\":8585:8604   */\n  add\n    /* \"#utility.yul\":8579:8605   */\n  mload\n    /* \"#utility.yul\":8637:8685   */\n  tag_151\n    /* \"#utility.yul\":8679:8683   */\n  0x1f\n    /* \"#utility.yul\":8671:8677   */\n  dup10\n    /* \"#utility.yul\":8667:8684   */\n  and\n    /* \"#utility.yul\":8656:8665   */\n  dup3\n    /* \"#utility.yul\":8637:8685   */\n  tag_42\n  jump\t// in\ntag_151:\n    /* \"#utility.yul\":8629:8635   */\n  dup4\n    /* \"#utility.yul\":8622:8686   */\n  sstore\n    /* \"#utility.yul\":8544:8700   */\n  pop\n    /* \"#utility.yul\":8521:8700   */\ntag_150:\n    /* \"#utility.yul\":8746:8747   */\n  0x01\n    /* \"#utility.yul\":8742:8743   */\n  0x02\n    /* \"#utility.yul\":8734:8740   */\n  dup9\n    /* \"#utility.yul\":8730:8744   */\n  mul\n    /* \"#utility.yul\":8726:8748   */\n  add\n    /* \"#utility.yul\":8720:8724   */\n  dup9\n    /* \"#utility.yul\":8713:8749   */\n  sstore\n    /* \"#utility.yul\":8148:8759   */\n  pop\n  pop\n  pop\n    /* \"#utility.yul\":8111:8998   */\ntag_142:\n  pop\n    /* \"#utility.yul\":7701:9004   */\n  pop\n  pop\n  pop\n    /* \"#utility.yul\":7609:9004   */\n  pop\n  pop\n  jump\t// out\n    /* \"3_structure.sol\":291:812  contract Structure{... */\ntag_9:\n  dataSize(sub_0)\n  dup1\n  dataOffset(sub_0)\n  0x00\n  codecopy\n  0x00\n  return\nstop\n\nsub_0: assembly {\n        /* \"3_structure.sol\":291:812  contract Structure{... */\n      mstore(0x40, 0x80)\n      callvalue\n      dup1\n      iszero\n      tag_1\n      jumpi\n      0x00\n      dup1\n      revert\n    tag_1:\n      pop\n      jumpi(tag_2, lt(calldatasize, 0x04))\n      shr(0xe0, calldataload(0x00))\n      dup1\n      0x41d15e08\n      eq\n      tag_3\n      jumpi\n      dup1\n      0x699450e8\n      eq\n      tag_4\n      jumpi\n    tag_2:\n      0x00\n      dup1\n      revert\n        /* \"3_structure.sol\":614:809  function changeStructureValue(uint _roll, string memory _name, string memory _class) public {... */\n    tag_3:\n      tag_5\n      0x04\n      dup1\n      calldatasize\n      sub\n      dup2\n      add\n      swap1\n      tag_6\n      swap2\n      swap1\n      tag_7\n      jump\t// in\n    tag_6:\n      tag_8\n      jump\t// in\n    tag_5:\n      stop\n        /* \"3_structure.sol\":410:432  Student public student */\n    tag_4:\n      tag_9\n      tag_10\n      jump\t// in\n    tag_9:\n      mload(0x40)\n      tag_11\n      swap4\n      swap3\n      swap2\n      swap1\n      tag_12\n      jump\t// in\n    tag_11:\n      mload(0x40)\n      dup1\n      swap2\n      sub\n      swap1\n      return\n        /* \"3_structure.sol\":614:809  function changeStructureValue(uint _roll, string memory _name, string memory _class) public {... */\n    tag_8:\n        /* \"3_structure.sol\":732:737  _roll */\n      dup3\n        /* \"3_structure.sol\":717:724  student */\n      0x00\n        /* \"3_structure.sol\":717:729  student.roll */\n      dup1\n      add\n        /* \"3_structure.sol\":717:737  student.roll = _roll */\n      dup2\n      swap1\n      sstore\n      pop\n        /* \"3_structure.sol\":763:768  _name */\n      dup2\n        /* \"3_structure.sol\":748:755  student */\n      0x00\n        /* \"3_structure.sol\":748:760  student.name */\n      0x01\n      add\n        /* \"3_structure.sol\":748:768  student.name = _name */\n      swap1\n      dup2\n      tag_14\n      swap2\n      swap1\n      tag_15\n      jump\t// in\n    tag_14:\n      pop\n        /* \"3_structure.sol\":795:801  _class */\n      dup1\n        /* \"3_structure.sol\":779:786  student */\n      0x00\n        /* \"3_structure.sol\":779:792  student.class */\n      0x02\n      add\n        /* \"3_structure.sol\":779:801  student.class = _class */\n      swap1\n      dup2\n      tag_16\n      swap2\n      swap1\n      tag_15\n      jump\t// in\n    tag_16:\n      pop\n        /* \"3_structure.sol\":614:809  function changeStructureValue(uint _roll, string memory _name, string memory _class) public {... */\n      pop\n      pop\n      pop\n      jump\t// out\n        /* \"3_structure.sol\":410:432  Student public student */\n    tag_10:\n      0x00\n      dup1\n      0x00\n      add\n      sload\n      swap1\n      dup1\n      0x01\n      add\n      dup1\n      sload\n      tag_17\n      swap1\n      tag_18\n      jump\t// in\n    tag_17:\n      dup1\n      0x1f\n      add\n      0x20\n      dup1\n      swap2\n      div\n      mul\n      0x20\n      add\n      mload(0x40)\n      swap1\n      dup2\n      add\n      0x40\n      mstore\n      dup1\n      swap3\n      swap2\n      swap1\n      dup2\n      dup2\n      mstore\n      0x20\n      add\n      dup3\n      dup1\n      sload\n      tag_19\n      swap1\n      tag_18\n      jump\t// in\n    tag_19:\n      dup1\n      iszero\n      tag_20\n      jumpi\n      dup1\n      0x1f\n      lt\n      tag_21\n      jumpi\n      0x0100\n      dup1\n      dup4\n      sload\n      div\n      mul\n      dup4\n      mstore\n      swap2\n      0x20\n      add\n      swap2\n      jump(tag_20)\n    tag_21:\n      dup3\n      add\n      swap2\n      swap1\n      0x00\n      mstore\n      keccak256(0x00, 0x20)\n      swap1\n    tag_22:\n      dup2\n      sload\n      dup2\n      mstore\n      swap1\n      0x01\n      add\n      swap1\n      0x20\n      add\n      dup1\n      dup4\n      gt\n      tag_22\n      jumpi\n      dup3\n      swap1\n      sub\n      0x1f\n      and\n      dup3\n      add\n      swap2\n    tag_20:\n      pop\n      pop\n      pop\n      pop\n      pop\n      swap1\n      dup1\n      0x02\n      add\n      dup1\n      sload\n      tag_23\n      swap1\n      tag_18\n      jump\t// in\n    tag_23:\n      dup1\n      0x1f\n      add\n      0x20\n      dup1\n      swap2\n      div\n      mul\n      0x20\n      add\n      mload(0x40)\n      swap1\n      dup2\n      add\n      0x40\n      mstore\n      dup1\n      swap3\n      swap2\n      swap1\n      dup2\n      dup2\n      mstore\n      0x20\n      add\n      dup3\n      dup1\n      sload\n      tag_24\n      swap1\n      tag_18\n      jump\t// in\n    tag_24:\n      dup1\n      iszero\n      tag_25\n      jumpi\n      dup1\n      0x1f\n      lt\n      tag_26\n      jumpi\n      0x0100\n      dup1\n      dup4\n      sload\n      div\n      mul\n      dup4\n      mstore\n      swap2\n      0x20\n      add\n      swap2\n      jump(tag_25)\n    tag_26:\n      dup3\n      add\n      swap2\n      swap1\n      0x00\n      mstore\n      keccak256(0x00, 0x20)\n      swap1\n    tag_27:\n      dup2\n      sload\n      dup2\n      mstore\n      swap1\n      0x01\n      add\n      swap1\n      0x20\n      add\n      dup1\n      dup4\n      gt\n      tag_27\n      jumpi\n      dup3\n      swap1\n      sub\n      0x1f\n      and\n      dup3\n      add\n      swap2\n    tag_25:\n      pop\n      pop\n      pop\n      pop\n      pop\n      swap1\n      pop\n      dup4\n      jump\t// out\n        /* \"#utility.yul\":7:82   */\n    tag_28:\n        /* \"#utility.yul\":40:46   */\n      0x00\n        /* \"#utility.yul\":73:75   */\n      0x40\n        /* \"#utility.yul\":67:76   */\n      mload\n        /* \"#utility.yul\":57:76   */\n      swap1\n      pop\n        /* \"#utility.yul\":7:82   */\n      swap1\n      jump\t// out\n        /* \"#utility.yul\":88:205   */\n    tag_29:\n        /* \"#utility.yul\":197:198   */\n      0x00\n        /* \"#utility.yul\":194:195   */\n      dup1\n        /* \"#utility.yul\":187:199   */\n      revert\n        /* \"#utility.yul\":211:328   */\n    tag_30:\n        /* \"#utility.yul\":320:321   */\n      0x00\n        /* \"#utility.yul\":317:318   */\n      dup1\n        /* \"#utility.yul\":310:322   */\n      revert\n        /* \"#utility.yul\":334:411   */\n    tag_31:\n        /* \"#utility.yul\":371:378   */\n      0x00\n        /* \"#utility.yul\":400:405   */\n      dup2\n        /* \"#utility.yul\":389:405   */\n      swap1\n      pop\n        /* \"#utility.yul\":334:411   */\n      swap2\n      swap1\n      pop\n      jump\t// out\n        /* \"#utility.yul\":417:539   */\n    tag_32:\n        /* \"#utility.yul\":490:514   */\n      tag_71\n        /* \"#utility.yul\":508:513   */\n      dup2\n        /* \"#utility.yul\":490:514   */\n      tag_31\n      jump\t// in\n    tag_71:\n        /* \"#utility.yul\":483:488   */\n      dup2\n        /* \"#utility.yul\":480:515   */\n      eq\n        /* \"#utility.yul\":470:533   */\n      tag_72\n      jumpi\n        /* \"#utility.yul\":529:530   */\n      0x00\n        /* \"#utility.yul\":526:527   */\n      dup1\n        /* \"#utility.yul\":519:531   */\n      revert\n        /* \"#utility.yul\":470:533   */\n    tag_72:\n        /* \"#utility.yul\":417:539   */\n      pop\n      jump\t// out\n        /* \"#utility.yul\":545:684   */\n    tag_33:\n        /* \"#utility.yul\":591:596   */\n      0x00\n        /* \"#utility.yul\":629:635   */\n      dup2\n        /* \"#utility.yul\":616:636   */\n      calldataload\n        /* \"#utility.yul\":607:636   */\n      swap1\n      pop\n        /* \"#utility.yul\":645:678   */\n      tag_74\n        /* \"#utility.yul\":672:677   */\n      dup2\n        /* \"#utility.yul\":645:678   */\n      tag_32\n      jump\t// in\n    tag_74:\n        /* \"#utility.yul\":545:684   */\n      swap3\n      swap2\n      pop\n      pop\n      jump\t// out\n        /* \"#utility.yul\":690:807   */\n    tag_34:\n        /* \"#utility.yul\":799:800   */\n      0x00\n        /* \"#utility.yul\":796:797   */\n      dup1\n        /* \"#utility.yul\":789:801   */\n      revert\n        /* \"#utility.yul\":813:930   */\n    tag_35:\n        /* \"#utility.yul\":922:923   */\n      0x00\n        /* \"#utility.yul\":919:920   */\n      dup1\n        /* \"#utility.yul\":912:924   */\n      revert\n        /* \"#utility.yul\":936:1038   */\n    tag_36:\n        /* \"#utility.yul\":977:983   */\n      0x00\n        /* \"#utility.yul\":1028:1030   */\n      0x1f\n        /* \"#utility.yul\":1024:1031   */\n      not\n        /* \"#utility.yul\":1019:1021   */\n      0x1f\n        /* \"#utility.yul\":1012:1017   */\n      dup4\n        /* \"#utility.yul\":1008:1022   */\n      add\n        /* \"#utility.yul\":1004:1032   */\n      and\n        /* \"#utility.yul\":994:1032   */\n      swap1\n      pop\n        /* \"#utility.yul\":936:1038   */\n      swap2\n      swap1\n      pop\n      jump\t// out\n        /* \"#utility.yul\":1044:1224   */\n    tag_37:\n        /* \"#utility.yul\":1092:1169   */\n      0x4e487b7100000000000000000000000000000000000000000000000000000000\n        /* \"#utility.yul\":1089:1090   */\n      0x00\n        /* \"#utility.yul\":1082:1170   */\n      mstore\n        /* \"#utility.yul\":1189:1193   */\n      0x41\n        /* \"#utility.yul\":1186:1187   */\n      0x04\n        /* \"#utility.yul\":1179:1194   */\n      mstore\n        /* \"#utility.yul\":1213:1217   */\n      0x24\n        /* \"#utility.yul\":1210:1211   */\n      0x00\n        /* \"#utility.yul\":1203:1218   */\n      revert\n        /* \"#utility.yul\":1230:1511   */\n    tag_38:\n        /* \"#utility.yul\":1313:1340   */\n      tag_80\n        /* \"#utility.yul\":1335:1339   */\n      dup3\n        /* \"#utility.yul\":1313:1340   */\n      tag_36\n      jump\t// in\n    tag_80:\n        /* \"#utility.yul\":1305:1311   */\n      dup2\n        /* \"#utility.yul\":1301:1341   */\n      add\n        /* \"#utility.yul\":1443:1449   */\n      dup2\n        /* \"#utility.yul\":1431:1441   */\n      dup2\n        /* \"#utility.yul\":1428:1450   */\n      lt\n        /* \"#utility.yul\":1407:1425   */\n      0xffffffffffffffff\n        /* \"#utility.yul\":1395:1405   */\n      dup3\n        /* \"#utility.yul\":1392:1426   */\n      gt\n        /* \"#utility.yul\":1389:1451   */\n      or\n        /* \"#utility.yul\":1386:1474   */\n      iszero\n      tag_81\n      jumpi\n        /* \"#utility.yul\":1454:1472   */\n      tag_82\n      tag_37\n      jump\t// in\n    tag_82:\n        /* \"#utility.yul\":1386:1474   */\n    tag_81:\n        /* \"#utility.yul\":1494:1504   */\n      dup1\n        /* \"#utility.yul\":1490:1492   */\n      0x40\n        /* \"#utility.yul\":1483:1505   */\n      mstore\n        /* \"#utility.yul\":1273:1511   */\n      pop\n        /* \"#utility.yul\":1230:1511   */\n      pop\n      pop\n      jump\t// out\n        /* \"#utility.yul\":1517:1646   */\n    tag_39:\n        /* \"#utility.yul\":1551:1557   */\n      0x00\n        /* \"#utility.yul\":1578:1598   */\n      tag_84\n      tag_28\n      jump\t// in\n    tag_84:\n        /* \"#utility.yul\":1568:1598   */\n      swap1\n      pop\n        /* \"#utility.yul\":1607:1640   */\n      tag_85\n        /* \"#utility.yul\":1635:1639   */\n      dup3\n        /* \"#utility.yul\":1627:1633   */\n      dup3\n        /* \"#utility.yul\":1607:1640   */\n      tag_38\n      jump\t// in\n    tag_85:\n        /* \"#utility.yul\":1517:1646   */\n      swap2\n      swap1\n      pop\n      jump\t// out\n        /* \"#utility.yul\":1652:1960   */\n    tag_40:\n        /* \"#utility.yul\":1714:1718   */\n      0x00\n        /* \"#utility.yul\":1804:1822   */\n      0xffffffffffffffff\n        /* \"#utility.yul\":1796:1802   */\n      dup3\n        /* \"#utility.yul\":1793:1823   */\n      gt\n        /* \"#utility.yul\":1790:1846   */\n      iszero\n      tag_87\n      jumpi\n        /* \"#utility.yul\":1826:1844   */\n      tag_88\n      tag_37\n      jump\t// in\n    tag_88:\n        /* \"#utility.yul\":1790:1846   */\n    tag_87:\n        /* \"#utility.yul\":1864:1893   */\n      tag_89\n        /* \"#utility.yul\":1886:1892   */\n      dup3\n        /* \"#utility.yul\":1864:1893   */\n      tag_36\n      jump\t// in\n    tag_89:\n        /* \"#utility.yul\":1856:1893   */\n      swap1\n      pop\n        /* \"#utility.yul\":1948:1952   */\n      0x20\n        /* \"#utility.yul\":1942:1946   */\n      dup2\n        /* \"#utility.yul\":1938:1953   */\n      add\n        /* \"#utility.yul\":1930:1953   */\n      swap1\n      pop\n        /* \"#utility.yul\":1652:1960   */\n      swap2\n      swap1\n      pop\n      jump\t// out\n        /* \"#utility.yul\":1966:2112   */\n    tag_41:\n        /* \"#utility.yul\":2063:2069   */\n      dup3\n        /* \"#utility.yul\":2058:2061   */\n      dup2\n        /* \"#utility.yul\":2053:2056   */\n      dup4\n        /* \"#utility.yul\":2040:2070   */\n      calldatacopy\n        /* \"#utility.yul\":2104:2105   */\n      0x00\n        /* \"#utility.yul\":2095:2101   */\n      dup4\n        /* \"#utility.yul\":2090:2093   */\n      dup4\n        /* \"#utility.yul\":2086:2102   */\n      add\n        /* \"#utility.yul\":2079:2106   */\n      mstore\n        /* \"#utility.yul\":1966:2112   */\n      pop\n      pop\n      pop\n      jump\t// out\n        /* \"#utility.yul\":2118:2543   */\n    tag_42:\n        /* \"#utility.yul\":2196:2201   */\n      0x00\n        /* \"#utility.yul\":2221:2287   */\n      tag_92\n        /* \"#utility.yul\":2237:2286   */\n      tag_93\n        /* \"#utility.yul\":2279:2285   */\n      dup5\n        /* \"#utility.yul\":2237:2286   */\n      tag_40\n      jump\t// in\n    tag_93:\n        /* \"#utility.yul\":2221:2287   */\n      tag_39\n      jump\t// in\n    tag_92:\n        /* \"#utility.yul\":2212:2287   */\n      swap1\n      pop\n        /* \"#utility.yul\":2310:2316   */\n      dup3\n        /* \"#utility.yul\":2303:2308   */\n      dup2\n        /* \"#utility.yul\":2296:2317   */\n      mstore\n        /* \"#utility.yul\":2348:2352   */\n      0x20\n        /* \"#utility.yul\":2341:2346   */\n      dup2\n        /* \"#utility.yul\":2337:2353   */\n      add\n        /* \"#utility.yul\":2386:2389   */\n      dup5\n        /* \"#utility.yul\":2377:2383   */\n      dup5\n        /* \"#utility.yul\":2372:2375   */\n      dup5\n        /* \"#utility.yul\":2368:2384   */\n      add\n        /* \"#utility.yul\":2365:2390   */\n      gt\n        /* \"#utility.yul\":2362:2474   */\n      iszero\n      tag_94\n      jumpi\n        /* \"#utility.yul\":2393:2472   */\n      tag_95\n      tag_35\n      jump\t// in\n    tag_95:\n        /* \"#utility.yul\":2362:2474   */\n    tag_94:\n        /* \"#utility.yul\":2483:2537   */\n      tag_96\n        /* \"#utility.yul\":2530:2536   */\n      dup5\n        /* \"#utility.yul\":2525:2528   */\n      dup3\n        /* \"#utility.yul\":2520:2523   */\n      dup6\n        /* \"#utility.yul\":2483:2537   */\n      tag_41\n      jump\t// in\n    tag_96:\n        /* \"#utility.yul\":2202:2543   */\n      pop\n        /* \"#utility.yul\":2118:2543   */\n      swap4\n      swap3\n      pop\n      pop\n      pop\n      jump\t// out\n        /* \"#utility.yul\":2563:2903   */\n    tag_43:\n        /* \"#utility.yul\":2619:2624   */\n      0x00\n        /* \"#utility.yul\":2668:2671   */\n      dup3\n        /* \"#utility.yul\":2661:2665   */\n      0x1f\n        /* \"#utility.yul\":2653:2659   */\n      dup4\n        /* \"#utility.yul\":2649:2666   */\n      add\n        /* \"#utility.yul\":2645:2672   */\n      slt\n        /* \"#utility.yul\":2635:2757   */\n      tag_98\n      jumpi\n        /* \"#utility.yul\":2676:2755   */\n      tag_99\n      tag_34\n      jump\t// in\n    tag_99:\n        /* \"#utility.yul\":2635:2757   */\n    tag_98:\n        /* \"#utility.yul\":2793:2799   */\n      dup2\n        /* \"#utility.yul\":2780:2800   */\n      calldataload\n        /* \"#utility.yul\":2818:2897   */\n      tag_100\n        /* \"#utility.yul\":2893:2896   */\n      dup5\n        /* \"#utility.yul\":2885:2891   */\n      dup3\n        /* \"#utility.yul\":2878:2882   */\n      0x20\n        /* \"#utility.yul\":2870:2876   */\n      dup7\n        /* \"#utility.yul\":2866:2883   */\n      add\n        /* \"#utility.yul\":2818:2897   */\n      tag_42\n      jump\t// in\n    tag_100:\n        /* \"#utility.yul\":2809:2897   */\n      swap2\n      pop\n        /* \"#utility.yul\":2625:2903   */\n      pop\n        /* \"#utility.yul\":2563:2903   */\n      swap3\n      swap2\n      pop\n      pop\n      jump\t// out\n        /* \"#utility.yul\":2909:3888   */\n    tag_7:\n        /* \"#utility.yul\":3006:3012   */\n      0x00\n        /* \"#utility.yul\":3014:3020   */\n      dup1\n        /* \"#utility.yul\":3022:3028   */\n      0x00\n        /* \"#utility.yul\":3071:3073   */\n      0x60\n        /* \"#utility.yul\":3059:3068   */\n      dup5\n        /* \"#utility.yul\":3050:3057   */\n      dup7\n        /* \"#utility.yul\":3046:3069   */\n      sub\n        /* \"#utility.yul\":3042:3074   */\n      slt\n        /* \"#utility.yul\":3039:3158   */\n      iszero\n      tag_102\n      jumpi\n        /* \"#utility.yul\":3077:3156   */\n      tag_103\n      tag_29\n      jump\t// in\n    tag_103:\n        /* \"#utility.yul\":3039:3158   */\n    tag_102:\n        /* \"#utility.yul\":3197:3198   */\n      0x00\n        /* \"#utility.yul\":3222:3275   */\n      tag_104\n        /* \"#utility.yul\":3267:3274   */\n      dup7\n        /* \"#utility.yul\":3258:3264   */\n      dup3\n        /* \"#utility.yul\":3247:3256   */\n      dup8\n        /* \"#utility.yul\":3243:3265   */\n      add\n        /* \"#utility.yul\":3222:3275   */\n      tag_33\n      jump\t// in\n    tag_104:\n        /* \"#utility.yul\":3212:3275   */\n      swap4\n      pop\n        /* \"#utility.yul\":3168:3285   */\n      pop\n        /* \"#utility.yul\":3352:3354   */\n      0x20\n        /* \"#utility.yul\":3341:3350   */\n      dup5\n        /* \"#utility.yul\":3337:3355   */\n      add\n        /* \"#utility.yul\":3324:3356   */\n      calldataload\n        /* \"#utility.yul\":3383:3401   */\n      0xffffffffffffffff\n        /* \"#utility.yul\":3375:3381   */\n      dup2\n        /* \"#utility.yul\":3372:3402   */\n      gt\n        /* \"#utility.yul\":3369:3486   */\n      iszero\n      tag_105\n      jumpi\n        /* \"#utility.yul\":3405:3484   */\n      tag_106\n      tag_30\n      jump\t// in\n    tag_106:\n        /* \"#utility.yul\":3369:3486   */\n    tag_105:\n        /* \"#utility.yul\":3510:3573   */\n      tag_107\n        /* \"#utility.yul\":3565:3572   */\n      dup7\n        /* \"#utility.yul\":3556:3562   */\n      dup3\n        /* \"#utility.yul\":3545:3554   */\n      dup8\n        /* \"#utility.yul\":3541:3563   */\n      add\n        /* \"#utility.yul\":3510:3573   */\n      tag_43\n      jump\t// in\n    tag_107:\n        /* \"#utility.yul\":3500:3573   */\n      swap3\n      pop\n        /* \"#utility.yul\":3295:3583   */\n      pop\n        /* \"#utility.yul\":3650:3652   */\n      0x40\n        /* \"#utility.yul\":3639:3648   */\n      dup5\n        /* \"#utility.yul\":3635:3653   */\n      add\n        /* \"#utility.yul\":3622:3654   */\n      calldataload\n        /* \"#utility.yul\":3681:3699   */\n      0xffffffffffffffff\n        /* \"#utility.yul\":3673:3679   */\n      dup2\n        /* \"#utility.yul\":3670:3700   */\n      gt\n        /* \"#utility.yul\":3667:3784   */\n      iszero\n      tag_108\n      jumpi\n        /* \"#utility.yul\":3703:3782   */\n      tag_109\n      tag_30\n      jump\t// in\n    tag_109:\n        /* \"#utility.yul\":3667:3784   */\n    tag_108:\n        /* \"#utility.yul\":3808:3871   */\n      tag_110\n        /* \"#utility.yul\":3863:3870   */\n      dup7\n        /* \"#utility.yul\":3854:3860   */\n      dup3\n        /* \"#utility.yul\":3843:3852   */\n      dup8\n        /* \"#utility.yul\":3839:3861   */\n      add\n        /* \"#utility.yul\":3808:3871   */\n      tag_43\n      jump\t// in\n    tag_110:\n        /* \"#utility.yul\":3798:3871   */\n      swap2\n      pop\n        /* \"#utility.yul\":3593:3881   */\n      pop\n        /* \"#utility.yul\":2909:3888   */\n      swap3\n      pop\n      swap3\n      pop\n      swap3\n      jump\t// out\n        /* \"#utility.yul\":3894:4012   */\n    tag_44:\n        /* \"#utility.yul\":3981:4005   */\n      tag_112\n        /* \"#utility.yul\":3999:4004   */\n      dup2\n        /* \"#utility.yul\":3981:4005   */\n      tag_31\n      jump\t// in\n    tag_112:\n        /* \"#utility.yul\":3976:3979   */\n      dup3\n        /* \"#utility.yul\":3969:4006   */\n      mstore\n        /* \"#utility.yul\":3894:4012   */\n      pop\n      pop\n      jump\t// out\n        /* \"#utility.yul\":4018:4117   */\n    tag_45:\n        /* \"#utility.yul\":4070:4076   */\n      0x00\n        /* \"#utility.yul\":4104:4109   */\n      dup2\n        /* \"#utility.yul\":4098:4110   */\n      mload\n        /* \"#utility.yul\":4088:4110   */\n      swap1\n      pop\n        /* \"#utility.yul\":4018:4117   */\n      swap2\n      swap1\n      pop\n      jump\t// out\n        /* \"#utility.yul\":4123:4292   */\n    tag_46:\n        /* \"#utility.yul\":4207:4218   */\n      0x00\n        /* \"#utility.yul\":4241:4247   */\n      dup3\n        /* \"#utility.yul\":4236:4239   */\n      dup3\n        /* \"#utility.yul\":4229:4248   */\n      mstore\n        /* \"#utility.yul\":4281:4285   */\n      0x20\n        /* \"#utility.yul\":4276:4279   */\n      dup3\n        /* \"#utility.yul\":4272:4286   */\n      add\n        /* \"#utility.yul\":4257:4286   */\n      swap1\n      pop\n        /* \"#utility.yul\":4123:4292   */\n      swap3\n      swap2\n      pop\n      pop\n      jump\t// out\n        /* \"#utility.yul\":4298:4544   */\n    tag_47:\n        /* \"#utility.yul\":4379:4380   */\n      0x00\n        /* \"#utility.yul\":4389:4502   */\n    tag_116:\n        /* \"#utility.yul\":4403:4409   */\n      dup4\n        /* \"#utility.yul\":4400:4401   */\n      dup2\n        /* \"#utility.yul\":4397:4410   */\n      lt\n        /* \"#utility.yul\":4389:4502   */\n      iszero\n      tag_118\n      jumpi\n        /* \"#utility.yul\":4488:4489   */\n      dup1\n        /* \"#utility.yul\":4483:4486   */\n      dup3\n        /* \"#utility.yul\":4479:4490   */\n      add\n        /* \"#utility.yul\":4473:4491   */\n      mload\n        /* \"#utility.yul\":4469:4470   */\n      dup2\n        /* \"#utility.yul\":4464:4467   */\n      dup5\n        /* \"#utility.yul\":4460:4471   */\n      add\n        /* \"#utility.yul\":4453:4492   */\n      mstore\n        /* \"#utility.yul\":4425:4427   */\n      0x20\n        /* \"#utility.yul\":4422:4423   */\n      dup2\n        /* \"#utility.yul\":4418:4428   */\n      add\n        /* \"#utility.yul\":4413:4428   */\n      swap1\n      pop\n        /* \"#utility.yul\":4389:4502   */\n      jump(tag_116)\n    tag_118:\n        /* \"#utility.yul\":4536:4537   */\n      0x00\n        /* \"#utility.yul\":4527:4533   */\n      dup5\n        /* \"#utility.yul\":4522:4525   */\n      dup5\n        /* \"#utility.yul\":4518:4534   */\n      add\n        /* \"#utility.yul\":4511:4538   */\n      mstore\n        /* \"#utility.yul\":4360:4544   */\n      pop\n        /* \"#utility.yul\":4298:4544   */\n      pop\n      pop\n      pop\n      jump\t// out\n        /* \"#utility.yul\":4550:4927   */\n    tag_48:\n        /* \"#utility.yul\":4638:4641   */\n      0x00\n        /* \"#utility.yul\":4666:4705   */\n      tag_120\n        /* \"#utility.yul\":4699:4704   */\n      dup3\n        /* \"#utility.yul\":4666:4705   */\n      tag_45\n      jump\t// in\n    tag_120:\n        /* \"#utility.yul\":4721:4792   */\n      tag_121\n        /* \"#utility.yul\":4785:4791   */\n      dup2\n        /* \"#utility.yul\":4780:4783   */\n      dup6\n        /* \"#utility.yul\":4721:4792   */\n      tag_46\n      jump\t// in\n    tag_121:\n        /* \"#utility.yul\":4714:4792   */\n      swap4\n      pop\n        /* \"#utility.yul\":4801:4866   */\n      tag_122\n        /* \"#utility.yul\":4859:4865   */\n      dup2\n        /* \"#utility.yul\":4854:4857   */\n      dup6\n        /* \"#utility.yul\":4847:4851   */\n      0x20\n        /* \"#utility.yul\":4840:4845   */\n      dup7\n        /* \"#utility.yul\":4836:4852   */\n      add\n        /* \"#utility.yul\":4801:4866   */\n      tag_47\n      jump\t// in\n    tag_122:\n        /* \"#utility.yul\":4891:4920   */\n      tag_123\n        /* \"#utility.yul\":4913:4919   */\n      dup2\n        /* \"#utility.yul\":4891:4920   */\n      tag_36\n      jump\t// in\n    tag_123:\n        /* \"#utility.yul\":4886:4889   */\n      dup5\n        /* \"#utility.yul\":4882:4921   */\n      add\n        /* \"#utility.yul\":4875:4921   */\n      swap2\n      pop\n        /* \"#utility.yul\":4642:4927   */\n      pop\n        /* \"#utility.yul\":4550:4927   */\n      swap3\n      swap2\n      pop\n      pop\n      jump\t// out\n        /* \"#utility.yul\":4933:5557   */\n    tag_12:\n        /* \"#utility.yul\":5122:5126   */\n      0x00\n        /* \"#utility.yul\":5160:5162   */\n      0x60\n        /* \"#utility.yul\":5149:5158   */\n      dup3\n        /* \"#utility.yul\":5145:5163   */\n      add\n        /* \"#utility.yul\":5137:5163   */\n      swap1\n      pop\n        /* \"#utility.yul\":5173:5244   */\n      tag_125\n        /* \"#utility.yul\":5241:5242   */\n      0x00\n        /* \"#utility.yul\":5230:5239   */\n      dup4\n        /* \"#utility.yul\":5226:5243   */\n      add\n        /* \"#utility.yul\":5217:5223   */\n      dup7\n        /* \"#utility.yul\":5173:5244   */\n      tag_44\n      jump\t// in\n    tag_125:\n        /* \"#utility.yul\":5291:5300   */\n      dup2\n        /* \"#utility.yul\":5285:5289   */\n      dup2\n        /* \"#utility.yul\":5281:5301   */\n      sub\n        /* \"#utility.yul\":5276:5278   */\n      0x20\n        /* \"#utility.yul\":5265:5274   */\n      dup4\n        /* \"#utility.yul\":5261:5279   */\n      add\n        /* \"#utility.yul\":5254:5302   */\n      mstore\n        /* \"#utility.yul\":5319:5397   */\n      tag_126\n        /* \"#utility.yul\":5392:5396   */\n      dup2\n        /* \"#utility.yul\":5383:5389   */\n      dup6\n        /* \"#utility.yul\":5319:5397   */\n      tag_48\n      jump\t// in\n    tag_126:\n        /* \"#utility.yul\":5311:5397   */\n      swap1\n      pop\n        /* \"#utility.yul\":5444:5453   */\n      dup2\n        /* \"#utility.yul\":5438:5442   */\n      dup2\n        /* \"#utility.yul\":5434:5454   */\n      sub\n        /* \"#utility.yul\":5429:5431   */\n      0x40\n        /* \"#utility.yul\":5418:5427   */\n      dup4\n        /* \"#utility.yul\":5414:5432   */\n      add\n        /* \"#utility.yul\":5407:5455   */\n      mstore\n        /* \"#utility.yul\":5472:5550   */\n      tag_127\n        /* \"#utility.yul\":5545:5549   */\n      dup2\n        /* \"#utility.yul\":5536:5542   */\n      dup5\n        /* \"#utility.yul\":5472:5550   */\n      tag_48\n      jump\t// in\n    tag_127:\n        /* \"#utility.yul\":5464:5550   */\n      swap1\n      pop\n        /* \"#utility.yul\":4933:5557   */\n      swap5\n      swap4\n      pop\n      pop\n      pop\n      pop\n      jump\t// out\n        /* \"#utility.yul\":5563:5743   */\n    tag_49:\n        /* \"#utility.yul\":5611:5688   */\n      0x4e487b7100000000000000000000000000000000000000000000000000000000\n        /* \"#utility.yul\":5608:5609   */\n      0x00\n        /* \"#utility.yul\":5601:5689   */\n      mstore\n        /* \"#utility.yul\":5708:5712   */\n      0x22\n        /* \"#utility.yul\":5705:5706   */\n      0x04\n        /* \"#utility.yul\":5698:5713   */\n      mstore\n        /* \"#utility.yul\":5732:5736   */\n      0x24\n        /* \"#utility.yul\":5729:5730   */\n      0x00\n        /* \"#utility.yul\":5722:5737   */\n      revert\n        /* \"#utility.yul\":5749:6069   */\n    tag_18:\n        /* \"#utility.yul\":5793:5799   */\n      0x00\n        /* \"#utility.yul\":5830:5831   */\n      0x02\n        /* \"#utility.yul\":5824:5828   */\n      dup3\n        /* \"#utility.yul\":5820:5832   */\n      div\n        /* \"#utility.yul\":5810:5832   */\n      swap1\n      pop\n        /* \"#utility.yul\":5877:5878   */\n      0x01\n        /* \"#utility.yul\":5871:5875   */\n      dup3\n        /* \"#utility.yul\":5867:5879   */\n      and\n        /* \"#utility.yul\":5898:5916   */\n      dup1\n        /* \"#utility.yul\":5888:5969   */\n      tag_130\n      jumpi\n        /* \"#utility.yul\":5954:5958   */\n      0x7f\n        /* \"#utility.yul\":5946:5952   */\n      dup3\n        /* \"#utility.yul\":5942:5959   */\n      and\n        /* \"#utility.yul\":5932:5959   */\n      swap2\n      pop\n        /* \"#utility.yul\":5888:5969   */\n    tag_130:\n        /* \"#utility.yul\":6016:6018   */\n      0x20\n        /* \"#utility.yul\":6008:6014   */\n      dup3\n        /* \"#utility.yul\":6005:6019   */\n      lt\n        /* \"#utility.yul\":5985:6003   */\n      dup2\n        /* \"#utility.yul\":5982:6020   */\n      sub\n        /* \"#utility.yul\":5979:6063   */\n      tag_131\n      jumpi\n        /* \"#utility.yul\":6035:6053   */\n      tag_132\n      tag_49\n      jump\t// in\n    tag_132:\n        /* \"#utility.yul\":5979:6063   */\n    tag_131:\n        /* \"#utility.yul\":5800:6069   */\n      pop\n        /* \"#utility.yul\":5749:6069   */\n      swap2\n      swap1\n      pop\n      jump\t// out\n        /* \"#utility.yul\":6075:6216   */\n    tag_50:\n        /* \"#utility.yul\":6124:6128   */\n      0x00\n        /* \"#utility.yul\":6147:6150   */\n      dup2\n        /* \"#utility.yul\":6139:6150   */\n      swap1\n      pop\n        /* \"#utility.yul\":6170:6173   */\n      dup2\n        /* \"#utility.yul\":6167:6168   */\n      0x00\n        /* \"#utility.yul\":6160:6174   */\n      mstore\n        /* \"#utility.yul\":6204:6208   */\n      0x20\n        /* \"#utility.yul\":6201:6202   */\n      0x00\n        /* \"#utility.yul\":6191:6209   */\n      keccak256\n        /* \"#utility.yul\":6183:6209   */\n      swap1\n      pop\n        /* \"#utility.yul\":6075:6216   */\n      swap2\n      swap1\n      pop\n      jump\t// out\n        /* \"#utility.yul\":6222:6315   */\n    tag_51:\n        /* \"#utility.yul\":6259:6265   */\n      0x00\n        /* \"#utility.yul\":6306:6308   */\n      0x20\n        /* \"#utility.yul\":6301:6303   */\n      0x1f\n        /* \"#utility.yul\":6294:6299   */\n      dup4\n        /* \"#utility.yul\":6290:6304   */\n      add\n        /* \"#utility.yul\":6286:6309   */\n      div\n        /* \"#utility.yul\":6276:6309   */\n      swap1\n      pop\n        /* \"#utility.yul\":6222:6315   */\n      swap2\n      swap1\n      pop\n      jump\t// out\n        /* \"#utility.yul\":6321:6428   */\n    tag_52:\n        /* \"#utility.yul\":6365:6373   */\n      0x00\n        /* \"#utility.yul\":6415:6420   */\n      dup3\n        /* \"#utility.yul\":6409:6413   */\n      dup3\n        /* \"#utility.yul\":6405:6421   */\n      shl\n        /* \"#utility.yul\":6384:6421   */\n      swap1\n      pop\n        /* \"#utility.yul\":6321:6428   */\n      swap3\n      swap2\n      pop\n      pop\n      jump\t// out\n        /* \"#utility.yul\":6434:6827   */\n    tag_53:\n        /* \"#utility.yul\":6503:6509   */\n      0x00\n        /* \"#utility.yul\":6553:6554   */\n      0x08\n        /* \"#utility.yul\":6541:6551   */\n      dup4\n        /* \"#utility.yul\":6537:6555   */\n      mul\n        /* \"#utility.yul\":6576:6673   */\n      tag_137\n        /* \"#utility.yul\":6606:6672   */\n      0xffffffffffffffffffffffffffffffffffffffffffffffffffffffffffffffff\n        /* \"#utility.yul\":6595:6604   */\n      dup3\n        /* \"#utility.yul\":6576:6673   */\n      tag_52\n      jump\t// in\n    tag_137:\n        /* \"#utility.yul\":6694:6733   */\n      tag_138\n        /* \"#utility.yul\":6724:6732   */\n      dup7\n        /* \"#utility.yul\":6713:6722   */\n      dup4\n        /* \"#utility.yul\":6694:6733   */\n      tag_52\n      jump\t// in\n    tag_138:\n        /* \"#utility.yul\":6682:6733   */\n      swap6\n      pop\n        /* \"#utility.yul\":6766:6770   */\n      dup1\n        /* \"#utility.yul\":6762:6771   */\n      not\n        /* \"#utility.yul\":6755:6760   */\n      dup5\n        /* \"#utility.yul\":6751:6772   */\n      and\n        /* \"#utility.yul\":6742:6772   */\n      swap4\n      pop\n        /* \"#utility.yul\":6815:6819   */\n      dup1\n        /* \"#utility.yul\":6805:6813   */\n      dup7\n        /* \"#utility.yul\":6801:6820   */\n      and\n        /* \"#utility.yul\":6794:6799   */\n      dup5\n        /* \"#utility.yul\":6791:6821   */\n      or\n        /* \"#utility.yul\":6781:6821   */\n      swap3\n      pop\n        /* \"#utility.yul\":6510:6827   */\n      pop\n      pop\n        /* \"#utility.yul\":6434:6827   */\n      swap4\n      swap3\n      pop\n      pop\n      pop\n      jump\t// out\n        /* \"#utility.yul\":6833:6893   */\n    tag_54:\n        /* \"#utility.yul\":6861:6864   */\n      0x00\n        /* \"#utility.yul\":6882:6887   */\n      dup2\n        /* \"#utility.yul\":6875:6887   */\n      swap1\n      pop\n        /* \"#utility.yul\":6833:6893   */\n      swap2\n      swap1\n      pop\n      jump\t// out\n        /* \"#utility.yul\":6899:7041   */\n    tag_55:\n        /* \"#utility.yul\":6949:6958   */\n      0x00\n        /* \"#utility.yul\":6982:7035   */\n      tag_141\n        /* \"#utility.yul\":7000:7034   */\n      tag_142\n        /* \"#utility.yul\":7009:7033   */\n      tag_143\n        /* \"#utility.yul\":7027:7032   */\n      dup5\n        /* \"#utility.yul\":7009:7033   */\n      tag_31\n      jump\t// in\n    tag_143:\n        /* \"#utility.yul\":7000:7034   */\n      tag_54\n      jump\t// in\n    tag_142:\n        /* \"#utility.yul\":6982:7035   */\n      tag_31\n      jump\t// in\n    tag_141:\n        /* \"#utility.yul\":6969:7035   */\n      swap1\n      pop\n        /* \"#utility.yul\":6899:7041   */\n      swap2\n      swap1\n      pop\n      jump\t// out\n        /* \"#utility.yul\":7047:7122   */\n    tag_56:\n        /* \"#utility.yul\":7090:7093   */\n      0x00\n        /* \"#utility.yul\":7111:7116   */\n      dup2\n        /* \"#utility.yul\":7104:7116   */\n      swap1\n      pop\n        /* \"#utility.yul\":7047:7122   */\n      swap2\n      swap1\n      pop\n      jump\t// out\n        /* \"#utility.yul\":7128:7397   */\n    tag_57:\n        /* \"#utility.yul\":7238:7277   */\n      tag_146\n        /* \"#utility.yul\":7269:7276   */\n      dup4\n        /* \"#utility.yul\":7238:7277   */\n      tag_55\n      jump\t// in\n    tag_146:\n        /* \"#utility.yul\":7299:7390   */\n      tag_147\n        /* \"#utility.yul\":7348:7389   */\n      tag_148\n        /* \"#utility.yul\":7372:7388   */\n      dup3\n        /* \"#utility.yul\":7348:7389   */\n      tag_56\n      jump\t// in\n    tag_148:\n        /* \"#utility.yul\":7340:7346   */\n      dup5\n        /* \"#utility.yul\":7333:7337   */\n      dup5\n        /* \"#utility.yul\":7327:7338   */\n      sload\n        /* \"#utility.yul\":7299:7390   */\n      tag_53\n      jump\t// in\n    tag_147:\n        /* \"#utility.yul\":7293:7297   */\n      dup3\n        /* \"#utility.yul\":7286:7391   */\n      sstore\n        /* \"#utility.yul\":7204:7397   */\n      pop\n        /* \"#utility.yul\":7128:7397   */\n      pop\n      pop\n      pop\n      jump\t// out\n        /* \"#utility.yul\":7403:7476   */\n    tag_58:\n        /* \"#utility.yul\":7448:7451   */\n      0x00\n        /* \"#utility.yul\":7403:7476   */\n      swap1\n      jump\t// out\n        /* \"#utility.yul\":7482:7671   */\n    tag_59:\n        /* \"#utility.yul\":7559:7591   */\n      tag_151\n      tag_58\n      jump\t// in\n    tag_151:\n        /* \"#utility.yul\":7600:7665   */\n      tag_152\n        /* \"#utility.yul\":7658:7664   */\n      dup2\n        /* \"#utility.yul\":7650:7656   */\n      dup5\n        /* \"#utility.yul\":7644:7648   */\n      dup5\n        /* \"#utility.yul\":7600:7665   */\n      tag_57\n      jump\t// in\n    tag_152:\n        /* \"#utility.yul\":7535:7671   */\n      pop\n        /* \"#utility.yul\":7482:7671   */\n      pop\n      pop\n      jump\t// out\n        /* \"#utility.yul\":7677:7863   */\n    tag_60:\n        /* \"#utility.yul\":7737:7857   */\n    tag_154:\n        /* \"#utility.yul\":7754:7757   */\n      dup2\n        /* \"#utility.yul\":7747:7752   */\n      dup2\n        /* \"#utility.yul\":7744:7758   */\n      lt\n        /* \"#utility.yul\":7737:7857   */\n      iszero\n      tag_156\n      jumpi\n        /* \"#utility.yul\":7808:7847   */\n      tag_157\n        /* \"#utility.yul\":7845:7846   */\n      0x00\n        /* \"#utility.yul\":7838:7843   */\n      dup3\n        /* \"#utility.yul\":7808:7847   */\n      tag_59\n      jump\t// in\n    tag_157:\n        /* \"#utility.yul\":7781:7782   */\n      0x01\n        /* \"#utility.yul\":7774:7779   */\n      dup2\n        /* \"#utility.yul\":7770:7783   */\n      add\n        /* \"#utility.yul\":7761:7783   */\n      swap1\n      pop\n        /* \"#utility.yul\":7737:7857   */\n      jump(tag_154)\n    tag_156:\n        /* \"#utility.yul\":7677:7863   */\n      pop\n      pop\n      jump\t// out\n        /* \"#utility.yul\":7869:8412   */\n    tag_61:\n        /* \"#utility.yul\":7970:7972   */\n      0x1f\n        /* \"#utility.yul\":7965:7968   */\n      dup3\n        /* \"#utility.yul\":7962:7973   */\n      gt\n        /* \"#utility.yul\":7959:8405   */\n      iszero\n      tag_159\n      jumpi\n        /* \"#utility.yul\":8004:8042   */\n      tag_160\n        /* \"#utility.yul\":8036:8041   */\n      dup2\n        /* \"#utility.yul\":8004:8042   */\n      tag_50\n      jump\t// in\n    tag_160:\n        /* \"#utility.yul\":8088:8117   */\n      tag_161\n        /* \"#utility.yul\":8106:8116   */\n      dup5\n        /* \"#utility.yul\":8088:8117   */\n      tag_51\n      jump\t// in\n    tag_161:\n        /* \"#utility.yul\":8078:8086   */\n      dup2\n        /* \"#utility.yul\":8074:8118   */\n      add\n        /* \"#utility.yul\":8271:8273   */\n      0x20\n        /* \"#utility.yul\":8259:8269   */\n      dup6\n        /* \"#utility.yul\":8256:8274   */\n      lt\n        /* \"#utility.yul\":8253:8302   */\n      iszero\n      tag_162\n      jumpi\n        /* \"#utility.yul\":8292:8300   */\n      dup2\n        /* \"#utility.yul\":8277:8300   */\n      swap1\n      pop\n        /* \"#utility.yul\":8253:8302   */\n    tag_162:\n        /* \"#utility.yul\":8315:8395   */\n      tag_163\n        /* \"#utility.yul\":8371:8393   */\n      tag_164\n        /* \"#utility.yul\":8389:8392   */\n      dup6\n        /* \"#utility.yul\":8371:8393   */\n      tag_51\n      jump\t// in\n    tag_164:\n        /* \"#utility.yul\":8361:8369   */\n      dup4\n        /* \"#utility.yul\":8357:8394   */\n      add\n        /* \"#utility.yul\":8344:8355   */\n      dup3\n        /* \"#utility.yul\":8315:8395   */\n      tag_60\n      jump\t// in\n    tag_163:\n        /* \"#utility.yul\":7974:8405   */\n      pop\n      pop\n        /* \"#utility.yul\":7959:8405   */\n    tag_159:\n        /* \"#utility.yul\":7869:8412   */\n      pop\n      pop\n      pop\n      jump\t// out\n        /* \"#utility.yul\":8418:8535   */\n    tag_62:\n        /* \"#utility.yul\":8472:8480   */\n      0x00\n        /* \"#utility.yul\":8522:8527   */\n      dup3\n        /* \"#utility.yul\":8516:8520   */\n      dup3\n        /* \"#utility.yul\":8512:8528   */\n      shr\n        /* \"#utility.yul\":8491:8528   */\n      swap1\n      pop\n        /* \"#utility.yul\":8418:8535   */\n      swap3\n      swap2\n      pop\n      pop\n      jump\t// out\n        /* \"#utility.yul\":8541:8710   */\n    tag_63:\n        /* \"#utility.yul\":8585:8591   */\n      0x00\n        /* \"#utility.yul\":8618:8669   */\n      tag_167\n        /* \"#utility.yul\":8666:8667   */\n      0x00\n        /* \"#utility.yul\":8662:8668   */\n      not\n        /* \"#utility.yul\":8654:8659   */\n      dup5\n        /* \"#utility.yul\":8651:8652   */\n      0x08\n        /* \"#utility.yul\":8647:8660   */\n      mul\n        /* \"#utility.yul\":8618:8669   */\n      tag_62\n      jump\t// in\n    tag_167:\n        /* \"#utility.yul\":8614:8670   */\n      not\n        /* \"#utility.yul\":8699:8703   */\n      dup1\n        /* \"#utility.yul\":8693:8697   */\n      dup4\n        /* \"#utility.yul\":8689:8704   */\n      and\n        /* \"#utility.yul\":8679:8704   */\n      swap2\n      pop\n        /* \"#utility.yul\":8592:8710   */\n      pop\n        /* \"#utility.yul\":8541:8710   */\n      swap3\n      swap2\n      pop\n      pop\n      jump\t// out\n        /* \"#utility.yul\":8715:9010   */\n    tag_64:\n        /* \"#utility.yul\":8791:8795   */\n      0x00\n        /* \"#utility.yul\":8937:8966   */\n      tag_169\n        /* \"#utility.yul\":8962:8965   */\n      dup4\n        /* \"#utility.yul\":8956:8960   */\n      dup4\n        /* \"#utility.yul\":8937:8966   */\n      tag_63\n      jump\t// in\n    tag_169:\n        /* \"#utility.yul\":8929:8966   */\n      swap2\n      pop\n        /* \"#utility.yul\":8999:9002   */\n      dup3\n        /* \"#utility.yul\":8996:8997   */\n      0x02\n        /* \"#utility.yul\":8992:9003   */\n      mul\n        /* \"#utility.yul\":8986:8990   */\n      dup3\n        /* \"#utility.yul\":8983:9004   */\n      or\n        /* \"#utility.yul\":8975:9004   */\n      swap1\n      pop\n        /* \"#utility.yul\":8715:9010   */\n      swap3\n      swap2\n      pop\n      pop\n      jump\t// out\n        /* \"#utility.yul\":9015:10410   */\n    tag_15:\n        /* \"#utility.yul\":9132:9169   */\n      tag_171\n        /* \"#utility.yul\":9165:9168   */\n      dup3\n        /* \"#utility.yul\":9132:9169   */\n      tag_45\n      jump\t// in\n    tag_171:\n        /* \"#utility.yul\":9234:9252   */\n      0xffffffffffffffff\n        /* \"#utility.yul\":9226:9232   */\n      dup2\n        /* \"#utility.yul\":9223:9253   */\n      gt\n        /* \"#utility.yul\":9220:9276   */\n      iszero\n      tag_172\n      jumpi\n        /* \"#utility.yul\":9256:9274   */\n      tag_173\n      tag_37\n      jump\t// in\n    tag_173:\n        /* \"#utility.yul\":9220:9276   */\n    tag_172:\n        /* \"#utility.yul\":9300:9338   */\n      tag_174\n        /* \"#utility.yul\":9332:9336   */\n      dup3\n        /* \"#utility.yul\":9326:9337   */\n      sload\n        /* \"#utility.yul\":9300:9338   */\n      tag_18\n      jump\t// in\n    tag_174:\n        /* \"#utility.yul\":9385:9452   */\n      tag_175\n        /* \"#utility.yul\":9445:9451   */\n      dup3\n        /* \"#utility.yul\":9437:9443   */\n      dup3\n        /* \"#utility.yul\":9431:9435   */\n      dup6\n        /* \"#utility.yul\":9385:9452   */\n      tag_61\n      jump\t// in\n    tag_175:\n        /* \"#utility.yul\":9479:9480   */\n      0x00\n        /* \"#utility.yul\":9503:9507   */\n      0x20\n        /* \"#utility.yul\":9490:9507   */\n      swap1\n      pop\n        /* \"#utility.yul\":9535:9537   */\n      0x1f\n        /* \"#utility.yul\":9527:9533   */\n      dup4\n        /* \"#utility.yul\":9524:9538   */\n      gt\n        /* \"#utility.yul\":9552:9553   */\n      0x01\n        /* \"#utility.yul\":9547:10165   */\n      dup2\n      eq\n      tag_177\n      jumpi\n        /* \"#utility.yul\":10209:10210   */\n      0x00\n        /* \"#utility.yul\":10226:10232   */\n      dup5\n        /* \"#utility.yul\":10223:10300   */\n      iszero\n      tag_178\n      jumpi\n        /* \"#utility.yul\":10275:10284   */\n      dup3\n        /* \"#utility.yul\":10270:10273   */\n      dup8\n        /* \"#utility.yul\":10266:10285   */\n      add\n        /* \"#utility.yul\":10260:10286   */\n      mload\n        /* \"#utility.yul\":10251:10286   */\n      swap1\n      pop\n        /* \"#utility.yul\":10223:10300   */\n    tag_178:\n        /* \"#utility.yul\":10326:10393   */\n      tag_179\n        /* \"#utility.yul\":10386:10392   */\n      dup6\n        /* \"#utility.yul\":10379:10384   */\n      dup3\n        /* \"#utility.yul\":10326:10393   */\n      tag_64\n      jump\t// in\n    tag_179:\n        /* \"#utility.yul\":10320:10324   */\n      dup7\n        /* \"#utility.yul\":10313:10394   */\n      sstore\n        /* \"#utility.yul\":10182:10404   */\n      pop\n        /* \"#utility.yul\":9517:10404   */\n      jump(tag_176)\n        /* \"#utility.yul\":9547:10165   */\n    tag_177:\n        /* \"#utility.yul\":9599:9603   */\n      0x1f\n        /* \"#utility.yul\":9595:9604   */\n      not\n        /* \"#utility.yul\":9587:9593   */\n      dup5\n        /* \"#utility.yul\":9583:9605   */\n      and\n        /* \"#utility.yul\":9633:9670   */\n      tag_180\n        /* \"#utility.yul\":9665:9669   */\n      dup7\n        /* \"#utility.yul\":9633:9670   */\n      tag_50\n      jump\t// in\n    tag_180:\n        /* \"#utility.yul\":9692:9693   */\n      0x00\n        /* \"#utility.yul\":9706:9914   */\n    tag_181:\n        /* \"#utility.yul\":9720:9727   */\n      dup3\n        /* \"#utility.yul\":9717:9718   */\n      dup2\n        /* \"#utility.yul\":9714:9728   */\n      lt\n        /* \"#utility.yul\":9706:9914   */\n      iszero\n      tag_183\n      jumpi\n        /* \"#utility.yul\":9799:9808   */\n      dup5\n        /* \"#utility.yul\":9794:9797   */\n      dup10\n        /* \"#utility.yul\":9790:9809   */\n      add\n        /* \"#utility.yul\":9784:9810   */\n      mload\n        /* \"#utility.yul\":9776:9782   */\n      dup3\n        /* \"#utility.yul\":9769:9811   */\n      sstore\n        /* \"#utility.yul\":9850:9851   */\n      0x01\n        /* \"#utility.yul\":9842:9848   */\n      dup3\n        /* \"#utility.yul\":9838:9852   */\n      add\n        /* \"#utility.yul\":9828:9852   */\n      swap2\n      pop\n        /* \"#utility.yul\":9897:9899   */\n      0x20\n        /* \"#utility.yul\":9886:9895   */\n      dup6\n        /* \"#utility.yul\":9882:9900   */\n      add\n        /* \"#utility.yul\":9869:9900   */\n      swap5\n      pop\n        /* \"#utility.yul\":9743:9747   */\n      0x20\n        /* \"#utility.yul\":9740:9741   */\n      dup2\n        /* \"#utility.yul\":9736:9748   */\n      add\n        /* \"#utility.yul\":9731:9748   */\n      swap1\n      pop\n        /* \"#utility.yul\":9706:9914   */\n      jump(tag_181)\n    tag_183:\n        /* \"#utility.yul\":9942:9948   */\n      dup7\n        /* \"#utility.yul\":9933:9940   */\n      dup4\n        /* \"#utility.yul\":9930:9949   */\n      lt\n        /* \"#utility.yul\":9927:10106   */\n      iszero\n      tag_184\n      jumpi\n        /* \"#utility.yul\":10000:10009   */\n      dup5\n        /* \"#utility.yul\":9995:9998   */\n      dup10\n        /* \"#utility.yul\":9991:10010   */\n      add\n        /* \"#utility.yul\":9985:10011   */\n      mload\n        /* \"#utility.yul\":10043:10091   */\n      tag_185\n        /* \"#utility.yul\":10085:10089   */\n      0x1f\n        /* \"#utility.yul\":10077:10083   */\n      dup10\n        /* \"#utility.yul\":10073:10090   */\n      and\n        /* \"#utility.yul\":10062:10071   */\n      dup3\n        /* \"#utility.yul\":10043:10091   */\n      tag_63\n      jump\t// in\n    tag_185:\n        /* \"#utility.yul\":10035:10041   */\n      dup4\n        /* \"#utility.yul\":10028:10092   */\n      sstore\n        /* \"#utility.yul\":9950:10106   */\n      pop\n        /* \"#utility.yul\":9927:10106   */\n    tag_184:\n        /* \"#utility.yul\":10152:10153   */\n      0x01\n        /* \"#utility.yul\":10148:10149   */\n      0x02\n        /* \"#utility.yul\":10140:10146   */\n      dup9\n        /* \"#utility.yul\":10136:10150   */\n      mul\n        /* \"#utility.yul\":10132:10154   */\n      add\n        /* \"#utility.yul\":10126:10130   */\n      dup9\n        /* \"#utility.yul\":10119:10155   */\n      sstore\n        /* \"#utility.yul\":9554:10165   */\n      pop\n      pop\n      pop\n        /* \"#utility.yul\":9517:10404   */\n    tag_176:\n      pop\n        /* \"#utility.yul\":9107:10410   */\n      pop\n      pop\n      pop\n        /* \"#utility.yul\":9015:10410   */\n      pop\n      pop\n      jump\t// out\n\n    auxdata: 0xa264697066735822122093dbafc1a9f68da4e3c0a509a3000f00a0dbf627c234acb480e72f51585c066964736f6c63430008120033\n}\n",
				"bytecode": {
					"linkReferences": {},
					"object": "60806040523480156200001157600080fd5b5060405162000de838038062000de8833981810160405281019062000037919062000241565b82600080018190555081600060010190816200005491906200051c565b5080600060020190816200006991906200051c565b5050505062000603565b6000604051905090565b600080fd5b600080fd5b6000819050919050565b6200009c8162000087565b8114620000a857600080fd5b50565b600081519050620000bc8162000091565b92915050565b600080fd5b600080fd5b6000601f19601f8301169050919050565b7f4e487b7100000000000000000000000000000000000000000000000000000000600052604160045260246000fd5b6200011782620000cc565b810181811067ffffffffffffffff82111715620001395762000138620000dd565b5b80604052505050565b60006200014e62000073565b90506200015c82826200010c565b919050565b600067ffffffffffffffff8211156200017f576200017e620000dd565b5b6200018a82620000cc565b9050602081019050919050565b60005b83811015620001b75780820151818401526020810190506200019a565b60008484015250505050565b6000620001da620001d48462000161565b62000142565b905082815260208101848484011115620001f957620001f8620000c7565b5b6200020684828562000197565b509392505050565b600082601f830112620002265762000225620000c2565b5b815162000238848260208601620001c3565b91505092915050565b6000806000606084860312156200025d576200025c6200007d565b5b60006200026d86828701620000ab565b935050602084015167ffffffffffffffff81111562000291576200029062000082565b5b6200029f868287016200020e565b925050604084015167ffffffffffffffff811115620002c357620002c262000082565b5b620002d1868287016200020e565b9150509250925092565b600081519050919050565b7f4e487b7100000000000000000000000000000000000000000000000000000000600052602260045260246000fd5b600060028204905060018216806200032e57607f821691505b602082108103620003445762000343620002e6565b5b50919050565b60008190508160005260206000209050919050565b60006020601f8301049050919050565b600082821b905092915050565b600060088302620003ae7fffffffffffffffffffffffffffffffffffffffffffffffffffffffffffffffff826200036f565b620003ba86836200036f565b95508019841693508086168417925050509392505050565b6000819050919050565b6000620003fd620003f7620003f18462000087565b620003d2565b62000087565b9050919050565b6000819050919050565b6200041983620003dc565b62000431620004288262000404565b8484546200037c565b825550505050565b600090565b6200044862000439565b620004558184846200040e565b505050565b5b818110156200047d57620004716000826200043e565b6001810190506200045b565b5050565b601f821115620004cc5762000496816200034a565b620004a1846200035f565b81016020851015620004b1578190505b620004c9620004c0856200035f565b8301826200045a565b50505b505050565b600082821c905092915050565b6000620004f160001984600802620004d1565b1980831691505092915050565b60006200050c8383620004de565b9150826002028217905092915050565b6200052782620002db565b67ffffffffffffffff811115620005435762000542620000dd565b5b6200054f825462000315565b6200055c82828562000481565b600060209050601f8311600181146200059457600084156200057f578287015190505b6200058b8582620004fe565b865550620005fb565b601f198416620005a4866200034a565b60005b82811015620005ce57848901518255600182019150602085019450602081019050620005a7565b86831015620005ee5784890151620005ea601f891682620004de565b8355505b6001600288020188555050505b505050505050565b6107d580620006136000396000f3fe608060405234801561001057600080fd5b50600436106100365760003560e01c806341d15e081461003b578063699450e814610057575b600080fd5b61005560048036038101906100509190610363565b610077565b005b61005f6100ab565b60405161006e9392919061047c565b60405180910390f35b826000800181905550816000600101908161009291906106cd565b5080600060020190816100a591906106cd565b50505050565b60008060000154908060010180546100c2906104f0565b80601f01602080910402602001604051908101604052809291908181526020018280546100ee906104f0565b801561013b5780601f106101105761010080835404028352916020019161013b565b820191906000526020600020905b81548152906001019060200180831161011e57829003601f168201915b505050505090806002018054610150906104f0565b80601f016020809104026020016040519081016040528092919081815260200182805461017c906104f0565b80156101c95780601f1061019e576101008083540402835291602001916101c9565b820191906000526020600020905b8154815290600101906020018083116101ac57829003601f168201915b5050505050905083565b6000604051905090565b600080fd5b600080fd5b6000819050919050565b6101fa816101e7565b811461020557600080fd5b50565b600081359050610217816101f1565b92915050565b600080fd5b600080fd5b6000601f19601f8301169050919050565b7f4e487b7100000000000000000000000000000000000000000000000000000000600052604160045260246000fd5b61027082610227565b810181811067ffffffffffffffff8211171561028f5761028e610238565b5b80604052505050565b60006102a26101d3565b90506102ae8282610267565b919050565b600067ffffffffffffffff8211156102ce576102cd610238565b5b6102d782610227565b9050602081019050919050565b82818337600083830152505050565b6000610306610301846102b3565b610298565b90508281526020810184848401111561032257610321610222565b5b61032d8482856102e4565b509392505050565b600082601f83011261034a5761034961021d565b5b813561035a8482602086016102f3565b91505092915050565b60008060006060848603121561037c5761037b6101dd565b5b600061038a86828701610208565b935050602084013567ffffffffffffffff8111156103ab576103aa6101e2565b5b6103b786828701610335565b925050604084013567ffffffffffffffff8111156103d8576103d76101e2565b5b6103e486828701610335565b9150509250925092565b6103f7816101e7565b82525050565b600081519050919050565b600082825260208201905092915050565b60005b8381101561043757808201518184015260208101905061041c565b60008484015250505050565b600061044e826103fd565b6104588185610408565b9350610468818560208601610419565b61047181610227565b840191505092915050565b600060608201905061049160008301866103ee565b81810360208301526104a38185610443565b905081810360408301526104b78184610443565b9050949350505050565b7f4e487b7100000000000000000000000000000000000000000000000000000000600052602260045260246000fd5b6000600282049050600182168061050857607f821691505b60208210810361051b5761051a6104c1565b5b50919050565b60008190508160005260206000209050919050565b60006020601f8301049050919050565b600082821b905092915050565b6000600883026105837fffffffffffffffffffffffffffffffffffffffffffffffffffffffffffffffff82610546565b61058d8683610546565b95508019841693508086168417925050509392505050565b6000819050919050565b60006105ca6105c56105c0846101e7565b6105a5565b6101e7565b9050919050565b6000819050919050565b6105e4836105af565b6105f86105f0826105d1565b848454610553565b825550505050565b600090565b61060d610600565b6106188184846105db565b505050565b5b8181101561063c57610631600082610605565b60018101905061061e565b5050565b601f8211156106815761065281610521565b61065b84610536565b8101602085101561066a578190505b61067e61067685610536565b83018261061d565b50505b505050565b600082821c905092915050565b60006106a460001984600802610686565b1980831691505092915050565b60006106bd8383610693565b9150826002028217905092915050565b6106d6826103fd565b67ffffffffffffffff8111156106ef576106ee610238565b5b6106f982546104f0565b610704828285610640565b600060209050601f8311600181146107375760008415610725578287015190505b61072f85826106b1565b865550610797565b601f19841661074586610521565b60005b8281101561076d57848901518255600182019150602085019450602081019050610748565b8683101561078a5784890151610786601f891682610693565b8355505b6001600288020188555050505b50505050505056fea264697066735822122093dbafc1a9f68da4e3c0a509a3000f00a0dbf627c234acb480e72f51585c066964736f6c63430008120033",
					"opcodes": "PUSH1 0x80 PUSH1 0x40 MSTORE CALLVALUE DUP1 ISZERO PUSH3 0x11 JUMPI PUSH1 0x0 DUP1 REVERT JUMPDEST POP PUSH1 0x40 MLOAD PUSH3 0xDE8 CODESIZE SUB DUP1 PUSH3 0xDE8 DUP4 CODECOPY DUP2 DUP2 ADD PUSH1 0x40 MSTORE DUP2 ADD SWAP1 PUSH3 0x37 SWAP2 SWAP1 PUSH3 0x241 JUMP JUMPDEST DUP3 PUSH1 0x0 DUP1 ADD DUP2 SWAP1 SSTORE POP DUP2 PUSH1 0x0 PUSH1 0x1 ADD SWAP1 DUP2 PUSH3 0x54 SWAP2 SWAP1 PUSH3 0x51C JUMP JUMPDEST POP DUP1 PUSH1 0x0 PUSH1 0x2 ADD SWAP1 DUP2 PUSH3 0x69 SWAP2 SWAP1 PUSH3 0x51C JUMP JUMPDEST POP POP POP POP PUSH3 0x603 JUMP JUMPDEST PUSH1 0x0 PUSH1 0x40 MLOAD SWAP1 POP SWAP1 JUMP JUMPDEST PUSH1 0x0 DUP1 REVERT JUMPDEST PUSH1 0x0 DUP1 REVERT JUMPDEST PUSH1 0x0 DUP2 SWAP1 POP SWAP2 SWAP1 POP JUMP JUMPDEST PUSH3 0x9C DUP2 PUSH3 0x87 JUMP JUMPDEST DUP2 EQ PUSH3 0xA8 JUMPI PUSH1 0x0 DUP1 REVERT JUMPDEST POP JUMP JUMPDEST PUSH1 0x0 DUP2 MLOAD SWAP1 POP PUSH3 0xBC DUP2 PUSH3 0x91 JUMP JUMPDEST SWAP3 SWAP2 POP POP JUMP JUMPDEST PUSH1 0x0 DUP1 REVERT JUMPDEST PUSH1 0x0 DUP1 REVERT JUMPDEST PUSH1 0x0 PUSH1 0x1F NOT PUSH1 0x1F DUP4 ADD AND SWAP1 POP SWAP2 SWAP1 POP JUMP JUMPDEST PUSH32 0x4E487B7100000000000000000000000000000000000000000000000000000000 PUSH1 0x0 MSTORE PUSH1 0x41 PUSH1 0x4 MSTORE PUSH1 0x24 PUSH1 0x0 REVERT JUMPDEST PUSH3 0x117 DUP3 PUSH3 0xCC JUMP JUMPDEST DUP2 ADD DUP2 DUP2 LT PUSH8 0xFFFFFFFFFFFFFFFF DUP3 GT OR ISZERO PUSH3 0x139 JUMPI PUSH3 0x138 PUSH3 0xDD JUMP JUMPDEST JUMPDEST DUP1 PUSH1 0x40 MSTORE POP POP POP JUMP JUMPDEST PUSH1 0x0 PUSH3 0x14E PUSH3 0x73 JUMP JUMPDEST SWAP1 POP PUSH3 0x15C DUP3 DUP3 PUSH3 0x10C JUMP JUMPDEST SWAP2 SWAP1 POP JUMP JUMPDEST PUSH1 0x0 PUSH8 0xFFFFFFFFFFFFFFFF DUP3 GT ISZERO PUSH3 0x17F JUMPI PUSH3 0x17E PUSH3 0xDD JUMP JUMPDEST JUMPDEST PUSH3 0x18A DUP3 PUSH3 0xCC JUMP JUMPDEST SWAP1 POP PUSH1 0x20 DUP2 ADD SWAP1 POP SWAP2 SWAP1 POP JUMP JUMPDEST PUSH1 0x0 JUMPDEST DUP4 DUP2 LT ISZERO PUSH3 0x1B7 JUMPI DUP1 DUP3 ADD MLOAD DUP2 DUP5 ADD MSTORE PUSH1 0x20 DUP2 ADD SWAP1 POP PUSH3 0x19A JUMP JUMPDEST PUSH1 0x0 DUP5 DUP5 ADD MSTORE POP POP POP POP JUMP JUMPDEST PUSH1 0x0 PUSH3 0x1DA PUSH3 0x1D4 DUP5 PUSH3 0x161 JUMP JUMPDEST PUSH3 0x142 JUMP JUMPDEST SWAP1 POP DUP3 DUP2 MSTORE PUSH1 0x20 DUP2 ADD DUP5 DUP5 DUP5 ADD GT ISZERO PUSH3 0x1F9 JUMPI PUSH3 0x1F8 PUSH3 0xC7 JUMP JUMPDEST JUMPDEST PUSH3 0x206 DUP5 DUP3 DUP6 PUSH3 0x197 JUMP JUMPDEST POP SWAP4 SWAP3 POP POP POP JUMP JUMPDEST PUSH1 0x0 DUP3 PUSH1 0x1F DUP4 ADD SLT PUSH3 0x226 JUMPI PUSH3 0x225 PUSH3 0xC2 JUMP JUMPDEST JUMPDEST DUP2 MLOAD PUSH3 0x238 DUP5 DUP3 PUSH1 0x20 DUP7 ADD PUSH3 0x1C3 JUMP JUMPDEST SWAP2 POP POP SWAP3 SWAP2 POP POP JUMP JUMPDEST PUSH1 0x0 DUP1 PUSH1 0x0 PUSH1 0x60 DUP5 DUP7 SUB SLT ISZERO PUSH3 0x25D JUMPI PUSH3 0x25C PUSH3 0x7D JUMP JUMPDEST JUMPDEST PUSH1 0x0 PUSH3 0x26D DUP7 DUP3 DUP8 ADD PUSH3 0xAB JUMP JUMPDEST SWAP4 POP POP PUSH1 0x20 DUP5 ADD MLOAD PUSH8 0xFFFFFFFFFFFFFFFF DUP2 GT ISZERO PUSH3 0x291 JUMPI PUSH3 0x290 PUSH3 0x82 JUMP JUMPDEST JUMPDEST PUSH3 0x29F DUP7 DUP3 DUP8 ADD PUSH3 0x20E JUMP JUMPDEST SWAP3 POP POP PUSH1 0x40 DUP5 ADD MLOAD PUSH8 0xFFFFFFFFFFFFFFFF DUP2 GT ISZERO PUSH3 0x2C3 JUMPI PUSH3 0x2C2 PUSH3 0x82 JUMP JUMPDEST JUMPDEST PUSH3 0x2D1 DUP7 DUP3 DUP8 ADD PUSH3 0x20E JUMP JUMPDEST SWAP2 POP POP SWAP3 POP SWAP3 POP SWAP3 JUMP JUMPDEST PUSH1 0x0 DUP2 MLOAD SWAP1 POP SWAP2 SWAP1 POP JUMP JUMPDEST PUSH32 0x4E487B7100000000000000000000000000000000000000000000000000000000 PUSH1 0x0 MSTORE PUSH1 0x22 PUSH1 0x4 MSTORE PUSH1 0x24 PUSH1 0x0 REVERT JUMPDEST PUSH1 0x0 PUSH1 0x2 DUP3 DIV SWAP1 POP PUSH1 0x1 DUP3 AND DUP1 PUSH3 0x32E JUMPI PUSH1 0x7F DUP3 AND SWAP2 POP JUMPDEST PUSH1 0x20 DUP3 LT DUP2 SUB PUSH3 0x344 JUMPI PUSH3 0x343 PUSH3 0x2E6 JUMP JUMPDEST JUMPDEST POP SWAP2 SWAP1 POP JUMP JUMPDEST PUSH1 0x0 DUP2 SWAP1 POP DUP2 PUSH1 0x0 MSTORE PUSH1 0x20 PUSH1 0x0 KECCAK256 SWAP1 POP SWAP2 SWAP1 POP JUMP JUMPDEST PUSH1 0x0 PUSH1 0x20 PUSH1 0x1F DUP4 ADD DIV SWAP1 POP SWAP2 SWAP1 POP JUMP JUMPDEST PUSH1 0x0 DUP3 DUP3 SHL SWAP1 POP SWAP3 SWAP2 POP POP JUMP JUMPDEST PUSH1 0x0 PUSH1 0x8 DUP4 MUL PUSH3 0x3AE PUSH32 0xFFFFFFFFFFFFFFFFFFFFFFFFFFFFFFFFFFFFFFFFFFFFFFFFFFFFFFFFFFFFFFFF DUP3 PUSH3 0x36F JUMP JUMPDEST PUSH3 0x3BA DUP7 DUP4 PUSH3 0x36F JUMP JUMPDEST SWAP6 POP DUP1 NOT DUP5 AND SWAP4 POP DUP1 DUP7 AND DUP5 OR SWAP3 POP POP POP SWAP4 SWAP3 POP POP POP JUMP JUMPDEST PUSH1 0x0 DUP2 SWAP1 POP SWAP2 SWAP1 POP JUMP JUMPDEST PUSH1 0x0 PUSH3 0x3FD PUSH3 0x3F7 PUSH3 0x3F1 DUP5 PUSH3 0x87 JUMP JUMPDEST PUSH3 0x3D2 JUMP JUMPDEST PUSH3 0x87 JUMP JUMPDEST SWAP1 POP SWAP2 SWAP1 POP JUMP JUMPDEST PUSH1 0x0 DUP2 SWAP1 POP SWAP2 SWAP1 POP JUMP JUMPDEST PUSH3 0x419 DUP4 PUSH3 0x3DC JUMP JUMPDEST PUSH3 0x431 PUSH3 0x428 DUP3 PUSH3 0x404 JUMP JUMPDEST DUP5 DUP5 SLOAD PUSH3 0x37C JUMP JUMPDEST DUP3 SSTORE POP POP POP POP JUMP JUMPDEST PUSH1 0x0 SWAP1 JUMP JUMPDEST PUSH3 0x448 PUSH3 0x439 JUMP JUMPDEST PUSH3 0x455 DUP2 DUP5 DUP5 PUSH3 0x40E JUMP JUMPDEST POP POP POP JUMP JUMPDEST JUMPDEST DUP2 DUP2 LT ISZERO PUSH3 0x47D JUMPI PUSH3 0x471 PUSH1 0x0 DUP3 PUSH3 0x43E JUMP JUMPDEST PUSH1 0x1 DUP2 ADD SWAP1 POP PUSH3 0x45B JUMP JUMPDEST POP POP JUMP JUMPDEST PUSH1 0x1F DUP3 GT ISZERO PUSH3 0x4CC JUMPI PUSH3 0x496 DUP2 PUSH3 0x34A JUMP JUMPDEST PUSH3 0x4A1 DUP5 PUSH3 0x35F JUMP JUMPDEST DUP2 ADD PUSH1 0x20 DUP6 LT ISZERO PUSH3 0x4B1 JUMPI DUP2 SWAP1 POP JUMPDEST PUSH3 0x4C9 PUSH3 0x4C0 DUP6 PUSH3 0x35F JUMP JUMPDEST DUP4 ADD DUP3 PUSH3 0x45A JUMP JUMPDEST POP POP JUMPDEST POP POP POP JUMP JUMPDEST PUSH1 0x0 DUP3 DUP3 SHR SWAP1 POP SWAP3 SWAP2 POP POP JUMP JUMPDEST PUSH1 0x0 PUSH3 0x4F1 PUSH1 0x0 NOT DUP5 PUSH1 0x8 MUL PUSH3 0x4D1 JUMP JUMPDEST NOT DUP1 DUP4 AND SWAP2 POP POP SWAP3 SWAP2 POP POP JUMP JUMPDEST PUSH1 0x0 PUSH3 0x50C DUP4 DUP4 PUSH3 0x4DE JUMP JUMPDEST SWAP2 POP DUP3 PUSH1 0x2 MUL DUP3 OR SWAP1 POP SWAP3 SWAP2 POP POP JUMP JUMPDEST PUSH3 0x527 DUP3 PUSH3 0x2DB JUMP JUMPDEST PUSH8 0xFFFFFFFFFFFFFFFF DUP2 GT ISZERO PUSH3 0x543 JUMPI PUSH3 0x542 PUSH3 0xDD JUMP JUMPDEST JUMPDEST PUSH3 0x54F DUP3 SLOAD PUSH3 0x315 JUMP JUMPDEST PUSH3 0x55C DUP3 DUP3 DUP6 PUSH3 0x481 JUMP JUMPDEST PUSH1 0x0 PUSH1 0x20 SWAP1 POP PUSH1 0x1F DUP4 GT PUSH1 0x1 DUP2 EQ PUSH3 0x594 JUMPI PUSH1 0x0 DUP5 ISZERO PUSH3 0x57F JUMPI DUP3 DUP8 ADD MLOAD SWAP1 POP JUMPDEST PUSH3 0x58B DUP6 DUP3 PUSH3 0x4FE JUMP JUMPDEST DUP7 SSTORE POP PUSH3 0x5FB JUMP JUMPDEST PUSH1 0x1F NOT DUP5 AND PUSH3 0x5A4 DUP7 PUSH3 0x34A JUMP JUMPDEST PUSH1 0x0 JUMPDEST DUP3 DUP2 LT ISZERO PUSH3 0x5CE JUMPI DUP5 DUP10 ADD MLOAD DUP3 SSTORE PUSH1 0x1 DUP3 ADD SWAP2 POP PUSH1 0x20 DUP6 ADD SWAP5 POP PUSH1 0x20 DUP2 ADD SWAP1 POP PUSH3 0x5A7 JUMP JUMPDEST DUP7 DUP4 LT ISZERO PUSH3 0x5EE JUMPI DUP5 DUP10 ADD MLOAD PUSH3 0x5EA PUSH1 0x1F DUP10 AND DUP3 PUSH3 0x4DE JUMP JUMPDEST DUP4 SSTORE POP JUMPDEST PUSH1 0x1 PUSH1 0x2 DUP9 MUL ADD DUP9 SSTORE POP POP POP JUMPDEST POP POP POP POP POP POP JUMP JUMPDEST PUSH2 0x7D5 DUP1 PUSH3 0x613 PUSH1 0x0 CODECOPY PUSH1 0x0 RETURN INVALID PUSH1 0x80 PUSH1 0x40 MSTORE CALLVALUE DUP1 ISZERO PUSH2 0x10 JUMPI PUSH1 0x0 DUP1 REVERT JUMPDEST POP PUSH1 0x4 CALLDATASIZE LT PUSH2 0x36 JUMPI PUSH1 0x0 CALLDATALOAD PUSH1 0xE0 SHR DUP1 PUSH4 0x41D15E08 EQ PUSH2 0x3B JUMPI DUP1 PUSH4 0x699450E8 EQ PUSH2 0x57 JUMPI JUMPDEST PUSH1 0x0 DUP1 REVERT JUMPDEST PUSH2 0x55 PUSH1 0x4 DUP1 CALLDATASIZE SUB DUP2 ADD SWAP1 PUSH2 0x50 SWAP2 SWAP1 PUSH2 0x363 JUMP JUMPDEST PUSH2 0x77 JUMP JUMPDEST STOP JUMPDEST PUSH2 0x5F PUSH2 0xAB JUMP JUMPDEST PUSH1 0x40 MLOAD PUSH2 0x6E SWAP4 SWAP3 SWAP2 SWAP1 PUSH2 0x47C JUMP JUMPDEST PUSH1 0x40 MLOAD DUP1 SWAP2 SUB SWAP1 RETURN JUMPDEST DUP3 PUSH1 0x0 DUP1 ADD DUP2 SWAP1 SSTORE POP DUP2 PUSH1 0x0 PUSH1 0x1 ADD SWAP1 DUP2 PUSH2 0x92 SWAP2 SWAP1 PUSH2 0x6CD JUMP JUMPDEST POP DUP1 PUSH1 0x0 PUSH1 0x2 ADD SWAP1 DUP2 PUSH2 0xA5 SWAP2 SWAP1 PUSH2 0x6CD JUMP JUMPDEST POP POP POP POP JUMP JUMPDEST PUSH1 0x0 DUP1 PUSH1 0x0 ADD SLOAD SWAP1 DUP1 PUSH1 0x1 ADD DUP1 SLOAD PUSH2 0xC2 SWAP1 PUSH2 0x4F0 JUMP JUMPDEST DUP1 PUSH1 0x1F ADD PUSH1 0x20 DUP1 SWAP2 DIV MUL PUSH1 0x20 ADD PUSH1 0x40 MLOAD SWAP1 DUP2 ADD PUSH1 0x40 MSTORE DUP1 SWAP3 SWAP2 SWAP1 DUP2 DUP2 MSTORE PUSH1 0x20 ADD DUP3 DUP1 SLOAD PUSH2 0xEE SWAP1 PUSH2 0x4F0 JUMP JUMPDEST DUP1 ISZERO PUSH2 0x13B JUMPI DUP1 PUSH1 0x1F LT PUSH2 0x110 JUMPI PUSH2 0x100 DUP1 DUP4 SLOAD DIV MUL DUP4 MSTORE SWAP2 PUSH1 0x20 ADD SWAP2 PUSH2 0x13B JUMP JUMPDEST DUP3 ADD SWAP2 SWAP1 PUSH1 0x0 MSTORE PUSH1 0x20 PUSH1 0x0 KECCAK256 SWAP1 JUMPDEST DUP2 SLOAD DUP2 MSTORE SWAP1 PUSH1 0x1 ADD SWAP1 PUSH1 0x20 ADD DUP1 DUP4 GT PUSH2 0x11E JUMPI DUP3 SWAP1 SUB PUSH1 0x1F AND DUP3 ADD SWAP2 JUMPDEST POP POP POP POP POP SWAP1 DUP1 PUSH1 0x2 ADD DUP1 SLOAD PUSH2 0x150 SWAP1 PUSH2 0x4F0 JUMP JUMPDEST DUP1 PUSH1 0x1F ADD PUSH1 0x20 DUP1 SWAP2 DIV MUL PUSH1 0x20 ADD PUSH1 0x40 MLOAD SWAP1 DUP2 ADD PUSH1 0x40 MSTORE DUP1 SWAP3 SWAP2 SWAP1 DUP2 DUP2 MSTORE PUSH1 0x20 ADD DUP3 DUP1 SLOAD PUSH2 0x17C SWAP1 PUSH2 0x4F0 JUMP JUMPDEST DUP1 ISZERO PUSH2 0x1C9 JUMPI DUP1 PUSH1 0x1F LT PUSH2 0x19E JUMPI PUSH2 0x100 DUP1 DUP4 SLOAD DIV MUL DUP4 MSTORE SWAP2 PUSH1 0x20 ADD SWAP2 PUSH2 0x1C9 JUMP JUMPDEST DUP3 ADD SWAP2 SWAP1 PUSH1 0x0 MSTORE PUSH1 0x20 PUSH1 0x0 KECCAK256 SWAP1 JUMPDEST DUP2 SLOAD DUP2 MSTORE SWAP1 PUSH1 0x1 ADD SWAP1 PUSH1 0x20 ADD DUP1 DUP4 GT PUSH2 0x1AC JUMPI DUP3 SWAP1 SUB PUSH1 0x1F AND DUP3 ADD SWAP2 JUMPDEST POP POP POP POP POP SWAP1 POP DUP4 JUMP JUMPDEST PUSH1 0x0 PUSH1 0x40 MLOAD SWAP1 POP SWAP1 JUMP JUMPDEST PUSH1 0x0 DUP1 REVERT JUMPDEST PUSH1 0x0 DUP1 REVERT JUMPDEST PUSH1 0x0 DUP2 SWAP1 POP SWAP2 SWAP1 POP JUMP JUMPDEST PUSH2 0x1FA DUP2 PUSH2 0x1E7 JUMP JUMPDEST DUP2 EQ PUSH2 0x205 JUMPI PUSH1 0x0 DUP1 REVERT JUMPDEST POP JUMP JUMPDEST PUSH1 0x0 DUP2 CALLDATALOAD SWAP1 POP PUSH2 0x217 DUP2 PUSH2 0x1F1 JUMP JUMPDEST SWAP3 SWAP2 POP POP JUMP JUMPDEST PUSH1 0x0 DUP1 REVERT JUMPDEST PUSH1 0x0 DUP1 REVERT JUMPDEST PUSH1 0x0 PUSH1 0x1F NOT PUSH1 0x1F DUP4 ADD AND SWAP1 POP SWAP2 SWAP1 POP JUMP JUMPDEST PUSH32 0x4E487B7100000000000000000000000000000000000000000000000000000000 PUSH1 0x0 MSTORE PUSH1 0x41 PUSH1 0x4 MSTORE PUSH1 0x24 PUSH1 0x0 REVERT JUMPDEST PUSH2 0x270 DUP3 PUSH2 0x227 JUMP JUMPDEST DUP2 ADD DUP2 DUP2 LT PUSH8 0xFFFFFFFFFFFFFFFF DUP3 GT OR ISZERO PUSH2 0x28F JUMPI PUSH2 0x28E PUSH2 0x238 JUMP JUMPDEST JUMPDEST DUP1 PUSH1 0x40 MSTORE POP POP POP JUMP JUMPDEST PUSH1 0x0 PUSH2 0x2A2 PUSH2 0x1D3 JUMP JUMPDEST SWAP1 POP PUSH2 0x2AE DUP3 DUP3 PUSH2 0x267 JUMP JUMPDEST SWAP2 SWAP1 POP JUMP JUMPDEST PUSH1 0x0 PUSH8 0xFFFFFFFFFFFFFFFF DUP3 GT ISZERO PUSH2 0x2CE JUMPI PUSH2 0x2CD PUSH2 0x238 JUMP JUMPDEST JUMPDEST PUSH2 0x2D7 DUP3 PUSH2 0x227 JUMP JUMPDEST SWAP1 POP PUSH1 0x20 DUP2 ADD SWAP1 POP SWAP2 SWAP1 POP JUMP JUMPDEST DUP3 DUP2 DUP4 CALLDATACOPY PUSH1 0x0 DUP4 DUP4 ADD MSTORE POP POP POP JUMP JUMPDEST PUSH1 0x0 PUSH2 0x306 PUSH2 0x301 DUP5 PUSH2 0x2B3 JUMP JUMPDEST PUSH2 0x298 JUMP JUMPDEST SWAP1 POP DUP3 DUP2 MSTORE PUSH1 0x20 DUP2 ADD DUP5 DUP5 DUP5 ADD GT ISZERO PUSH2 0x322 JUMPI PUSH2 0x321 PUSH2 0x222 JUMP JUMPDEST JUMPDEST PUSH2 0x32D DUP5 DUP3 DUP6 PUSH2 0x2E4 JUMP JUMPDEST POP SWAP4 SWAP3 POP POP POP JUMP JUMPDEST PUSH1 0x0 DUP3 PUSH1 0x1F DUP4 ADD SLT PUSH2 0x34A JUMPI PUSH2 0x349 PUSH2 0x21D JUMP JUMPDEST JUMPDEST DUP2 CALLDATALOAD PUSH2 0x35A DUP5 DUP3 PUSH1 0x20 DUP7 ADD PUSH2 0x2F3 JUMP JUMPDEST SWAP2 POP POP SWAP3 SWAP2 POP POP JUMP JUMPDEST PUSH1 0x0 DUP1 PUSH1 0x0 PUSH1 0x60 DUP5 DUP7 SUB SLT ISZERO PUSH2 0x37C JUMPI PUSH2 0x37B PUSH2 0x1DD JUMP JUMPDEST JUMPDEST PUSH1 0x0 PUSH2 0x38A DUP7 DUP3 DUP8 ADD PUSH2 0x208 JUMP JUMPDEST SWAP4 POP POP PUSH1 0x20 DUP5 ADD CALLDATALOAD PUSH8 0xFFFFFFFFFFFFFFFF DUP2 GT ISZERO PUSH2 0x3AB JUMPI PUSH2 0x3AA PUSH2 0x1E2 JUMP JUMPDEST JUMPDEST PUSH2 0x3B7 DUP7 DUP3 DUP8 ADD PUSH2 0x335 JUMP JUMPDEST SWAP3 POP POP PUSH1 0x40 DUP5 ADD CALLDATALOAD PUSH8 0xFFFFFFFFFFFFFFFF DUP2 GT ISZERO PUSH2 0x3D8 JUMPI PUSH2 0x3D7 PUSH2 0x1E2 JUMP JUMPDEST JUMPDEST PUSH2 0x3E4 DUP7 DUP3 DUP8 ADD PUSH2 0x335 JUMP JUMPDEST SWAP2 POP POP SWAP3 POP SWAP3 POP SWAP3 JUMP JUMPDEST PUSH2 0x3F7 DUP2 PUSH2 0x1E7 JUMP JUMPDEST DUP3 MSTORE POP POP JUMP JUMPDEST PUSH1 0x0 DUP2 MLOAD SWAP1 POP SWAP2 SWAP1 POP JUMP JUMPDEST PUSH1 0x0 DUP3 DUP3 MSTORE PUSH1 0x20 DUP3 ADD SWAP1 POP SWAP3 SWAP2 POP POP JUMP JUMPDEST PUSH1 0x0 JUMPDEST DUP4 DUP2 LT ISZERO PUSH2 0x437 JUMPI DUP1 DUP3 ADD MLOAD DUP2 DUP5 ADD MSTORE PUSH1 0x20 DUP2 ADD SWAP1 POP PUSH2 0x41C JUMP JUMPDEST PUSH1 0x0 DUP5 DUP5 ADD MSTORE POP POP POP POP JUMP JUMPDEST PUSH1 0x0 PUSH2 0x44E DUP3 PUSH2 0x3FD JUMP JUMPDEST PUSH2 0x458 DUP2 DUP6 PUSH2 0x408 JUMP JUMPDEST SWAP4 POP PUSH2 0x468 DUP2 DUP6 PUSH1 0x20 DUP7 ADD PUSH2 0x419 JUMP JUMPDEST PUSH2 0x471 DUP2 PUSH2 0x227 JUMP JUMPDEST DUP5 ADD SWAP2 POP POP SWAP3 SWAP2 POP POP JUMP JUMPDEST PUSH1 0x0 PUSH1 0x60 DUP3 ADD SWAP1 POP PUSH2 0x491 PUSH1 0x0 DUP4 ADD DUP7 PUSH2 0x3EE JUMP JUMPDEST DUP2 DUP2 SUB PUSH1 0x20 DUP4 ADD MSTORE PUSH2 0x4A3 DUP2 DUP6 PUSH2 0x443 JUMP JUMPDEST SWAP1 POP DUP2 DUP2 SUB PUSH1 0x40 DUP4 ADD MSTORE PUSH2 0x4B7 DUP2 DUP5 PUSH2 0x443 JUMP JUMPDEST SWAP1 POP SWAP5 SWAP4 POP POP POP POP JUMP JUMPDEST PUSH32 0x4E487B7100000000000000000000000000000000000000000000000000000000 PUSH1 0x0 MSTORE PUSH1 0x22 PUSH1 0x4 MSTORE PUSH1 0x24 PUSH1 0x0 REVERT JUMPDEST PUSH1 0x0 PUSH1 0x2 DUP3 DIV SWAP1 POP PUSH1 0x1 DUP3 AND DUP1 PUSH2 0x508 JUMPI PUSH1 0x7F DUP3 AND SWAP2 POP JUMPDEST PUSH1 0x20 DUP3 LT DUP2 SUB PUSH2 0x51B JUMPI PUSH2 0x51A PUSH2 0x4C1 JUMP JUMPDEST JUMPDEST POP SWAP2 SWAP1 POP JUMP JUMPDEST PUSH1 0x0 DUP2 SWAP1 POP DUP2 PUSH1 0x0 MSTORE PUSH1 0x20 PUSH1 0x0 KECCAK256 SWAP1 POP SWAP2 SWAP1 POP JUMP JUMPDEST PUSH1 0x0 PUSH1 0x20 PUSH1 0x1F DUP4 ADD DIV SWAP1 POP SWAP2 SWAP1 POP JUMP JUMPDEST PUSH1 0x0 DUP3 DUP3 SHL SWAP1 POP SWAP3 SWAP2 POP POP JUMP JUMPDEST PUSH1 0x0 PUSH1 0x8 DUP4 MUL PUSH2 0x583 PUSH32 0xFFFFFFFFFFFFFFFFFFFFFFFFFFFFFFFFFFFFFFFFFFFFFFFFFFFFFFFFFFFFFFFF DUP3 PUSH2 0x546 JUMP JUMPDEST PUSH2 0x58D DUP7 DUP4 PUSH2 0x546 JUMP JUMPDEST SWAP6 POP DUP1 NOT DUP5 AND SWAP4 POP DUP1 DUP7 AND DUP5 OR SWAP3 POP POP POP SWAP4 SWAP3 POP POP POP JUMP JUMPDEST PUSH1 0x0 DUP2 SWAP1 POP SWAP2 SWAP1 POP JUMP JUMPDEST PUSH1 0x0 PUSH2 0x5CA PUSH2 0x5C5 PUSH2 0x5C0 DUP5 PUSH2 0x1E7 JUMP JUMPDEST PUSH2 0x5A5 JUMP JUMPDEST PUSH2 0x1E7 JUMP JUMPDEST SWAP1 POP SWAP2 SWAP1 POP JUMP JUMPDEST PUSH1 0x0 DUP2 SWAP1 POP SWAP2 SWAP1 POP JUMP JUMPDEST PUSH2 0x5E4 DUP4 PUSH2 0x5AF JUMP JUMPDEST PUSH2 0x5F8 PUSH2 0x5F0 DUP3 PUSH2 0x5D1 JUMP JUMPDEST DUP5 DUP5 SLOAD PUSH2 0x553 JUMP JUMPDEST DUP3 SSTORE POP POP POP POP JUMP JUMPDEST PUSH1 0x0 SWAP1 JUMP JUMPDEST PUSH2 0x60D PUSH2 0x600 JUMP JUMPDEST PUSH2 0x618 DUP2 DUP5 DUP5 PUSH2 0x5DB JUMP JUMPDEST POP POP POP JUMP JUMPDEST JUMPDEST DUP2 DUP2 LT ISZERO PUSH2 0x63C JUMPI PUSH2 0x631 PUSH1 0x0 DUP3 PUSH2 0x605 JUMP JUMPDEST PUSH1 0x1 DUP2 ADD SWAP1 POP PUSH2 0x61E JUMP JUMPDEST POP POP JUMP JUMPDEST PUSH1 0x1F DUP3 GT ISZERO PUSH2 0x681 JUMPI PUSH2 0x652 DUP2 PUSH2 0x521 JUMP JUMPDEST PUSH2 0x65B DUP5 PUSH2 0x536 JUMP JUMPDEST DUP2 ADD PUSH1 0x20 DUP6 LT ISZERO PUSH2 0x66A JUMPI DUP2 SWAP1 POP JUMPDEST PUSH2 0x67E PUSH2 0x676 DUP6 PUSH2 0x536 JUMP JUMPDEST DUP4 ADD DUP3 PUSH2 0x61D JUMP JUMPDEST POP POP JUMPDEST POP POP POP JUMP JUMPDEST PUSH1 0x0 DUP3 DUP3 SHR SWAP1 POP SWAP3 SWAP2 POP POP JUMP JUMPDEST PUSH1 0x0 PUSH2 0x6A4 PUSH1 0x0 NOT DUP5 PUSH1 0x8 MUL PUSH2 0x686 JUMP JUMPDEST NOT DUP1 DUP4 AND SWAP2 POP POP SWAP3 SWAP2 POP POP JUMP JUMPDEST PUSH1 0x0 PUSH2 0x6BD DUP4 DUP4 PUSH2 0x693 JUMP JUMPDEST SWAP2 POP DUP3 PUSH1 0x2 MUL DUP3 OR SWAP1 POP SWAP3 SWAP2 POP POP JUMP JUMPDEST PUSH2 0x6D6 DUP3 PUSH2 0x3FD JUMP JUMPDEST PUSH8 0xFFFFFFFFFFFFFFFF DUP2 GT ISZERO PUSH2 0x6EF JUMPI PUSH2 0x6EE PUSH2 0x238 JUMP JUMPDEST JUMPDEST PUSH2 0x6F9 DUP3 SLOAD PUSH2 0x4F0 JUMP JUMPDEST PUSH2 0x704 DUP3 DUP3 DUP6 PUSH2 0x640 JUMP JUMPDEST PUSH1 0x0 PUSH1 0x20 SWAP1 POP PUSH1 0x1F DUP4 GT PUSH1 0x1 DUP2 EQ PUSH2 0x737 JUMPI PUSH1 0x0 DUP5 ISZERO PUSH2 0x725 JUMPI DUP3 DUP8 ADD MLOAD SWAP1 POP JUMPDEST PUSH2 0x72F DUP6 DUP3 PUSH2 0x6B1 JUMP JUMPDEST DUP7 SSTORE POP PUSH2 0x797 JUMP JUMPDEST PUSH1 0x1F NOT DUP5 AND PUSH2 0x745 DUP7 PUSH2 0x521 JUMP JUMPDEST PUSH1 0x0 JUMPDEST DUP3 DUP2 LT ISZERO PUSH2 0x76D JUMPI DUP5 DUP10 ADD MLOAD DUP3 SSTORE PUSH1 0x1 DUP3 ADD SWAP2 POP PUSH1 0x20 DUP6 ADD SWAP5 POP PUSH1 0x20 DUP2 ADD SWAP1 POP PUSH2 0x748 JUMP JUMPDEST DUP7 DUP4 LT ISZERO PUSH2 0x78A JUMPI DUP5 DUP10 ADD MLOAD PUSH2 0x786 PUSH1 0x1F DUP10 AND DUP3 PUSH2 0x693 JUMP JUMPDEST DUP4 SSTORE POP JUMPDEST PUSH1 0x1 PUSH1 0x2 DUP9 MUL ADD DUP9 SSTORE POP POP POP JUMPDEST POP POP POP POP POP POP JUMP INVALID LOG2 PUSH5 0x6970667358 0x22 SLT KECCAK256 SWAP4 0xDB 0xAF 0xC1 0xA9 0xF6 DUP14 LOG4 0xE3 0xC0 0xA5 MULMOD LOG3 STOP 0xF STOP LOG0 0xDB 0xF6 0x27 0xC2 CALLVALUE 0xAC 0xB4 DUP1 0xE7 0x2F MLOAD PC 0x5C MOD PUSH10 0x64736F6C634300081200 CALLER "
				},
				"gasEstimates": {
					"creation": {
						"codeDepositCost": "401000",
						"executionCost": "infinite",
						"totalCost": "infinite"
					},
					"external": {
						"changeStructureValue(uint256,string,string)": "infinite",
						"student()": "infinite"
					}
				},
				"methodIdentifiers": {
					"changeStructureValue(uint256,string,string)": "41d15e08",
					"student()": "699450e8"
				}
			},
			"storageLayout": {
				"storage": [
					{
						"astId": 11,
						"contract": "3_structure.sol:Structure",
						"label": "student",
						"offset": 0,
						"slot": "0",
						"type": "t_struct(Student)8_storage"
					}
				],
				"types": {
					"t_string_storage": {
						"encoding": "bytes",
						"label": "string",
						"numberOfBytes": "32"
					},
					"t_struct(Student)8_storage": {
						"encoding": "inplace",
						"label": "struct Structure.Student",
						"members": [
							{
								"astId": 3,
								"contract": "3_structure.sol:Structure",
								"label": "roll",
								"offset": 0,
								"slot": "0",
								"type": "t_uint256"
							},
							{
								"astId": 5,
								"contract": "3_structure.sol:Structure",
								"label": "name",
								"offset": 0,
								"slot": "1",
								"type": "t_string_storage"
							},
							{
								"astId": 7,
								"contract": "3_structure.sol:Structure",
								"label": "class",
								"offset": 0,
								"slot": "2",
								"type": "t_string_storage"
							}
						],
						"numberOfBytes": "96"
					},
					"t_uint256": {
						"encoding": "inplace",
						"label": "uint256",
						"numberOfBytes": "32"
					}
				}
			},
			"userdoc": {
				"kind": "user",
				"methods": {},
				"version": 1
			}
		}
	}
}