{
	"data": {
		"bytecode": {
			"linkReferences": {},
			"object": "60806040526001600055633b9aca00600155670de0b6b3a764000060025534801561002957600080fd5b50610107806100396000396000f3fe6080604052348015600f57600080fd5b5060043610603c5760003560e01c806318482e0f1460415780637ae416c314605b578063e2c3a75b146075575b600080fd5b6047608f565b6040516052919060b8565b60405180910390f35b60616095565b604051606c919060b8565b60405180910390f35b607b609b565b6040516086919060b8565b60405180910390f35b60025481565b60005481565b60015481565b6000819050919050565b60b28160a1565b82525050565b600060208201905060cb600083018460ab565b9291505056fea2646970667358221220aa0a36bb91942c53aa54a45a583ed31b5e47cf2856208c8410757c1725ab412964736f6c63430008120033",
			"opcodes": "PUSH1 0x80 PUSH1 0x40 MSTORE PUSH1 0x1 PUSH1 0x0 SSTORE PUSH4 0x3B9ACA00 PUSH1 0x1 SSTORE PUSH8 0xDE0B6B3A7640000 PUSH1 0x2 SSTORE CALLVALUE DUP1 ISZERO PUSH2 0x29 JUMPI PUSH1 0x0 DUP1 REVERT JUMPDEST POP PUSH2 0x107 DUP1 PUSH2 0x39 PUSH1 0x0 CODECOPY PUSH1 0x0 RETURN INVALID PUSH1 0x80 PUSH1 0x40 MSTORE CALLVALUE DUP1 ISZERO PUSH1 0xF JUMPI PUSH1 0x0 DUP1 REVERT JUMPDEST POP PUSH1 0x4 CALLDATASIZE LT PUSH1 0x3C JUMPI PUSH1 0x0 CALLDATALOAD PUSH1 0xE0 SHR DUP1 PUSH4 0x18482E0F EQ PUSH1 0x41 JUMPI DUP1 PUSH4 0x7AE416C3 EQ PUSH1 0x5B JUMPI DUP1 PUSH4 0xE2C3A75B EQ PUSH1 0x75 JUMPI JUMPDEST PUSH1 0x0 DUP1 REVERT JUMPDEST PUSH1 0x47 PUSH1 0x8F JUMP JUMPDEST PUSH1 0x40 MLOAD PUSH1 0x52 SWAP2 SWAP1 PUSH1 0xB8 JUMP JUMPDEST PUSH1 0x40 MLOAD DUP1 SWAP2 SUB SWAP1 RETURN JUMPDEST PUSH1 0x61 PUSH1 0x95 JUMP JUMPDEST PUSH1 0x40 MLOAD PUSH1 0x6C SWAP2 SWAP1 PUSH1 0xB8 JUMP JUMPDEST PUSH1 0x40 MLOAD DUP1 SWAP2 SUB SWAP1 RETURN JUMPDEST PUSH1 0x7B PUSH1 0x9B JUMP JUMPDEST PUSH1 0x40 MLOAD PUSH1 0x86 SWAP2 SWAP1 PUSH1 0xB8 JUMP JUMPDEST PUSH1 0x40 MLOAD DUP1 SWAP2 SUB SWAP1 RETURN JUMPDEST PUSH1 0x2 SLOAD DUP2 JUMP JUMPDEST PUSH1 0x0 SLOAD DUP2 JUMP JUMPDEST PUSH1 0x1 SLOAD DUP2 JUMP JUMPDEST PUSH1 0x0 DUP2 SWAP1 POP SWAP2 SWAP1 POP JUMP JUMPDEST PUSH1 0xB2 DUP2 PUSH1 0xA1 JUMP JUMPDEST DUP3 MSTORE POP POP JUMP JUMPDEST PUSH1 0x0 PUSH1 0x20 DUP3 ADD SWAP1 POP PUSH1 0xCB PUSH1 0x0 DUP4 ADD DUP5 PUSH1 0xAB JUMP JUMPDEST SWAP3 SWAP2 POP POP JUMP INVALID LOG2 PUSH5 0x6970667358 0x22 SLT KECCAK256 0xAA EXP CALLDATASIZE 0xBB SWAP2 SWAP5 0x2C MSTORE8 0xAA SLOAD LOG4 GAS PC RETURNDATACOPY 0xD3 SHL 0x5E SELFBALANCE 0xCF 0x28 JUMP KECCAK256 DUP13 DUP5 LT PUSH22 0x7C1725AB412964736F6C634300081200330000000000 "
		},
		"gasEstimates": {
			"creation": {
				"codeDepositCost": "52600",
				"executionCost": "66423",
				"totalCost": "119023"
			},
			"external": {
				"one_ether()": "2407",
				"one_gwei()": "2451",
				"one_wei()": "2429"
			}
		},
		"methodIdentifiers": {
			"one_ether()": "18482e0f",
			"one_gwei()": "e2c3a75b",
			"one_wei()": "7ae416c3"
		}
	},
	"abi": [
		{
			"inputs": [],
			"name": "one_ether",
			"outputs": [
				{
					"internalType": "uint256",
					"name": "",
					"type": "uint256"
				}
			],
			"stateMutability": "view",
			"type": "function"
		},
		{
			"inputs": [],
			"name": "one_gwei",
			"outputs": [
				{
					"internalType": "uint256",
					"name": "",
					"type": "uint256"
				}
			],
			"stateMutability": "view",
			"type": "function"
		},
		{
			"inputs": [],
			"name": "one_wei",
			"outputs": [
				{
					"internalType": "uint256",
					"name": "",
					"type": "uint256"
				}
			],
			"stateMutability": "view",
			"type": "function"
		}
	]
}